:020000002100DD
:02000B00216E64
:100100007581607589019001E9758CD8758AF0D286
:10011000A9D2AFD28C780175300075311E753223AB
:100120007590CDC2B0D2B112012D020142790AE51B
:100130003189F084FCADF0790AE53289F084FEAFB4
:10014000F022C2A2C2A3C2A4EC93F5801201E0D2B5
:10015000A2ED93F580C2A2C2A3D2A41201E0EE9355
:10016000F5801201E0D2A2EF93F580308DD4C0D09B
:10017000C0E0C2AF758CD8758AF00530E530B46444
:10018000587530000815311532B81F0F7590D6C25A
:10019000B0D2B175310512012D803EB82412759090
:1001A0007AD2B0C2B175311E75321912012D802973
:1001B000B8420F7590BAD2B0C2B175320512012D96
:1001C0008017B8471478017590CDC2B0D2B175319F
:1001D0001E75322312012D8000D2AFD0E0D0D03274
:1001E0007B027A0ADAFEDBFA223F065B4F666D7D00
:0401F000077F6F0016
:00000001FF
