:100000007F81838587898B8D8F91939597999B9D10
:100010009FA1A3A5A7A9ABADAFB1B3B5B7B9BBBD00
:10002000BFC1C3C5C7C9CBCDCFD1D3D5D7D9DBDDF0
:10003000DFE1E3E5E7E9EBEDEFF1F3F5F7F9FBFDE0
:10004000FFFDFBF9F7F5F3F1EFEDEBE9E7E5E3E1B0
:10005000DFDDDBD9D7D5D3D1CFCDCBC9C7C5C3C1A0
:10006000BFBDBBB9B7B5B3B1AFADABA9A7A5A3A190
:100070009F9D9B99979593918F8D8B898785838180
:100080007F7D7B79777573716F6D6B696765636170
:100090005F5D5B59575553514F4D4B494745434160
:1000A0003F3D3B39373533312F2D2B292725232150
:1000B0001F1D1B19171513110F0D0B090705030140
:1000C00000020406080A0C0E10121416181A1C1E40
:1000D00020222426282A2C2E30323436383A3C3E30
:1000E00040424446484A4C4E50525456585A5C5E20
:1000F00060626466686A6C6E70727476787A7C7E10
:00000001FF
