:020000040800F2
:10000000F8190120A902000823CD00086B99000807
:10001000DBCC000801110008B14D01080000000010
:100020000000000000000000000000005719010857
:100030000D190008000000005D0B0008DD19010823
:10004000E3020008E3020008E3020008E3020008FC
:10005000E3020008E3020008E3020008E3020008EC
:10006000E3020008E3020008E3020008E3020008DC
:10007000E3020008E3020008E3020008E3020008CC
:10008000E3020008E3020008E3020008E3020008BC
:10009000E3020008E3020008E3020008E3020008AC
:1000A000E3020008E3020008E3020008E30200089C
:1000B000E3020008E13D0108ED3D0108E30200080C
:1000C000E3020008E3020008E3020008E30200087C
:1000D000E30200083D4D0108E3020008E3020008C6
:1000E000E3020008E3020008E3020008E30200085C
:1000F000E3020008E3020008E3020008E30200084C
:10010000E3020008E3020008E3020008E30200083B
:10011000E3020008E3020008E3020008E30200082B
:10012000E3020008E3020008E3020008E30200081B
:10013000E3020008E3020008E3020008E30200080B
:10014000E3020008E3020008E3020008E3020008FB
:10015000E3020008E3020008E3020008E3020008EB
:10016000E3020008E3020008E3020008E3020008DB
:10017000E3020008E3020008E302000800000000B8
:10018000E3020008E3020008E3020008E3020008BB
:10019000E3020008E3020008E3020008E3020008AB
:1001A000E3020008E3020008E302000800F002F89E
:1001B00000F06BF80AA090E8000C82448344AAF196
:1001C0000107DA4501D100F060F8AFF2090EBAE894
:1001D0000F0013F0010F18BFFB1A43F0010318477B
:1001E000889A0200A89A020010F8013B0A4413F012
:1001F000030408BF10F8014B1D1108BF10F8015B84
:10020000641E05D010F8016B641E01F8016BF9D172
:10021000002D15D010F8014B03F00C030C2BA1EBB3
:1002200004040ABF10F8013BA4EB8314A4EB0324DD
:1002300005F1010314F8016B5B1E01F8016BF9D5A0
:10024000914238BF10F8013BD1D3704700230024FE
:1002500000250026103A28BF78C1FBD8520728BFD6
:1002600030C148BF0B607047642900F0D7807829FF
:1002700000F01081732900F06D83002070471FB5D6
:1002800021F033FE1FBD10B510BD00F0DBFB1146A1
:10029000FFF7F5FF20F0BEFF00F0F9FB03B4FFF716
:1002A000F2FF03BC20F018FF11488047DFF844003C
:1002B000016841F470010160BFF34F8FDFF838002F
:1002C000016821F040410160BFF36F8F0B48004788
:1002D000FEE7FEE7FEE7FEE7FEE7FEE7FEE7FEE7F6
:1002E000FEE7FEE706480749074A084B704700004B
:1002F000011A010888ED00E034EF00E0AD010008CC
:10030000F80D0120F8190120F80F0120F80F012045
:1003100072B6704762B67047EFF3108072B67047DE
:1003200080F31088704730BF704720BF7047B0FA25
:1003300080F0704790FAA0F0B0FA80F0704790FA21
:10034000A0F07047704700000FB4044910B503AA2D
:10035000029800F003FB10BC5DF814FB24000020A1
:100360002DE9F0410E460446002020622046E16857
:10037000884730B3252805D0D4E901219047206A69
:10038000401CF2E7E168204600278847050018D0A6
:10039000A5F14100192802D820354FF400673246F4
:1003A000294620462760FFF75FFF40B1012804D0AF
:1003B000F61D26F007060836D8E7361DD6E728468C
:1003C000DAE7206ABDE8F08170B50C460546012ADF
:1003D00005D02878800600D5EA69002302E00123D1
:1003E00005E05B1C934202D2E05C0028F9D1A869C9
:1003F000E618C01AA861286A184428622846AFF394
:10040000008004E0D5E9012114F8010B9047B442C3
:10041000F8D32846AFF3008070BD00002DE9F0410D
:100420000646002410687529314616A510D0AFF392
:100430000080002802DA404213A507E031688A07ED
:1004400001D512A502E0490704D511A5012401E058
:10045000AFF3008000210A2206F1240709E0B0FB77
:10046000F2FCB0FBF2F302FB1C003030785418466B
:10047000491C0028F3D123462A463046BDE8F04106
:1004800000F0FDB9000000002D0000002B0000006E
:100490002000000070B504460D4621461068AFF3F9
:1004A00000802188090502D50F4A7A4402E00E4AED
:1004B0007A440E32002104F1240305E000F00F0617
:1004C0000009965D5E54491C0028F7D1207800236E
:1004D000000704D5702D02D009B102231132204645
:1004E000BDE8704000F0CBB9B096020040EA0103CD
:1004F00010B59B070FD1042A0DD310C808C9121FCD
:100500009C42F8D020BA19BA884201D9012010BD06
:100510004FF0FF3010BD1AB1D30703D0521C07E0D3
:10052000002010BD10F8013B11F8014B1B1B07D137
:1005300010F8013B11F8014B1B1B01D1921EF1D1A8
:10054000184610BD40EA0103024630B59B0710D1A2
:100550004FF0013400E008C208C91D1B9D4315EA95
:10056000C41FF8D013F0FF0102F8011B0DD01B0AC5
:10057000F8E711F8013B002B02F8013B05D011F818
:10058000013B002B02F8013BF3D130BD10B5431CF9
:1005900002E010F8011B71B18107FAD14FF001326E
:1005A00002C88C1A8C4314EAC211F9D0C01A0A0688
:1005B00003D0C01E10BDC01A10BD0A0401D0801E99
:1005C00010BD0902FCD0401E10BD032A40F230804D
:1005D00010F0030C00F0158011F8013BBCF1020F84
:1005E000624498BF11F801CB00F8013B38BF11F805
:1005F000013BA2F1040298BF00F801CB38BF00F81C
:10060000013B11F0030300F06780083AC0F0088056
:1006100051F8043B083A51F804CBA0E80810F5E77C
:10062000121D5CBF51F8043B40F8043BAFF300805F
:10063000D20724BF11F8013B11F801CB48BF11F8D4
:10064000012B24BF00F8013B00F801CB48BF00F8A4
:10065000012B7047431A28BF9A427FF6B6AF032A90
:100660001044114440F2268010F0030F1EBF11F811
:10067000013D521E00F8013D10F0030F7FF4F6AF6C
:1006800011F0030300F08F81083AC0F00B8051F89D
:10069000043D083A51F804CD40F8043D40F804CD3B
:1006A000FFF7F3BF121D5CBF51F8043D40F8043D55
:1006B000AFF30080D20724BF11F8013D11F801CD3E
:1006C00048BF11F8012C24BF00F8013D00F801CD0E
:1006D00048BF00F8012C704710B5203AC0F00B80DD
:1006E000B1E81850203AA0E81850B1E81850A0E836
:1006F0001850BFF4F5AF5FEA027C24BFB1E8185090
:10070000A0E8185044BF18C918C0BDE810405FEAFF
:10071000827C24BF51F8043B40F8043B08BF70477B
:10072000D20728BF31F8023B48BF11F8012B28BF80
:1007300020F8023B48BF00F8012B704702F0FF038E
:1007400043EA032242EA024200F002B84FF00002FC
:100750000429C0F0128010F0030C00F01B80CCF1D3
:10076000040CBCF1020F18BF00F8012BA8BF20F841
:10077000022BA1EB0C0100F00DB85FEAC17C24BF95
:1007800000F8012B00F8012B48BF00F8012B70473F
:100790004FF0000200B5134694469646203922BF1A
:1007A000A0E80C50A0E80C50B1F12001BFF4F7AF65
:1007B000090728BFA0E80C5048BF0CC05DF804EB47
:1007C000890028BF40F8042B08BF704748BF20F8B5
:1007D000022B11F0804F18BF00F8012B704700006A
:1007E0004FF0013C50F8042B51F8043B9A4221D1C0
:1007F000A2EB0C03934313EACC1317D150F8042B4C
:1008000051F8043B9A4215D1A2EB0C03934313EA2F
:10081000CC130BD150F8042B51F8043B9A4209D168
:10082000A2EB0C03934313EACC13DBD04FF0000090
:10083000704700BFD01A01BAB1FA81F101F0180176
:1008400022FA01F0CB40C1F12001DBB2C0B2C01AE4
:100850002CFA01F3D11A914311EAC311E6D1704782
:10086000704770477047704710B500F0C7F80068D0
:1008700010BD10B5044600F0C1F8046010BD2DE9AC
:10088000F0470D4699469246044600F12408016857
:10089000880604D5E06921F01001216000E0012004
:1008A000A84201DD471B00E00027A1697A1902EB8D
:1008B0000900081AA0612078C00602D42046AFF3D0
:1008C0000080002608E0D4E901211AF806009047CC
:1008D000206A401C761C20624E45F4DB2078C0065E
:1008E0000AD52046AFF3008006E0D4E9012130208C
:1008F0009047206A401C2062381EA7F10107F4DCF3
:1009000007E0D4E9012118F805009047206A401C4F
:100910002062281EA5F10105F3DC2046AFF300801C
:100920002078000602D50220BDE8F0870120FBE711
:1009300010B5436913B1AFF3008001E0FFF744FD48
:10094000012010BD127800F124010A7000224A70C3
:100950000122EDE711684FF0FF32E9E7074B70B570
:100960000D467B4400F053F80446284600F062F838
:1009700010B14FF0FF3070BD204670BD6708020017
:10098000431A28BF9A427FF6A7AE104410F0030F17
:1009900011441EBF11F8013D521E00F8013D10F038
:1009A000030F7FF4F6AF103AC0F00A8010B531E9BA
:1009B0001850103A20E91850BFF4F9AFBDE81040C4
:1009C000530724BF31E9081020E9081044BF51F84B
:1009D000043D40F8043D12F0030F08BF7047D207F2
:1009E00028BF31F8023D48BF11F8012C28BF20F87C
:1009F000023D48BF00F8012C7047000000487047D6
:100A0000980D012001694A1C02610878704700B501
:100A10008FB0CDE901310021059105497944CDE937
:100A2000031011466846FFF79BFC0FB000BD0000A5
:100A3000E5FFFFFF007B00F0800070470048704733
:100A4000980D01207546FFF7F9FFAE46050069468F
:100A5000534620F00700854618B020B5FFF742FC4A
:100A6000BDE820404FF000064FF000074FF00008AF
:100A70004FF0000B21F00701AC46ACE8C009ACE830
:100A8000C009ACE8C009ACE8C0098D46704710B594
:100A90000446AFF300802046BDE81040FFF7FEBBE0
:100AA000EFF3098141B1F1EE101A40F8041D20ED79
:100AB000200A3E490A6810607047B0EC200A02C85C
:100AC000E1EE101A3A490A681060704772B64EF6A5
:100AD0002250CEF2000040F2FF01C0F2000101708E
:100AE0004FF0000080F309880DF07AFA40F2881088
:100AF000C2F20000016881F3088840F21210C2F2CD
:100B0000000040F21311C2F200010A78027040F2B4
:100B10008015C2F2000540F28411C2F200010A6899
:100B20002A60106880F30988EFF3148040F0020017
:100B300080F31488BFF36F8FBDE8F00F0FBCBDE8E2
:100B4000005006BC62B608471A484FF08051016059
:100B5000704718484FF080510160704772B6EFF34C
:100B6000098020E9F00F40F28015C2F200052E68DE
:100B7000306074460DF034FA40F21210C2F20000F8
:100B800040F21311C2F200010A78027040F284119F
:100B9000C2F200010A682A6044F0F40E1068B0E85E
:100BA000F00F80F3098862B67047000080010020D2
:100BB0008401002004ED00E008F0F8BE2DE9F041CA
:100BC0000D460146002004464E1908E00702301B7E
:100BD000401E80B200F007F8641C3844E4B2AC4216
:100BE000F4D3BDE8F08110B5044608F087FF200A71
:100BF000A02101EB4000C0B208F050FF08F0C0FF98
:100C0000E0B208F04BFF08F0BBFF08F077FFA1202F
:100C100008F044FF08F0B4FF002008F00BFF044682
:100C200008F08CFF204610BD2DE9F04116460D4618
:100C30000746002409E0E00025FA00F0C1B23819A7
:100C400080B200F006F8641CE4B2B442F3D3BDE80D
:100C5000F08170B50D46044608F050FF200AA0212F
:100C600001EB4000C0B208F019FF08F089FFE0B2C4
:100C700008F014FF08F084FF284608F00FFF08F082
:100C80007FFF08F05BFFBDE870400A2020F04CBAFF
:100C9000002800DC4042704738B5456804460146EC
:100CA000284614F0ADF800282BD02068304A1128CF
:100CB0000DD006DC0B2825D00E2833D00F2852D1BA
:100CC00012E0282849D0B0F5107F4CD108E0926896
:100CD000002A16D02146284601B0BDE83040104712
:100CE000214628465268F7E7284603F085FA009027
:100CF000406E0468684603F0E9FA002C01D02846EB
:100D0000A04738BD284603F077FA0090683003F01A
:100D1000C9F9009803216C3003F0D2F9684603F05A
:100D2000D5FA20E0E168486809680D2902D0202939
:100D300013D105E0002810DD28461CF05AFC06E01F
:100D4000002804DD2846BDE838401CF052BC284687
:100D5000BDE8384002211CF062BCE06818B90021EF
:100D6000284600F097F92046BDE8384014F0CABB89
:100D700044020020F0B5044685B08069B4F90850FB
:100D8000668A0027CDE90265CDE900170490B4F921
:100D90000C00B4F91060C118B4F90A00B4F90E508F
:100DA000104433462A4600F007F80546616800F013
:100DB0007AF905B02846F0BD2DE9F04F85B01F4601
:100DC000DDE911B4DDE90E5690468946824604F00D
:100DD0004DFC16484C34CDE90204CDE900563B46A3
:100DE00042464946504614F0D5FA040018D003F0A4
:100DF00003FA10225946049014F0F6F904983022B0
:100E00000B493430FFF768FC094D04990C3D286804
:100E1000486604A803F05AFA2868416820468847C3
:100E200005F098FF05B02046BDE8F08F990C00084A
:100E300050020020F0B5044680688B4989B051F813
:100E40002050606800287DD0052804D006287AD07C
:100E5000122879D1AEE0E86900284FD095E80E005D
:100E60008DE80F0004F110010FC906F00FFC0026F9
:100E700055F8260005F095FAA169E8690A1A216972
:100E800001446069304404F023F9A169E8690A1A51
:100E900021690144E069801B04F01AF9E169E869FD
:100EA0000A1A616901442069304404F0C7F9E16914
:100EB000E8690A1A61690144A069801B04F0BEF95F
:100EC000761C022ED4DBA86805F06BFAE069E969AC
:100ED0006669431A206942183144801C521E04F08E
:100EE000F7F9E169E869A2690B1A61690144101A0E
:100EF000401C921E04F0ECF9EE6913E05FF000066E
:100F000055F8260005F04DFAE069831BA069821BA5
:100F1000606981192069304404F050F9761C022E72
:100F2000EEDB0226D5E90301CDE900016169E06944
:100F300008444310A069891C821B2069304404F0D6
:100F40008BF802E089E012E08AE0D5E90501CDE9FD
:100F50000001E36960690121184401EB6001A069A7
:100F60009B1E821B2069304404F076F878E02068EC
:100F700003F042F90490206815F044FF40B1A068E6
:100F800008B1002008E00498006F28B1012003E0B8
:100F90000498406F00B10220049901EB8000C56EF7
:100FA00004A803F093F900231A462846216803F0A9
:100FB000D7FD55E0206803F01FF90490866EEEB36C
:100FC000B0F95C70A168D1B3032942D05FF0000191
:100FD00000EB8101406D0C6C05F000FA204605F035
:100FE000E0F905A804F036FABDF81410A88B014406
:100FF000ADF81410BDF81810081AADF81800BDF8B7
:101000001600801CADF81600BDF81A00801EADF861
:101010001A000498B0F96020B0F95E1005A805F038
:101020000FF804A803F052F9022005F061FA3046E7
:1010300003F0E2F83A4605A9079001E00BE006E06C
:1010400003F092FE0DF11C0003F040F908E00121CD
:10105000BEE70221BCE704A8F6E7206815F0F8FA1D
:1010600009B00020F0BD0000D48F020838B50D464D
:1010700004000ED004F0FAFA204603F0BDF8009008
:101080004565684603F022F9204614F0B5FF05F0E7
:1010900061FE38BD4FF480720029114601D013F073
:1010A00043BF13F086BE2DE9FF410E4605004FF009
:1010B000010421D004F0DAFA284603F09DF80190EB
:1010C000876E01A8009703F001F93146684606F0E3
:1010D000F1FD78B100980024B84208D0284603F00A
:1010E0008BF801900099816601A803F0EFF828467B
:1010F00014F082FF05F02EFE04B02046BDE8F0811A
:10110000FEE7F8B5446805460146204613F078FE30
:10111000002836D028680B2839D00E2805D00F2893
:1011200021D0B0F5107F3CD12CE0204603F064F8CC
:10113000009010F8746F4778684603F0C7F82046AF
:1011400015F060FE10B3E8684168002929DD0068E9
:10115000202826D17F1CB7FBF6F006FB1071204635
:1011600000F031F91DE02546204603F045F80090D7
:10117000006F0468684603F0A9F8002C01D02846E7
:10118000A047F8BD294620461CF06AFF09E020462A
:1011900003F032F80090783002F084FF684603F0E4
:1011A00095F82846BDE8F84014F0ACB9F0B585B024
:1011B000B0F90850468A84690296CDE903540027A5
:1011C000CDE90017B0F90C10B0F91050B0F90E408D
:1011D000B0F90A00194410442B46224600F002F8E8
:1011E00005B0F0BD2DE9F04F85B01D46DDE90E9745
:1011F00016468A468346DDF8488004F037FA254CC7
:101200000EB135B10AE02068806800688047064664
:10121000F7E7206880680068804705461D486FF042
:101220007041001DC068884201D147F0010708F1F4
:101230005400194ACDE90220CDE900972B463246E9
:101240005146584614F0A6F805001CD002F0D4FF11
:1012500010220490119913F0C7FF0E4904983C2204
:10126000091D3430FFF738FA04982168016702211C
:1012700080F874100F21C16704A803F027F82068D4
:1012800041682846884705F065FD05B02846BDE859
:10129000F08F000040050020031100082DE9FF47F2
:1012A0000446006810B115F0ADFD68B10022314868
:1012B00050F8221060680A2841D007DCF0B30628F5
:1012C0000DD0072854D106E00122F0E712280AD0F9
:1012D00019284DD137E0204617F03CF948E0204668
:1012E00018F0E4FC44E0206802F086FF0290B0F9B8
:1012F000548090F85650476C466B02A802F0E6FF07
:10130000206800F039F88146684614F029FABDF8E3
:10131000001009EB05000844ADF80000246A3046CF
:1013200005F05CF8022005F0E3F8384605F039F8DE
:1013300042466946204603F017FD19E007E02046C3
:1013400018F02DFE14E0886904B0BDE8F08720682D
:1013500015F07EF9206802F04FFF0390B0F90610F7
:10136000B0F90220891A491CC16703A802F0AEFF38
:101370000020E9E7D099020838B5044604F076F970
:10138000204602F039FF0090C46F684602F09EFFCD
:1013900005F0E0FC204638BD38B50C46050011D0FC
:1013A00004F064F9284602F027FF0090416BA14247
:1013B00003D04463284614F01FFE684602F086FFFF
:1013C00005F0C8FC38BD38B50C4605001BD004F04C
:1013D0004DF9284602F010FF009090F87410A142D9
:1013E0000CD980F87540684602F070FF284614F06A
:1013F00003FE0521284614F0CEFE02E0684602F006
:1014000065FF05F0A7FC38BDFEB50D46040022D0EF
:10141000002D20D004F02AF9204602F0EDFE0190C4
:10142000866F01A8009602F051FF2946684606F033
:1014300041FC70B10098B04208D0204602F0DCFEBA
:1014400001900099816701A802F040FF204614F046
:10145000D3FD05F07FFCFEBD38B50C46050011D06C
:1014600004F004F9284602F0C7FE0090416CA14246
:1014700003D04464284614F0BFFD684602F026FFFE
:1014800005F068FC38BD000000B589B0242168462D
:10149000FFF77EF9192001900348006880684168D1
:1014A0006846884709B000BD40050020054910B5D1
:1014B0000020486000F0A6F800F006F8BDE81040F3
:1014C00000F086B8980000202DE9F041104F00266A
:1014D00035463E807E80BE60FE607E61BE613E61BC
:1014E000FEF71AFF804600247E6100F049F800F004
:1014F00057F87869641C24040544240CF4D0C7E927
:1015000004564046BE61BDE8F041FEF709BF000049
:101510009800002003490969884201D9401A7047A0
:10152000002070479800002010B5FEF7F5FE044932
:101530004C69FEF7F5FE2046BDE81040FFF7EABF14
:101540009800002010B5FFF7EFFF0446FEF7E4FE19
:10155000034A00215161FEF7E3FE204610BD000062
:101560009800002010B5FEF7D7FE04498C69FEF7FD
:10157000D7FE2046BDE81040FFF7CCBF9800002002
:1015800010B5064C2088401C2080608810B900F0FF
:1015900051F8A0606088401C608010BD9800002059
:1015A00010B50A4C6088401E0004000C60800CD10D
:1015B00000F040F8E060A168401A6169814200D201
:1015C0006061A169814200D2A06110BD9800002035
:1015D00010B5FEF7A1FE0446FFF7D2FF1021054823
:1015E0000BF07CFBFFF7DCFF2046BDE81040FEF768
:1015F00097BE0000A0F1002001494860704700003C
:101600009800002010B507F0F9F908490A6842F07F
:1016100080720A60064900224A600A6842F00102AC
:101620000A60BDE81040FFF7E7BF0000FCED00E0F6
:10163000001000E00148406870470000001000E022
:1016400070B50E4C0025C4F898520D48016821F081
:10165000C0010160016841F0400101600948C0F823
:101660008C52022004F526741FF086FD01202060B4
:1016700002201FF081FD256070BD00000080434204
:101680000020024000004442154810B5016886B0B1
:1016900041F080010160016801F08001059101685D
:1016A00041F4807101600068012400F480700590AD
:1016B0004020CDE900040320CDE9024069460948F5
:1016C00006F018FC082000906946074806F012FC56
:1016D0000648C0F88C420648C0F8984206B010BDD3
:1016E00030380240001C024000200240000044420A
:1016F0000080434270B50E4C0026C4F898620D4835
:10170000016821F0C0010160016841F04001016001
:1017100009480125C0F88C52022004F526741FF0F8
:101720002BFD256002201FF027FD266070BD000004
:101730000080434200200240000044422DE9F0476F
:10174000824619480024016821F0C0010160016847
:1017500001601E201FF010FD0025144EDFF8509090
:101760002F464FF00108C6F8987202201FF004FDC2
:10177000C6F898826006040ED9F80C0208B1641C01
:10178000E4B202201FF0F8FC6D1CEDB2082DEAD384
:10179000BAF1000F04D0FFF753FF2046BDE8F087F1
:1017A000FFF7A8FFF9E70000002002400080434255
:1017B000000044422DE9F04705461648016821F033
:1017C000C0010160016841F040010160124E002734
:1017D000C6F8987202201FF0CFFCDFF8408000248A
:1017E0004FF00109E909C8F88C126806050E0220BD
:1017F0001FF0C2FCC6F8989202201FF0BDFCC6F88C
:10180000987202201FF0B8FC641CE4B2082CE9D3E3
:10181000BDE8F087002002400080434200004442BF
:1018200070B50F48016821F0C0010160016841F006
:10183000400101600B4E0120C6F88C020A4DC5F82C
:1018400098021E2005F5267506F523761FF094FCF8
:101850000024346002201FF08FFC2C6070BD00005B
:1018600000200240000044420080434270B50F480F
:10187000016821F0C0010160016841F04001016090
:101880000B4E0020C6F898020A4DC5F88C021E20A7
:1018900005F5237506F526761FF06EFC01243460ED
:1018A00002201FF069FC2C6070BD00000020024087
:1018B000008043420000444270B511480024016892
:1018C00021F0C0010160016801600E4D0120C5F8E2
:1018D0008C020D4EC6F8980207E0641CE4B2FA2CA4
:1018E00003D9FFF7C3FF012070BD02201FF044FCA5
:1018F000D5F80C020028F0D1C6F8980270BD00009F
:1019000000200240000044420080434270472DE91D
:10191000FC470E465FEA00097FD003F0A7FE484669
:1019200002F06AFC009090F85470D0F85880456B33
:10193000C46C684602F0CAFCB8F1000F04D031460E
:1019400048464246904761E0122E18D006DC082E29
:1019500043D0102E3CD0112E06D112E0132E21D0F0
:101960001D2E43D01E2E3DD0202E4FDB17B14846F2
:1019700016F099FCB1B248461BF0FAFA60B3611C4C
:1019800027E04DB3284602F037FC0546214601907A
:1019900005F0CEF84419204605F078F801462346B4
:1019A000012210E0C5B1284602F026FC054621467A
:1019B000019005F0BDF84419204605F067F801468E
:1019C00023464FF0FF32484616F025F901A81BE0E8
:1019D000611E484600F01CFB18E0BCB1611E484681
:1019E00000F016FB484616F05EFC0FE0484602F099
:1019F00003FC0090012F12D0012180F854102146E1
:101A0000484600F005FB684602F060FC484614F0CA
:101A1000F3FA00E001E005F09DF9BDE8FC87002144
:101A200080F85410EFE7FEB544680546204615F0EF
:101A3000E9F906462946204613F0E2F9002837D096
:101A400028680F2830D004DC0B2832D00E2853D160
:101A50003AE0A0F58070133804D0A0F580702D38DE
:101A60004AD110E0204614F077FC204600211CF0FB
:101A700005FD204602F0C0FB0190C06F002114F06C
:101A800042FC01A81DE0E86860B1017A29B1016853
:101A9000204600F001F9012100E00221204614F067
:101AA0007AFB29E00321F9E7012120461CF0E6FC3E
:101AB000FEBD204602F0A0FB0090343002F0F2FAA6
:101AC000684602F003FC17E0B6B1E86841680029F7
:101AD00012DD01681B290FD006DC09290CD00A2968
:101AE0000AD00D2904D107E0212905D0222903D0ED
:101AF0002046FFF70CFFFEBD284613F003FDFEBD98
:101B0000F0B587B00DF1300E9EE8F0104FF0000EEA
:101B10008DE8F05000F028F807B0F0BDF0B587B0C0
:101B200004460DF1080CD4E90567B0F90850408A65
:101B30008CE8E1000020CDE90010B4F90C00B4F904
:101B40001060C118B4F90A00B4F90E5010443346BD
:101B50002A4600F009F8050002D0618A00F011FA67
:101B600007B02846F0BD00002DE9F04F85B01F46B4
:101B7000DDE91254DDE90E6A90468946834603F09A
:101B800075FD0DF1040C4AF480501F49583400963D
:101B90008CE813003B4642464946584613F0FAFB90
:101BA00004002AD002F028FB10220490119913F0AF
:101BB0001BFB04981C2215496030FEF78DFD049A2A
:101BC000012082F85500681C00D0012082F88000B6
:101BD000002D00DC08252DB21587002050875063AA
:101BE00004A86D1C02F072FB294620461BF083F806
:101BF00018B9204613F0BEFC002405F0ABF805B080
:101C00002046BDE8F08F0000271A0008800200205F
:101C100001488068704700008002002038B5050048
:101C20004FF000040BD003F021FD284602F0E4FA47
:101C30000090846C684602F049FB05F08BF8204662
:101C400038BDF8B515460C46060013D003F00EFD5E
:101C5000304602F0D1FA009038B1022C05D200EBE8
:101C600084004567304614F0C7F9684602F02EFB41
:101C700005F070F8F8BD70B50D46044603F0F6FCAB
:101C800034B12946204600F0C3F9204614F0B4F9D7
:101C9000BDE8704005F05EB82DE9F04186B00C4615
:101CA000060055D003F0E2FC304602F0A5FA0090A1
:101CB000406B98B302F0A0FA03900098806E04F095
:101CC0008DFB8046304613F0C8FE0746039803F0AC
:101CD00027FC0546009890F8601001F003010129E7
:101CE00016D002290DD0416EC06A00680844241A3B
:101CF000641E039805F088FE0146002C0FDA0021CF
:101D000015E0781B401C00EBD070A4EB6004F0E7FA
:101D1000406E791B081A241A641CEAE713E0AC42EF
:101D200005DC02462146039805F018FE01463046C0
:101D300000F06EF903A802F0C9FA404604F04EFB29
:101D4000304614F059F9684602F0C0FA05F002F87E
:101D500006B0BDE8F08100002DE9F8431D46DDE93D
:101D6000084916460F46804603F080FC5FEA0800EB
:101D700040D002F041FA2149009081652049C165B7
:101D80000021C0E91271E0E90F650121047280F8B9
:101D90001A90017690F84470684602F097FA87B17D
:101DA00028461AF08BFA054630461AF087FA0CB12D
:101DB000401C6D1C854200DD28460146404600F06F
:101DC0003FF840461EF042FA404602F015FA0090F5
:101DD00000F009F90B490978884205D10098C16CD7
:101DE0004046491C00F014F9684602F06FFA40467C
:101DF00014F002F904F0AEFFBDE8F883B5760108EF
:101E00004D020208B001002000294FF0100101D05E
:101E100013F08AB812F0CDBF38B50D4604000ED0CD
:101E200003F024FC204602F0E7F900908566204686
:101E300014F0E2F8684602F049FA04F08BFF38BD6E
:101E40007CB50C46060033D003F010FC304602F09F
:101E5000D3F90090B0F93810458FA14223D012DD9C
:101E6000406B80B102F0C8F9019005F0CDFDA042B1
:101E700006DD2146019804F05BFE019A0021115411
:101E800001A802F023FA684602F020FA611B3046EE
:101E9000491C1AF030FF304602F0AEF9009004877A
:101EA000304614F0A9F8684602F010FA04F052FF28
:101EB0007CBD2DE9FC4788465FEA00094FF000062B
:101EC00052D003F0D3FB484602F096F90090B0F9E7
:101ED0003850446B684602F0F9F90027B8F1000F5A
:101EE00044D04CB1204602F087F90190FEF74EFB3A
:101EF000461C01A802F0EAF9404605F085FD0446BB
:101F0000A84200DD2C462146404604F011FE451C47
:101F1000A91B48461BF0E7F808B3484602F06CF9E5
:101F20000090406B02F068F92A4641460190FEF7A6
:101F30004CFB0198284400F8017C0098C464B0F977
:101F400038108C4205D190F85410012901D1641E3B
:101F5000C46401A802F0BAF9684602F0B7F948462D
:101F600014F04AF804F0F6FEBDE8FC87484602F09B
:101F700043F90090343002F095F800984787C76421
:101F8000EAE738B50C4605000FD003F06FFB284692
:101F900002F032F9009018B10466284614F02CF8CB
:101FA000684602F093F904F0D5FE38BDF8B5154641
:101FB0000C46060013D003F059FB304602F01CF922
:101FC000009038B1022C05D200EB8400C566304683
:101FD00014F012F8684602F079F904F0BBFEF8BD7F
:101FE00000221DF02CBE38B50546406B002468B1B8
:101FF00002F002F900900446E96C04F099FD2044D7
:1020000004F044FD0446684602F060F9204638BDFD
:102010001CB50C4602F0F0F80090406BF0B102F0F5
:10202000EBF8019005F0F0FC009991F8542002B112
:102030000122002C00DA0024844200DD0446B1F9BC
:102040003800801AA04200DA0446C86CA04200D0D2
:10205000CC640020086501A802F038F9684602F057
:1020600035F91CBD70B5B3F5804F05D06FF07041E8
:1020700040F82210002070BD50F82230084C234058
:10208000D1E9004544EA05148D688E892D0245EAA0
:10209000064589692C430C431C4340F82240E9E77C
:1020A0000000F0CFF0B50C6850F82450194A1540E4
:1020B000D1E90123D1E903671A433E4332434E6914
:1020C00032438E693243CE6932430E6A32434E6ADE
:1020D00032438E6A3243CE6A3243CE6B32430E6B4A
:1020E00032434E6B32432A43082B01D142F0400267
:1020F00040F824204A6BB2F5801F08D10A6832B13B
:102100004FF480720A6104490268114301600020A3
:10211000F0BD00008000E0FF00011000F0B500EB12
:10212000820253688E8903F04044D1E9003543EAC6
:1021300005138D682D0245EA06452B430E8A0D4D89
:1021400005EB065633430E7D6F0107EB06663343FE
:102150008E693343234353600268D20207D5426835
:10216000098A22F4700205EB0151114341600020FD
:10217000F0BD00000000F0FF30B5D1E901231A43A3
:10218000D1E9033423431A434B690D681A438B6921
:102190001A43D1E90734012D496A05686FF30E052A
:1021A00005D01A4322430A432A43026008E023432E
:1021B00029430B43416803606FF30E010A434260F9
:1021C000002030BD426942EA410141610020704770
:1021D000F8B514460546D1E9000210438A686FF04D
:1021E0001F03C96803EB421242EA412108430090F1
:1021F000286105F077FF064609E0601C07D024B18E
:1022000005F070FF801BA04201D90320F8BDA8692A
:102210008006F2D40020F8BDF0B56FF00F05D1E9CB
:10222000003405EB04145B1E2E0123438C682F033E
:1022300006EB04244FEA054C23430D8A8E8ACC68B2
:10224000097E4FF07F4E07EB05450CEB06560EEB73
:102250000161012A0CD082683F1107EB043423434B
:102260002B43334302F070420B43134383600FE070
:10227000C2682B430B4302F070428168134301F0A4
:1022800070422103A1F5805131431143C360816045
:102290000020F0BD2DE9F047044640688EB00027CD
:1022A000804601F0A9FF0090B0F87CA0D0F86890BB
:1022B000D0F88060D0F88850C06D00B107686846DB
:1022C00002F004F805E0696820468847002843D1F9
:1022D0002D68002DF7D12068172853D00CDC0F286B
:1022E0003DD004DC0B2877D00D2825D18BE01128B8
:1022F00010D0142820D13BE0262846D004DC1E282C
:1023000051D0202818D18AE02A2816D0B0F5107FA5
:1023100012D128E04046E56801F06EFF0290697A2C
:1023200039B9297A012904D130F87C1F41F4807130
:10233000018002A801F0CAFF75E0404601F05CFF91
:102340000090E16811B1C0F8841002E0D0F8840078
:10235000E060684601F0BAFF0EB0BDE8F087D7B381
:102360004046B8475FE0214640461BF0F9FDF3E7E1
:1023700005A9404600F0B3FBE068069901600799A3
:102380004160E9E7C4F80C90E6E7E0680228E3D191
:10239000CDF83080E0680D9027200A900AA9A06847
:1023A00014F040FFD8E7E068012804D0002140463F
:1023B00000F0BBFAD0E7304613F087FE68B1304634
:1023C00014F0C0F8304613F043FD98B101213046B7
:1023D00012F0AAFD0EE026E02FE0484614F006F9C0
:1023E0000646404601F008FF0090C0F8806068464D
:1023F00001F06CFF0121404600F097FA002EABD1AE
:102400000020E060A8E75FEA0A700CD4E068C068CA
:1024100048B1007A38B1404614F094F803E0214600
:1024200040461BF043F92146404612F0E9FC0028E3
:1024300092D0204613F066F88EE7404601F0DCFEAD
:102440000090703001F02EFE684673E7F0B587B05B
:10245000B0F908400DF10C0C0C9E876945688CE8BA
:10246000F000448A0025CDE900150294B0F90C1063
:10247000B0F91050B0F90E40B0F90A0019441044F8
:102480002B46224600F002F807B0F0BD2DE9F04FD0
:102490008BB09846DDE9155691468A468346149FCF
:1024A0001A9C03F0E3F83348603445F48055CDE9D5
:1024B0000204CDE9007543464A465146584612F09B
:1024C00069FF04004FD001F097FE30220490179965
:1024D00012F08AFE0498282227493430FEF7FCF8CF
:1024E00004981999244F4166A0F87C600026C0F832
:1024F0008060C666083FC0F888607968C16504A836
:1025000001F0E4FE05A9204600F0E9FA1B4841F27B
:10251000827103960094CDE90110BDF91E00BDF94A
:102520001A10BDF91C20431ABDF918005B1C121AC1
:10253000521C12F02FFF06467868416820468847F3
:10254000204601F059FE0490866604A801F0BEFE04
:1025500042F20400054202D1204613F083F82046DF
:10256000189900F027FA04F0F5FB0BB02046BDE8FF
:10257000F08F000095220008A4020020E52D00083D
:102580002DE9F041044694B0006800F0B7F908B1B5
:10259000D94D01E0D84D2C35606815281ED00CDCD3
:1025A0000B281FD004DC00287ED005287DD12FE128
:1025B0000E287BD01228F9D141E1162806D0172821
:1025C00008D0182808D01C28F0D109E0E86914B018
:1025D000BDE8F081286AFAE7686AF8E7A86AF6E7D2
:1025E0006869F4E720680B901C200C90206801F0CB
:1025F00003FE0390016D0BA88847064603A801F06F
:1026000065FE022E0FDB95E807008DE80700D4E990
:1026100004023346A16904F0FFFF20698719A0690D
:10262000A0EB06082CE0286803F0BBFE2169E869EE
:102630000A18521E606902F04BFDA269E869111A7E
:10264000491C606902F044FDD4E904077F1C394647
:1026500002F08EFD3946A06902F08AFD686803F039
:10266000A0FE20693946401C02F082FDA06939466F
:10267000401E02F07DFDA0692769A0F10208BF1C81
:10268000286803F08EFE42463946606902F020FD5C
:10269000686803F086FE606942463946401C02F0D5
:1026A00017FD686A022802E015E1B0E000E10BDDE9
:1026B000A86803F076FE61696A6A881C8B18014677
:1026C000424638465B1E27E0296AB14226DD606932
:1026D000022E074600F1020801DB374401E007F152
:1026E0000207206901DB304401E000F102002269A9
:1026F0003B460A444146A2F1010202F0E9FD022EE6
:1027000002DBA069821B01E0A269921EA069E9694F
:102710003B46401A4146401C02F0DAFD022E02DB25
:102720006069064401E06669B61CE76928687F1E97
:1027300003F037FE3A463146206902F07FFD3A4603
:102740003146A06902F07AFDE7696868BF1E03F0B0
:1027500028FE20693A463146401C02F06FFDA06910
:102760003A463146401E02F069FDE869022802DC63
:10277000286A022823DDA86A022802DDE1690F1A0F
:1027800001E0E769BF1EA86803F00BFEE9690229B2
:1027900009DD20693B46421800F1020C31466046D3
:1027A000521E02F095FD286A022808DDA269E86938
:1027B0003B46101A3146401C921E02F089FD2868E3
:1027C00003F0EFFDD4E90620216902F081FC68687E
:1027D00003F0E7FDD4E906202169401E491C521E82
:1027E00002F076FCA86A022811DDA1692669E46975
:1027F000A1F10208271AA41EB61C7F1CA86803F0CA
:10280000D0FD234642463946304602F061FD71E074
:10281000208A00B2ADF81400A18A09B2ADF81610F2
:10282000228B12B2ADF81820A38B1BB2ADF81A3070
:102830002C69ED68CDE9005402F00EFC5AE0208AC4
:10284000298B0844ADF81400A08AADF81600208B3F
:10285000298B401AADF81800A08BADF81A0020683B
:1028600001F0CAFC0390006FF0B1022003F040FEBB
:10287000039890F87C10C1F3C00100EB8100006C5C
:1028800003F08FFD0398406B03F0A8FD0398006FE1
:1028900001F0B2FC03990990B1F95A2005A902F0A0
:1028A00063FA09A801F012FD03A801F00FFD21E071
:1028B000208AADF81400A08AADF81600208BADF880
:1028C0001800A08BADF81A00A86803F06AFD05A8EF
:1028D00002F02AFD0EE0206801F08EFC039030F833
:1028E0005A1F41F00C01018003A801F0EFFC2068A1
:1028F00013F0AEFE00206AE69405002038B505000E
:102900004FF000040FD002F0B1FE284601F074FC35
:10291000009090F87C00000700D50124684601F083
:10292000D5FC04F017FA204638BD70B50D460400FA
:1029300009D002F09BFE294620461CF02DFCBDE884
:10294000704004F007BA70BD2DE9FC410D46804689
:1029500002F08CFE5FEA080028D001F04DFC0190E7
:10296000C16D8C6800F022F907460198456301A803
:1029700001F0ACFC226801214046904706462268DF
:102980000321404690470546226800214046904773
:102990000446404600F0EFF92B46324639464046A1
:1029A000009400F078F9404613F026FB04F0D2F9C9
:1029B000BDE8FC817CB50D4604001DD002F056FE3A
:1029C000204601F019FC0090006F0190684601F06C
:1029D0007DFC294601A805F06DF958B1204601F0AB
:1029E0000BFC009001990167684601F06FFC2046DE
:1029F00013F002FB04F0AEF97CBD38B50C460500BF
:102A000013D002F033FE284601F0F6FB0090B0F937
:102A10005A10A14204D0A0F85A40284613F0ECFA0C
:102A2000684601F053FC04F095F938BD38B50C4602
:102A3000050015D002F01AFE284601F0DDFB002249
:102A4000CDF8000000EB8201521C0C64022AF9D37D
:102A5000684601F03BFC284613F0CEFA04F07AF900
:102A600038BD2DE9FC470D465FEA00094FF0000430
:102A700032D002F0FBFD484601F0BEFB0190B0F9F8
:102A80005440A54223D000F091F8804601980121DE
:102A9000A0F85450C06D856848462A68904707469C
:102AA0002A6803214846904706462A68002148467E
:102AB00090470546484600F05EF933463A4641469F
:102AC0004846009500F0E7F8484613F095FA01A84B
:102AD00001F0FCFB04F03EF92046BDE8FC872DE93F
:102AE000F34F85B000270C46B846059801F084FBEB
:102AF0000090C06D0121856805982A68904782463C
:102B00002A6803210598904704902A6802210598B5
:102B1000904703902A680021059890470646009840
:102B200013F0EEFF8346009813F0F1FF8146009802
:102B300090F83210890601D5B0F9588000F036F8C7
:102B400005460098C06E10B112F09EFF0746258022
:102B50006780A4F804A0049AABEB020006EB08021D
:102B6000401E2A4420813A44E280039BA9EB0302E1
:102B7000521E6281A4F80CA020827019E681401ECA
:102B80006082684601F0A2FBB4F90C000190B4F930
:102B90001000029002AA01A9059800F039F80198E6
:102BA000A0810298208207B0BDE8F08F10B50146E1
:102BB000002091F83220920607D5B1F95400002880
:102BC00003D1486B02F0DBFC801C10BD70B58AB0ED
:102BD0000C46054601F010FB0990C06D866809A8F7
:102BE00001F074FB009534B1012C06D0022C0BD0FF
:102BF000032C04D10AE0182000E01620019071682F
:102C0000684688470AB070BD1520F7E71720F5E73A
:102C10002DE9FC4117468846044601F0EDFA009084
:102C2000C16D056868468E6801F050FB326800216E
:102C3000204690470646204612F0E7FD27E000BFF9
:102C400001F0DAFA0190B0F900102AB2B0F90430BC
:102C5000891A9A1AB0F90230A3EB2543B34210D176
:102C600090F82800000605D53868884209DB491E1F
:102C7000396006E0D8F80000904202DC521CC8F827
:102C8000002001A801F022FB204612F06BFE040098
:102C9000D6D1BDE8FC812DE9FF4F83B00E46074633
:102CA000DDF8409001F0A8FA0190C16D8D68FFF742
:102CB0007DFF044601A801F009FB2A68012138467E
:102CC000904783462A6803213846904782462A68FF
:102CD0000021384690470546B44207D105998B45F7
:102CE00004D106998A4501D14D4541D0A41B002647
:102CF000B046384612F089FD38E001F07DFA0090C8
:102D0000806A010601D5800502E0810528D500060C
:102D1000002825DB24B122461146384613F079FA03
:102D2000009890F8280000060AD50698A5EB09023D
:102D3000A0EB0A0004FB16013846761C13F01CFABF
:102D40000098008D80050BD50599A5EB0902ABEB2A
:102D5000010004FB080108F10108384613F00CFAE1
:102D6000684601F0B3FA384612F0FCFD0700C4D102
:102D700007B0BDE8F08F70B586B0064601F03CFAAA
:102D80000590D0E91A4505A801F0A0FA54EA05001B
:102D900026D069463046FFF7A2FEACB1BDF9062049
:102DA000BDF90410204613F0ABF9BDF90A00BDF9D6
:102DB0000610421ABDF90800BDF90410521C411A50
:102DC0002046491C13F099FC002D09D0BDF90600DE
:102DD000BDF90210421ABDF90410284613F090F90B
:102DE00006B070BD2DE9F0430446406889B0054641
:102DF00012F0C5FD814601F0FFF90290D0F848803D
:102E0000D0F88070466E02A801F060FA206817289A
:102E100053D008DC0E283AD00F2811D014284CD0FB
:102E200015283DD149E01E281ED01F282AD022286F
:102E300040D0312834D10020E06009B0BDE8F083F3
:102E40006FF070414046884503D007F08BFE01F0DB
:102E500023FD002EF1D0D4E902122068CDE904054B
:102E6000CDE9061204A81FE0E0680028E5D02FB1E4
:102E7000AF4203D0384613F065FBDEE7284613F077
:102E8000B5FBDAE72146484611F0BAFFD5E7E0681E
:102E90004168002904DD00680928EFD00A2805D020
:102EA0005EB12046C4F80490B047C6E7284613F048
:102EB000ACFBC2E7C4F80C80BFE7204612F022FB4F
:102EC000BBE7000070B5364888B00024016841F0C7
:102ED00080010160016801F080010691016841F400
:102EE00080710160006801A900F480700690802064
:102EF000012581E83100032004902A4804F0FAFFFC
:102F00002802CDE9010501A9274804F0F3FFFEF7E7
:102F1000BBFB264EC6F8A042142006F528761EF00C
:102F200003F9356032201EF0FFF88DF800400122D1
:102F30006946002000F00AF901226946A42000F049
:102F400005F916208DF8000001226946802000F066
:102F5000FDF80C208DF8000001226946882000F061
:102F6000F5F802226946A12000F028F89DF800003B
:102F7000302803D19DF80110032908D09DF80110D5
:102F8000012904D0022902D0012008B070BDC9B2C5
:102F900001EB002106A0FDF7D7F90020F5E70000BE
:102FA00030380240001C0240002002400000444231
:102FB0004354502049443A25780D0A002DE9F04148
:102FC00015460F460446FEF72BFC7020FEF7F2FB79
:102FD000FEF772FCE0B2FEF7EDFBFEF76DFCFEF7CC
:102FE0001FFC7120FEF7E6FBFEF766FC00246E1E58
:102FF00009E0B44201D0012000E00020FEF79EFB72
:103000003855641CE4B2AC42F3D3BDE8F041FEF79E
:103010002DBC00002DE9F143484F00244FF00A0970
:10302000387882B0401CC0B2B0FBF9F209FB120143
:10303000434DA046387009B10A2864D2012202A982
:103040000220FFF7BBFF9DF8080001075BD000F0EE
:103050000F00062857D2FF218140C84340F0C0002E
:1030600085F820004FF00108002695F8201008FA96
:1030700004F001423AD033480422694630F8140083
:10308000FFF79CFF95F830009DF80010C0079DF8F1
:10309000010001F00F010ED000EB012105EB44000F
:1030A000C1829DF802209DF8031002F00F0201EB8F
:1030B0000221818110E000EB012023490988091ACF
:1030C00005EB440081819DF802209DF8031002F079
:1030D0000F0201EB0221C1829DF800000821B1EB33
:1030E000101F03D005EB4400C6828681641CE4B245
:1030F000052CBAD3A9894FF0010819B9E88A08B993
:103100008DF808603E709DF80800C0060ED195F855
:103110002000010602D520F0800005E04FF6FF7187
:10312000A981E98200F0E00085F820003878F028D5
:1031300001D987F800904046BDE8FE8338000020A2
:103140004000002044660208B41B00202DE9F04135
:1031500015460E4604460027FEF762FB7020FEF778
:1031600029FBFEF7A9FBE0B2FEF724FBFEF7A4FB68
:10317000002408E0305DFEF71DFBFEF79DFB070015
:1031800003D1641CE4B2AC42F4D3FEF76FFB3846C3
:10319000BDE8F0811CB512F011FB03460020009041
:1031A0000190034A0B21034801F0C2FB1CBD000043
:1031B0007D0E0208E86702082DE9F0430446C56861
:1031C00087B090468946002003F0FCF8064625B1FA
:1031D000287910B146F0020001E026F0020003F069
:1031E000F1F82069012558B1D4E902128DE82600D2
:1031F000039563882288046841464846A0471EE03C
:10320000124F134B214638681B68427CE068984790
:1032100030B9E088012801D0002001E03868806BD7
:10322000A288E388A1680095CDE90410CDE90232B7
:103230000195638822884146484606F0BFFD07B0E5
:103240003046BDE8F04303F0BDB80000BC010020EB
:10325000B40100201CB50024019401AC009400F0DE
:10326000E7F81CBD2DE9FF4F83B0814606988A46DA
:10327000A0EB0A08109E00200090A2EB090435681C
:10328000934654EA080018D02046FDF701FD074692
:103290004046FDF7FDFC87420BDA20464446804657
:1032A0004846D14682465846DDF818B006900120BF
:1032B0000090002C07DD204606E007B04846BDE838
:1032C000F04F00F03BB96042A0420AD04846D946D0
:1032D0006442C8F1000883464FF0FF37DDF818A0BC
:1032E00000E001275148B8F1000F11D004EBD47170
:1032F0004FEA610B01DACBF1000B4C480068807E8D
:1033000088B3002F02DA30682044306000257BE06B
:1033100000990029016821D0897E11B100278046DB
:1033200015E007B05A4649465046BDE8F04F06F052
:103330000BBF28466D1C1CF03DF838B9D8F80000CA
:1033400009EB0701406E4268504690477F1CA74238
:10335000EFDD6D1E356007B0BDE8F08F8A7E1AB1D3
:103360000027804617E019E0486E5A465146036828
:1033700007B04846BDE8F04F184728466D1C1CF0C2
:1033800019F838B9D8F8001009EB0700496E4A68F7
:10339000514690477F1CA742EFDDDAE700250FE09A
:1033A00008FB05B090FBF4F101EB0A00009951B164
:1033B0001E4A09EB05011268526E526890476D1C57
:1033C000A542EDDDC7E7194909EB05030968496E18
:1033D0004A6801461846F1E708FB05B090FBF4F196
:1033E00001EB0A0001903068384430601BF0E2FFC6
:1033F00048B9009890B10D4809EB05010068406E8E
:103400004268019890476D1CA542E5DD3068002FA9
:1034100001DA20443060C01B30609CE7034909EBAF
:1034200005000968496E4A680199EBE7BC01002074
:103430002DE9FF470F4640491646804609680C981B
:103440001D460A7E012A1CD0A8EB0600791B50EA13
:1034500001031CD0A2F101091DF0A6FC00F580605B
:10346000824604F016FD00FB09F4504604F016FDF8
:1034700000FB09F1002C0CDAC4F500708012404208
:103480000AE00090324639464046FFF7EBFEBDE8C1
:10349000FF8704F50074A012002904DAC1F5007159
:1034A00089124C4202E001F500718C12002804DD03
:1034B000411C01EBD171491003E000EBD0714910C0
:1034C000401E00EBD0704210002C04DD601C00EBAD
:1034D000D070401003E004EBD4704010641E04EB85
:1034E000D47308EB0104ADF800403C18ADF802407D
:1034F000A8EB02045B10B21AADF80440ADF8082046
:103500003144FC1AEA1AADF80C102844ADF80A2030
:10351000ADF80E000023ADF806401A4604216846B7
:1035200000F07AF83946404617F074F829463046DC
:1035300017F070F8ABE70000BC010020064A1368E2
:103540001A7E012A05D0521E02EBD272521000F0F0
:1035500005B85A6E52681047BC0100202DE9F05F93
:103560000646884640F2C32002FB00F14FF47A7011
:1035700091FBF0F702FB02F102EBD27001EB600B62
:103580001446B118234A301B7F1C1268526E136810
:103590000A4641469847012538E000BF05FB05F083
:1035A00004FB040159451CDDBC4219DD194B06EB37
:1035B000050AA6EB05091B68AAF1010208EB040144
:1035C0005B6E09F101001B689847124BAAF10102DA
:1035D000A8EB04011B6809F101005B6E1B689847AA
:1035E000641E0C4B3219301B1B68924608EB050118
:1035F0005B6E81461B689847064B5246A8EB050157
:103600001B6848465B6E1B6898476D1CBD42C5DD54
:10361000BDE8F09FBC0100202DE9FF4F43F6FF7489
:103620000F46664283B09B46814600210BE000BFF7
:1036300009EB8100B0F90200A04200DA0446B04272
:1036400000DD0646491CB942F2DB67480068406964
:1036500000280DD0B0F906101A46A1EB0B01B142BB
:1036600000DA0E46B0F90200801AA04200DD0446DE
:10367000B4E0DFF878A100200546CAF8000088E031
:10368000781E854201DA6B1C00E0002309EB850CF3
:1036900009EB8302BCF90200B2F90210A04244D146
:1036A000A14215D139F92330059A39F9251003EBD8
:1036B000020C4D4A05981268084404EB0B01526E47
:1036C0006045136801DA62462AE00246604627E058
:1036D0002846A4464FF000087A1E0BE008B1401EB1
:1036E00000E0781E09EB8003B3F90230634504D192
:1036F00008F101089045F1DB2346A34248D01A1B8C
:1037000039F92500A1EB040C059B92EA0C0F09D4B2
:10371000354A184404EB0B011268526E13680246D6
:10372000984735E013F074FE32E0A14230D001DB5F
:10373000A04203DDA0422BDBA14229DCE046884207
:103740000ADC0346A04223DC0846A14220DBB8F98C
:1037500000C0B2F9001008E00B46A14218DCA042FC
:1037600016DBB2F900C0B8F90010E21AA1EB0C01A7
:1037700051430029A0EB030202DD01EB620102E0EC
:10378000A1EB6201491CC01A91FBF0F06044C9E74B
:103790006D1CBD42FFF674AF0598009004EB0B0062
:1037A000019000208046054613E01149B8F1000F52
:1037B00031F915A009D0009901EB0A0208440A4921
:1037C0000968496E0B680199984788F001085046CE
:1037D0006D1C064909688D42E7DB641CB4427FF723
:1037E00048AF07B0BDE8F08FBC01002024090020DD
:1037F000800D012010B5002002F0C8FD6FF07F4061
:1038000002F0CFFD012002F055FE002002F060FE24
:10381000002002F06DFE002002F0D4FD0448006894
:1038200002F0DCFDBDE81040002002F015BE0000F3
:10383000B80100202DE9F0433F4889B00024016819
:1038400041F080010160016801F080010791016889
:1038500041F4807101600068802600F48070079058
:1038600001AA012503270096DFF8D09082E8B00076
:103870006946484604F03EFB2802CDE9000569464A
:103880002F4804F037FBFDF7FFFEDFF8B880C8F8DB
:10389000A0420A201DF048FCC8F8A0520A201DF0E2
:1038A00043FCCDE90064CDE902476946484604F08F
:1038B00021FB64201DF038FC042205A948F24010C9
:1038C00000F058F88DF8184005A91FA0FCF73CFD42
:1038D00020A105A8FCF784FF18B1012009B0BDE8BC
:1038E000F08302208DF8140048F24005012205A95A
:1038F000284600F083F9012205A9E81D00F03AF8F6
:103900009DF8141060290BD214A0FCF71DFD184877
:103910008088A0F5AA41103902D1012000F048F9B1
:103920000A201DF001FC8DF81440012205A928464B
:1039300000F064F90020D1E730380240001C02405A
:1039400000200240000044424354502049443A259C
:10395000730D0A0039313437000000004465666198
:10396000756C74205665723A25640D0A00000000DB
:10397000B41B00202DE9F04115460F460446FDF723
:103980004FFF2820FDF716FFFDF796FF200AFDF7F1
:1039900011FFFDF791FFE0B2FDF70CFFFDF78CFF83
:1039A000FDF73EFF2920FDF705FFFDF785FF002409
:1039B0006E1E09E0B44201D0012000E00020FDF7B6
:1039C000BDFE3855641CE4B2AC42F3D3BDE8F0410F
:1039D000FDF74CBF2DE9F14F714E00244FF00A0B5B
:1039E000307882B0401CC0B2B0FBFBF20BFB12017E
:1039F0006C4DA146307009B10A287BD248F24E17AF
:103A0000012202A93846FFF7B5FF9DF808004FF0E4
:103A1000000801060AD500F00F00062806D28DF82E
:103A20000480012201A9384600F0E8F89DF808005A
:103A300001075FD000F00F0106295BD2FF2088400C
:103A40008DF80400C04395F820A040F0C00085F830
:103A50002000A889A882E88A534FE8834FF0010923
:103A600095F8201009FA04F0014256D04F4804227C
:103A7000694630F81400FFF77DFFB888A0F5AA4129
:103A8000103904D0A0F5864142391FD045E095F8A1
:103A900030009DF80110C0079DF8000000EB0121E7
:103AA00005EB440009D0C1829DF802109DF8032067
:103AB00001EB0221C1F548712EE081819DF80210D1
:103AC0009DF8032001EB0221C18226E095F8300029
:103AD000C00710D09DF802009DF8031000EB0121F3
:103AE00005EB4400C1829DF800109DF8012001EB18
:103AF000022111E02CE09DF800009DF8011000EB80
:103B0000012105EB4400C1829DF802109DF80320BD
:103B100001EB0221C1F588718181641CE4B2052C9E
:103B20009ED3A9893A884FF001092846914203D8CB
:103B3000C18A7A88914209D99DF8081001F00F01D5
:103B400001290CD9C1898181018BE98286F8008025
:103B50009DF8080000F08F0080280AD018E0818AC4
:103B60008181C18BC18280218DF8081085F820A049
:103B7000EEE795F82000010602D520F0800005E070
:103B80004FF6FF71A981E98200F0E00085F820007E
:103B90003078F02801D986F800B04846BDE8FE8F9D
:103BA0003900002040000020B41B002006670208F6
:103BB00008B500218DF800108DF801000E489DF821
:103BC0000020435C491C1A44C9B28DF80020B82972
:103BD000F5D3D0B2C043401C8DF80000B82206498E
:103BE00048F2470000F00AF80222694648F2FF0056
:103BF00000F004F8002008BD4E6602082DE9F041EF
:103C000015460E4604460027FDF70AFE2820FDF75C
:103C1000D1FDFDF751FE200AFDF7CCFDFDF74CFE6E
:103C2000E0B2FDF7C7FDFDF747FE002408E0305D78
:103C3000FDF7C0FDFDF740FE070003D1641CE4B2B0
:103C4000AC42F4D3FDF712FE3846BDE8F081000027
:103C50002DE9F04FDFF828B191B04FF0FF35DBF8D8
:103C60000030B3F922100691DE69B3F92490F469AB
:103C7000A189814206D8E289824203D3471AD4F847
:103C8000008012E0D4E9018100296FD00A888242C5
:103C90006CD84D88854269D3801A82B2486800EB9F
:103CA0008200B0F90070B0F90250781C5ED0307E0E
:103CB000A17C10FB01FA217CCDE90701B3F92A6050
:103CC000304607F01BF8C0B20E90DBF8000007FB8F
:103CD0000A81A37C826B0127CDE90412CDE902732E
:103CE000C069089AC17E807ECDE90001DDE9060346
:103CF000494606F063F8681C18D046F0020006F04A
:103D0000FDFFDBF80000A37C05FB0A81826BCDE997
:103D10000273CDE90412C069089AC17E807ECDE9A4
:103D20000001DDE90603494606F048F8DBF800002B
:103D30005D46C069417E007E814214D9022E12D0B8
:103D400086F0040006F0DAFF2868C069027EC37EB0
:103D500012FB0391437E857E089A06984B4412FB22
:103D6000050206F021FB0E9806F0C8FFDBF8000004
:103D7000627C418C1144418411B0BDE8F08F000099
:103D8000BC01002004480068C069C06909B1027C18
:103D90000A60407C70470000BC01002002200880BF
:103DA0007047C06982898A4202D8C2898A4210D289
:103DB000806880B102888A420DD843888B420AD33A
:103DC000406800EB8100A0EB8200B0F90000002801
:103DD00001DB012070470020704700002DE9F0430F
:103DE000304C034687B020681946B0F92A60C06994
:103DF000C06900F086F8002850D041680088181A81
:103E000001EBC0053046AF7806F078FF81462068A8
:103E10006A680123816BCDE90237CDE90421C169CC
:103E2000CB7E8A7ECDE900230B7EB0F924102A7860
:103E3000B0F9220005F0C2FF2068C069417E027E11
:103E400091421FD9C07E11FB00F812FB00F7022E31
:103E500018D001F004FB064601F0CAFA02F0A1FAFC
:103E600021682A78CB69B1F92200DB7E12FB0302BC
:103E7000B1F9241001EB0803394406F095FA3046F5
:103E800002F08FFA484606F039FF20686A78C36965
:103E9000B0F922109B7E12FB0311418407B0BDE8EC
:103EA000F0830000BC01002030B50F4C05460B46E6
:103EB00020682946C069C06900F023F8002812D0A4
:103EC0004168008824682A1A0120E46900EBC200D6
:103ED000085CA47E10FB04F0002B04D011F8321013
:103EE00011FB04F1196030BDBC01002001200880E5
:103EF000704700B5C06900F004F8002800D0012028
:103F000000BD06E002888A4202D842888A4202D274
:103F100080680028F6D1704770B50025124C19E072
:103F200020691249C5EB051600EBC600702209682E
:103F3000001DFCF7D1FB2069002140F8361000EB92
:103F4000C60000F10C018161011D0A1DC0E90F12BC
:103F50006D1C4164A0688542E2DB01F087FBBDE88F
:103F6000704002F0F7BE000068040020BC01002091
:103F700070B50F490D480860084603F093FE0C4CDD
:103F8000143CA068C0EB0010C500284600F0A6F85D
:103F90002A460021206103F0FEFE4FF0FF30206032
:103FA00002F03EFFBDE8704018F044BDB9D70108EB
:103FB0007C040020F8B50C0005460FD001F056FB3C
:103FC000204600F017F8060010D000F015F9224640
:103FD00000902DB12946FCF7F8FA04E00020F8BD66
:103FE000002103F0D8FE684600F070F902F0B2FE3E
:103FF0003046F8BD10B5040009D001F037FB20466B
:1040000013F012FC044602F0A5FE204610BD00206D
:1040100010BD38B5054601F029FB2846FFF7EAFF39
:10402000040009D000F0E8F82A460021009003F0CF
:10403000B2FE684600F04AF902F08CFE204638BD18
:10404000024A106021F00300506070479C0B012071
:1040500010B5040016D001F009FB0B48406B10F8B6
:10406000341059B1022909D2042101EBC40141588D
:10407000486813F0E9F920461AF07EFFBDE81040C9
:1040800002F068BE10BD0000DC0A0120002805D047
:10409000034AD16B016001B14860D06370470000F2
:1040A000DC0A012010B5044601F0E0FA2068FFF7B1
:1040B000CFFF00202060BDE8104002F04BBE0000A2
:1040C00070B50D460646002405E000BF06EB8400EF
:1040D000FFF7E8FF641CAC42F8DB70BD2DE9F0414E
:1040E000044618F0F1FE2848E41C24F00305016C96
:1040F0002D1DA94200D90D46C46B13E054F8042CC1
:10410000AA420ED184B1216809B162684A6061682F
:1041100009B122680A60C26BA24231D12168C16331
:104120002EE02468002CE9D18046816BC0680F180E
:1041300057F8040C3E1A306838B100201AF086FF98
:1041400057F8040C3E1A3068D0B97068A84217DBE3
:104150003044441B3046241D1AF030FFD8F80C10B0
:10416000491BC8F80C10D8F814102944C8F81410CA
:104170007068401B02D0314613F066F944F8045CC5
:104180002046BDE8F0810000DC0A012010B50024C3
:1041900018F09AFE0C490F2001EBC002526C1AB1C4
:1041A00001EBC000406C08E0401EF5D508E0416816
:1041B000A14200D90C46806810B180680028F6D171
:1041C000A4F10C0010BD0000DC0A0120002138B170
:1041D0000449042202EBC000496B085841680C39BD
:1041E00008467047DC0A012002488169491C816148
:1041F00070470000DC0A01200549CA69521CCA61E7
:10420000496B01EBC0010A78521C0A7000F076B8C5
:10421000DC0A01207CB506460C460846FFF7EAFE9C
:10422000050020D0FEB13046FFF7D0FFA04200DAF3
:10423000044601F01BFA2846FFF7DEFF00903046E7
:10424000FFF7DAFF0146019022460098FCF7BDF91E
:10425000684600F03BF801A800F038F83046FFF758
:10426000F7FE02F077FD28467CBD000010B501F096
:10427000FDF9FFF78BFF64220849B0F5800F04D9E0
:1042800090FBF2F4086A444303E0096A4143B1FB3E
:10429000F2F402F05FFD204610BD0000DC0A0120B0
:1042A0000549102805D94A68B0EB520F02D35008CF
:1042B00000E01020886070479C0B01200248816953
:1042C000491E816170470000DC0A01200A4902682A
:1042D0004B6B52F8082C03EBC2021378022B03D36A
:1042E000CB690BB15B1ECB611178491E11700021A7
:1042F0000160084670470000DC0A0120002806D053
:104300000349042202EBC000496B0858083070478B
:10431000DC0A01202DE9FC414FF000060B465FEA64
:10432000000834462BD032B111461846FFF742FE42
:10433000060000D101244046FFF75EFF0090078889
:1043400045686846FFF7C2FFCCB9B9002846091D89
:10435000FFF760FF050015D0FFF74EFF019040F812
:10436000276001A8FFF7B2FF4046FFF745FF009026
:1043700045600188491C01806846FFF7A7FF204679
:10438000BDE8FC813046FFF763FE0124F7E7082013
:10439000FFF73FBE7CB5050023D0FFF72DFF00904F
:1043A0004068C0B1FFF728FF0024019005E00198A4
:1043B00000EB8400FFF776FE641C00980088A042A2
:1043C000F5DC01A8FFF782FF0098001DFFF76AFEE9
:1043D0000099002008806846FFF778FF2846FFF71D
:1043E00037FE7CBD7CB50C46FFF706FF00900188C8
:1043F000A14220D94568F5B101F038F92846FFF708
:10440000FBFE019000EB8400FFF74CFE009908884A
:10441000401E80B20880401E019905E001EB840235
:10442000526841F82420641C8442F7DD01A8FFF79C
:104430004DFF02F08FFC6846FFF748FF7CBD38B5A2
:10444000002430B1FFF7D8FE009004886846FFF7DB
:104450003DFF204638BD38B50D46002448B1FFF772
:10446000CBFE2946009000F091F804466846FFF71D
:104470002DFF204638BD38B50D46002448B1FFF762
:10448000BBFE2946009000F093F804466846FFF70B
:104490001DFF204638BD2DE9FF4107460E46154653
:1044A00000241046FFF7B5FD009030B33846FFF703
:1044B000A3FE3146019000F07BF802900098FFF7D0
:1044C0009BFE2A4603900299FCF77FF802A8FFF7AB
:1044D000FDFE03A8FFF7FAFEDDE90020314600F0FB
:1044E00071F818B16846FFF7DDFD03E00098FFF7AB
:1044F00083FE044601A8FFF7E9FE04B02046BDE8AC
:10450000F0812DE9FE43984691460D460024D0B334
:10451000FFF772FE01900788466801A8FFF7D6FEF4
:10452000BD4230D27EB33046FFF766FE009050F8B1
:1045300025406846FFF7CAFE24B12046FFF746FE35
:10454000404511D04046FFF764FD04000CD03046D2
:10455000FFF752FE00EB850500902846FFF7A2FD0D
:1045600068462C60FFF7B2FEB9F1000F0BD054B1D2
:104570002046FFF741FE424649460290FCF725F8E7
:1045800002A8FFF7A3FE2046BDE8FE8338B50D461E
:1045900001880024A94209D9406838B1FFF72CFEF0
:1045A000009050F825406846FFF790FE204638BD41
:1045B00010B50024FFF7EAFF10B1FFF71DFE044617
:1045C000204610BD38B50C46014615460A88012024
:1045D000A24210D9496800290DD00846FFF70CFE09
:1045E00000EB840400902046FFF75CFD68462560E0
:1045F000FFF76CFE002038BDF0B52D271C68B0F128
:10460000004F08D0002600280DDA651C1D602770B9
:104610004042012408E0651C01261D606FF0004047
:104620002770491E01E00024091BC9B22AB3491EA4
:10463000C9B222E00C46491EC9B2944205D1124CBF
:1046400027781C68651C1D602770104C54F8215099
:1046500090FBF5F4E4B20A2C11D804FB150011B953
:104660000EB1641CE4B20A2C02D10124491CC9B267
:104670001D686F1C30341F602C700029DAD1196856
:1046800000200870F0BD0000B0010020109002086A
:1046900010B5002807DD0A682B24531C0B6014702A
:1046A000096800220A7010BD10B5044600F0DEFF54
:1046B000044904EB840001EB8000447902F04AFBDA
:1046C000204610BD180C01202DE9FC5F89460446E8
:1046D00000F0CCFF484600F0CFFE2C4E09EB8907D6
:1046E000824656F82700019029484FF001080168DA
:1046F00041B92749C0F80080091D264808600846CE
:1047000003F0D0FA214A09EB89015FEA0A0002EBC3
:1047100081051BD001F01EFE83464FF07F4001F063
:1047200035FE00F0B9F800221146206800F0D6FBF3
:10473000206842880188504601F070FE46F8274004
:1047400085F80580584601F005FE17E046F8274039
:1047500085F805802869464618B101F02BFD002038
:10476000286174B10096E868A1684B46421AA868AF
:104770006168411A206801F077FD286148461BF006
:1047800093FA02F0E7FA0198BDE8FC9F180C0120AB
:10479000000200206DD7010870B514460D4606468C
:1047A00000F064FF204600F067FE0300174804EBAA
:1047B000840109D050F8210041688068711A2A1AD2
:1047C000184601F01BFE1CE000EB8104A268B24217
:1047D00001D0012200E00022E368AB4201D00123B6
:1047E00000E000231A430CD0236943B150F82100A4
:1047F000816840686A1A311A184601F000FDC4E960
:104800000265BDE8704002F0A5BA0000180C012056
:1048100002480068407C00F003B80000BC010020A2
:1048200010B5044600F022FF0A4804EB840100EBB7
:10483000810301225A7150F8210030B120461BF04B
:1048400033FABDE8104002F085BA21460248FFF76E
:104850003BFFF6E7180C0120FC85020810B5C2B238
:10486000CBB2D21A00D5524293B25B43C0F30722B7
:10487000C1F30724121B00D55242000C92B2A0EBE8
:10488000114002FB023200B2002801DA404200B2BD
:1048900080B200FB002010BD10B50021084600F0DA
:1048A00083FE43F6FF725042BDE8104013460146B6
:1048B000AFF300802DE9FC411C4615460E46074625
:1048C00000F0D4FE042006F019FA80461248C068B1
:1048D000C16C006D0F4406440D440444ADF80070F3
:1048E000ADF80450ADF80260ADF80640684612F02D
:1048F00015F907E023462A463146384605F054FDAF
:1049000012F0C0F80028F5D1404606F0F7F902F0A1
:1049100021FABDE8FC810000B0010020B0F90630AA
:10492000B0F90420B0F90210B0F90000FFF7C2BFDF
:104930002DE9F8431C00DDE9089816460F460546A8
:1049400002D110F03BFF044600962E6843464A46CB
:1049500021462846B047060039D010F024FF814692
:10496000698A304610F0E0FA304611F054FF4846AC
:1049700011F051FF4FF000080CE000BFCDF80080AF
:1049800055F81CCF00231A4649462846E04700B395
:1049900011F041FF7F1E002FF0DC1D21484611F071
:1049A0000CFD601C12D000F061FE10F04BFF30B126
:1049B000FFF7A4FC8469B44201D02000F8D1B442CE
:1049C00002D0304611F012FE02F0C4F93046BDE8C4
:1049D000F883304610F0CEFD0020F8E72DE9F041D5
:1049E0001C4616460D460746022B02DB0020BDE89A
:1049F000F0811C20FFF772FB0028F8D00DB1056193
:104A00000AE0094A52F8241009B905E011460A687B
:104A1000002AFBD10969016184618682002101605D
:104A20004160C0E90217E2E7D401002070B51D46DD
:104A3000FFF7D4FF040009D000F00EF8E06800682A
:104A400020B90348006800EB85008465204670BDEE
:104A5000BC010020FFF71ABB70B590B38269022A2F
:104A600030DA1E4C54F8221019B944F8220032E012
:104A700019464B68002BFBD106E0CB68C5681B6864
:104A80002D68AB4203DD09680029F6D11AE0C1B1F7
:104A9000CB68C6681B683668B3420CD1838A012B89
:104AA00005D008E01946DB681B68AB4203DB0B68E6
:104AB000002BF7D129B14B6833B118604A684260C6
:104AC00004E0FFE7012070BD44F8220048608842FE
:104AD00000D100210160002070BD0000D401002041
:104AE00010B503E00468FFF7B7FF20460028F9D1AE
:104AF00010BD1BF093BB00002DE9F0410026DFF84C
:104B000034800D4F354600BF58F8254009E0E06875
:104B10000068385C20B120461BF080FB26602646EA
:104B20002468002CF3D16D1C022DEDDB3046BDE86E
:104B3000F0810000D401002024690208022801DB72
:104B400000207047054951F8200004E0C168096859
:104B50000029F6D000680028F8D17047D401002061
:104B60002DE9F8431D461646884604000CD0FFF791
:104B700043FB0090006807686846FFF7A7FB2B46D9
:104B8000324641462046B847BDE8F88338B50400B0
:104B90004FF000000AD02046FFF72EFB009000687F
:104BA00045686846FFF792FB2046A84738BD38B5F0
:104BB00004004FF000000AD02046FFF71DFB0090D4
:104BC000006885686846FFF781FB2046A84738BD26
:104BD0002DE9F041044602F00DF906191EE000BF70
:104BE00000F054FB052F00DD052700F03FFD1148C4
:104BF0000568FFF7F9FA2C0017D000BF02F0AAF8F9
:104C0000641EFBD1384602F0D9F81DB100F02EFD2C
:104C10006D1EFBD1FFF752FB02F09CF802F0EAF8A0
:104C2000371A002FDCDCBDE8F081384602F0C6F808
:104C3000F0E70000740400202DE9FC4706005FD077
:104C400000F014FD00F022FC3C4C81462068B0F9D5
:104C5000228000F071FC216807468A8CD01B888472
:104C600041E000BF47F6FF71304602F0B1FE8246D8
:104C70000146304602F082FE2168054691F82C007C
:104C800000F00300012841D002283BD000204A8CCC
:104C9000101A4884ADF800006A1E1044ADF80400F4
:104CA000888CADF80200A9F101010844ADF80600B6
:104CB0006A465146304602F0BFFA2168BDF802004C
:104CC00088845146304601F033FF064430780A2884
:104CD0001ED00D281CD0BDF800002168284448844F
:104CE000307818B1761C30780028BBD12068818CD0
:104CF00039448184818D21F00301818502F02AF8F5
:104D0000BDE8FC8705EBD5704010C0E72846BEE73C
:104D1000206890F82C1001F0030101290BD0022922
:104D200009D0018C418431780A29D9D1828C02EBD7
:104D300009018184D4E7A0F82280F4E7BC010020B7
:104D400070B514460D46064600F090FC0548006814
:104D5000458484843046FFF76FFFBDE8704001F062
:104D6000F9BF0000BC01002047F6FF73AFF30080DD
:104D70002DE9FC411F4690460D4606004FF0000409
:104D80001AD000F073FC65B1284611F0DBFC04007A
:104D900007D002462946684602F087FE684611F0B1
:104DA000D1FC3B4642462946304602F09DFA204659
:104DB00011F0C8FC01F0CEFFBDE8FC812DE9FF4FEA
:104DC00087B09046894607007DD000F04FFCD9F8A7
:104DD0000040D9F8045021B228B2401A401C029079
:104DE00000F054FB064618F00C0F1ED038460A9A05
:104DF000029901F0B9FF08F00C01042904D0082938
:104E000002D00C2911D104E0291400FB1610401C1B
:104E100009E02114C1EB254200FB1620401C00EBE9
:104E2000D07001EB600060F31F44484611F08AFC2B
:104E30005FEA000B09D00246494604A8CDE90445C3
:104E400002F033FE04A811F07DFCA6F1010A3846F9
:104E50000A9A029902F06EFF03900AEB244060F375
:104E60001F45CDE900453846039902F087FD18F04B
:104E700003010ED001292CD002290ED1B9F904204A
:104E8000B9F90010521A101A00EBD07001EB600053
:104E900001E0B9F80000ADF800006A463846039911
:104EA00002F0CAF938460A9A029902F039FF07441B
:104EB00006EB244060F31F4438780028C7D15846D9
:104EC00011F040FC00E001E001F044FF0BB0BDE850
:104ED000F08FB9F80410081A401CDCE77CB51446C2
:104EE0000D46064600F0C2FB11480068C16C006D1B
:104EF0000D4404443188681E0844ADF80400ADF840
:104F000000507188601E0844ADF80600ADF80240FC
:104F1000684611F003FE06E0224629463046FEF7B9
:104F20004BF911F0AFFD0028F6D101F013FF7CBD65
:104F3000BC0100201CB50A460146684602F0A4FEEA
:104F400000F094FB2548BDF80010006830F84C2FA5
:104F50001144ADF80010BDF8021082881144ADF87C
:104F60000210BDF8041002881144ADF80410BDF819
:104F7000061080880844ADF80600684611F0CEFDA2
:104F800027E000BFBDF900400BE000BFBDF90210F3
:104F9000204605F08DF8BDF90610204605F088F88A
:104FA000A41CBDF90400A042F0DABDF902400AE0F9
:104FB000BDF90000214605F07BF8BDF9040021464B
:104FC00005F076F8A41CBDF90600A042F0DA11F055
:104FD00059FD0028D6D101F0BDFE1CBDBC0100204A
:104FE0002DE9F04F87B09B46DDE9109892460C46BC
:104FF000054600F03BFB16480168C86C096D47196F
:105000000E1900EB0A0501EB0B04ADF81070ADF8BA
:105010001450ADF81260ADF8164004A811F07EFDF2
:1050200088B1DFF830B04FF0000ACDE90098CDE943
:1050300002BA2B4622463946304615F0DDF811F00B
:1050400021FD0028F1D101F085FE07B0BDE8F08F09
:10505000BC01002049A100082DE9F04F87B09B4614
:10506000DDE9109892460C46054600F0FFFA164816
:105070000168C86C096D47190E1900EB0A0501EBB0
:105080000B04ADF81070ADF81450ADF81260ADF827
:10509000164004A811F042FD88B1DFF830B04FF09F
:1050A000010ACDE90098CDE902BA23462A463146E5
:1050B000384615F0A1F811F0E5FC0028F1D101F017
:1050C00049FE07B0BDE8F08FBC010020C19F000879
:1050D0002DE9FC4114460D46064600F0C7FA114F73
:1050E0003968C86C096D054404440E44ADF800509D
:1050F000ADF80440ADF80260ADF80660684611F006
:105100000DFD08E0386822463146406E03682846A7
:10511000984711F0B7FC0028F4D101F01BFEBDE860
:10512000FC810000BC0100202DE9F0411C46154621
:105130000E46074600F09AFA0C480168C86C096DE3
:10514000074405440E440C44002011F0E7FC07E03E
:1051500023462A4631463846FEF77CF811F092FC89
:105160000028F5D1BDE8F04101F0F4BDBC010020FC
:105170007CB50C46064600F079FA0F4D2868C16CE4
:10518000006D0E440444ADF80460ADF80060ADF865
:105190000640ADF80240684611F0C0FC07E0286800
:1051A0002146406E42683046904711F06BFC002863
:1051B000F5D101F0CFFD7CBDBC0100202DE9FC4103
:1051C0001C4616460D46074600F050FA1A4801687C
:1051D000087ECA6C096D17440D440C44401E391AF0
:1051E0001644ADF800103118ADF80410291A204407
:1051F000ADF80600ADF80210684611F08FFC15E01E
:1052000032462946384604F0DBFE3246214638460F
:1052100004F0D6FE621E691C384604F095FF621E3B
:10522000691C304604F090FF11F02CFC0028E7D1F7
:1052300001F090FDBDE8FC81BC0100207CB5144666
:105240000D46064600F012FA0F480068C16C006D6A
:105250000E4405440444ADF80060ADF80460ADF8B8
:105260000250ADF80640684611F058FC06E02246B0
:105270002946304604F068FF11F004FC0028F6D1FE
:1052800001F068FD7CBD0000BC01002010B50024C9
:1052900000E0012400F004F80028FAD1204610BDF7
:1052A000094810B50068002410B1804700B10124FE
:1052B00010F0EAF900B101240448006810B18047F9
:1052C00000B10124204610BDE0010020DC010020D7
:1052D0002DE9FC411C4615460E46074600F0C6F96E
:1052E00010480068C16C006D0F4406440D4404442E
:1052F000ADF80070ADF80450ADF80260ADF80640AE
:10530000684611F00BFC07E023462A463146384632
:1053100005F04AF811F0B6FB0028F5D101F01AFDAE
:10532000BDE8FC81BC010020B0F90630B0F90420D2
:10533000B0F90210B0F90000FFF7CABF08B50B467C
:10534000002805D0009281888268C08800F001F8AA
:1053500008BD10B50828029C30D008DC04FB01F41D
:1053600001280AD0022813D0042804D11CE01028F8
:1053700028D020282CD0002010BD04EBD30003F04F
:105380000701105CC1F10701C84000F0010010BD29
:1053900004EB93000621105C01EA4301C1F1060110
:1053A000C84000F0030010BD04EB5300D907105CA7
:1053B00002D000F00F0010BD000910BD04FB013049
:1053C000105C10BD481004FB003032F8100010BD16
:1053D000881004FB003052F8200010BD034951F83A
:1053E0002000C1688A6A082110470000D40100200B
:1053F00010B500F03BF905F007F805F09FF80446FA
:1054000001F0A8FC204610BD10B5044600F02EF9AE
:10541000054800210068C06942682046904704465C
:1054200001F098FC204610BDBC01002070B50C4670
:10543000054600F01BF9064821460068C06942682D
:1054400028469047044601F085FC204670BD0000C8
:10545000BC010020002801D010F082B9704710B5BF
:1054600000F004F904F0D8FF05F068F8044601F0F4
:1054700071FC204610BD00000021022802D2024922
:1054800051F82010084670476004002010B500F065
:10549000EDF804480068C069447E01F05BFC2046DA
:1054A00010BD0000BC01002070B50D46044600F0A0
:1054B000DDF814B909480068C469294694F8200049
:1054C000A87094F82200287194F82100E870A2686E
:1054D00020469047BDE8704001F03CBCBC01002074
:1054E00070B514460D46064600F0C0F8224629461F
:1054F000304604F0C5FF10B1002028602060BDE8F0
:10550000704001F027BC70B50C46054600F0AEF8BF
:105510002146284602F086FABDE8704001F01ABC28
:1055200010B5044602F070FA01462046BDE810406E
:1055300002F024BA01F05EBC10B5002400F096F829
:105540000B48006890F82C1001F00C01042904D0DD
:10555000082906D00C2907D103E0C069047E641E27
:1055600002E0C069007E440801F0F4FB204610BD53
:10557000BC010020417EC07E11FB00F07047017E1F
:10558000C07E11FB00F07047024951F8200000690D
:1055900000687047D4010020024951F820000069DA
:1055A00040687047D401002070B50D46044600F0F5
:1055B0005DF8204617F0FEFA0446284617F002FB75
:1055C000044301F0C7FB204670BD000010B501F098
:1055D00063FD0A492E20087001F012FC084817F0FC
:1055E00025FC04F0D1FF04460021084600F042FFEC
:1055F00010F058FCFEF790FC204610BDB0010020D2
:10560000A80B01202DE9FC411C4615460E46074615
:1056100000F02CF8012000F0D5FE8046124800680A
:10562000C16C006D0F4406440D440444ADF8007095
:10563000ADF80450ADF80260ADF80640684611F0D0
:105640006DFA07E023462A463146384604F0ACFEA0
:1056500011F018FA0028F5D1404600F0B3FE01F031
:1056600079FBBDE8FC810000BC01002070B5184C3E
:10567000E06820B101F0B6FB6168884204D001F017
:10568000EDFB01F0AFFB6060E068401CE0600128CA
:105690001CD117F0CFF905462068854216D00028A6
:1056A00013DBFFF729FA01462068C0EB00122069DE
:1056B00000EBC2025167C5EB0511064A00EBC100C1
:1056C000011D1160406FFFF70BFA256070BD0000EF
:1056D00068040020BC0100201CB5040004D10E4861
:1056E0000068046E002C16D0FFF7C0FF2046FEF7BE
:1056F00083FD009044696846FEF7E8FD4CB1204602
:10570000FEF77AFD019081688968884701A8FEF755
:10571000DDFD01F01FFB1CBDBC01002001490A4654
:1057200000F002B801F0FFFF2DE9F04387B0154605
:105730000C465FEA000846D0FFF798FF002000F013
:1057400041FE814621480068066E4046FEF754FD42
:1057500000900068806900F0FDFD074640F6FF708C
:10576000C44204D10098B0F90440B0F90650009842
:10577000611E0289ADF804401144ADF8081041895A
:10578000681E0844ADF80650ADF80A000FF056FD4B
:105790006846FEF79BFD01A811F0C0F906E02A4615
:1057A0002146404600F082FB11F06CF90028F6D14A
:1057B000384600F0CFFD304600F08AF9484600F048
:1057C00001FE01F0C7FA07B0BDE8F083BC0100207C
:1057D0002DE9FE4F984691468A46834600270C9E47
:1057E000FFF744FF184819490068407C51F82040F1
:1057F000E1680968042903D02468002CF8D100E08E
:105800001CB9FFF79BF904001BD0E0680121C26AB4
:1058100020469047050011D02469A0688047401CAD
:1058200002D10B4C46F001060096CDE901544346E7
:105830004A465146584600F0DFF9074601F08AFA19
:105840003846BDE8FE8F0000BC010020D4010020D6
:10585000C490020838B504001CD0FFF707FF0E48BB
:105860000068006EA04201D100F066FD2046FEF700
:10587000C3FC0090406908B101F055FA0098006837
:10588000FFF7E8F86846FEF721FD2046FEF7E0FB4B
:1058900001F060FA38BD0000BC0100202DE9FF4F87
:1058A000DFF83891074683B0D9F800009A468B4656
:1058B000447C4B4800570128204606DD04F008FED2
:1058C0000546204604F010FE05E004F0EFFD054615
:1058D000204604F0F1FD04461FB302A901A8FFF71A
:1058E00012FEB7F90000002800DA0020B7F90260C4
:1058F0008046002E00DA002601984119B7F904000D
:10590000491E17F017FD054602980119B7F9060060
:10591000491E17F00FFDA5EB0802841B521C641CE6
:1059200003E04FF0000846462A46BAF1000F01D1C5
:10593000C4F1000A002A4FDD002C4DDD10980090C4
:10594000534631464046FFF743FF5FEA000A10D056
:1059500000F078F80746A04206D0D9F80000806C25
:1059600010B1322111F08AFC504600F0B1F8002548
:1059700021E0594605988847012007B0BDE8F08F1F
:10598000611BB94202DA504600F086F83DB1721947
:105990004146504600F0C4F85046FFF79DFE594678
:1059A000059888470F48016809B10020884750468C
:1059B000FFF7B4FE3D44A542E2DB5046FFF74AFF45
:1059C000002000F085F8A74206D0D9F80000806CCE
:1059D00010B1332111F052FC0020CEE7BC010020B1
:1059E000F4010020AC04002038B505004FF000049D
:1059F00011D0FFF73BFE2846FEF7FEFB0090006843
:105A000000698068804705F08DFC04466846FEF713
:105A10005DFC01F09FF9204638BD38B504000ED07A
:105A2000FFF724FE2046FEF7E7FB00F11804009084
:105A30006846FEF74BFC01F08DF9204638BD00208A
:105A400038BD000038B504460025FFF70FFE1CB92D
:105A500008480068046E44B12046FEF7CDFB009074
:105A6000B0F90A506846FEF731FC01F073F9284698
:105A700038BD0000BC01002070B505460024284652
:105A800012F054FB641C18B1BDE8704000F07AB805
:105A9000052CF4DB70BD000038B50C46050004D1C0
:105AA0000A480068056E002D0FD0FFF7DFFD28467D
:105AB000FEF7A2FB0090B0F90A10A14200DD44817C
:105AC0006846FEF703FC01F045F938BDBC01002033
:105AD000F8B50546FFF7CAFD104E3068046ECDB12B
