:03000000020200F9
:10020000758160513A9002CB7400E89375A003F5B4
:100210008051B87400E99375A002F58051B874005C
:10022000EA9375A001F58051B87400EB9375A000B6
:10023000F58051B87580000202000FDEFEBFFF4658
:100240007F007EFF78D4C2B5C2B67A08E83392B494
:10025000C2B600D2B600DAF574007A0400000000DD
:10026000A2B713D2B600C2B600DAF513131313F90E
:1002700074007A08A2B713C2B600D2B600DAF5C489
:10028000F8D2B602028722E9540FF9E4FAFBFC7DAA
:1002900010C3E833F8E933F9EC3CD4FCEB3BD4FB76
:1002A000EA3AFADDECEC75F01084F9A8F0EAFCEB20
:1002B00075F01084FBAAF02275300A753101753291
:1002C00014D532FDD531F7D530F1223F065B4F66AC
:0502D0006D7D077F6F4A
:00000001FF
