:020000040800F2
:10000000900700204D02000829100008C30F0008C7
:1000100025100008FD0200080D1300080000000074
:100020000000000000000000000000006710000851
:1000300001030008000000006510000821110008FD
:1000400067020008670200086702000867020008EC
:1000500067020008670200086702000867020008DC
:1000600067020008670200086702000867020008CC
:1000700067020008670200086702000867020008BC
:1000800067020008670200086702000867020008AC
:10009000670200086702000867020008670200089C
:1000A000670200086702000867020008670200088C
:1000B000670200086702000867020008670200087C
:1000C000670200086702000867020008670200086C
:1000D00067020008BD1200086702000867020008F6
:1000E000670200086702000867020008670200084C
:1000F000670200086702000867020008670200083C
:10010000670200086702000867020008670200082B
:10011000670200086702000867020008670200081B
:10012000670200086702000867020008670200080B
:1001300067020008670200086702000867020008FB
:1001400067020008670200086702000867020008EB
:1001500067020008670200086702000867020008DB
:1001600067020008670200086702000867020008CB
:10017000670200086702000867020008000000002C
:1001800067020008670200086702000867020008AB
:10019000670200086702000867020008670200089B
:1001A00067020008670200086702000800F002F812
:1001B00000F03CF80AA090E8000C82448344AAF1C5
:1001C0000107DA4501D100F031F8AFF2090EBAE8C3
:1001D0000F0013F0010F18BFFB1A43F0010318477B
:1001E000C0120000E0120000103A24BF78C878C1A5
:1001F000FAD8520724BF30C830C144BF04680C602D
:10020000704700000023002400250026103A28BF74
:1002100078C1FBD8520728BF30C148BF0B60704778
:100220001FB501F02FF91FBD10B510BD00F033F858
:100230001146FFF7F5FF01F0A7F800F051F803B4FD
:10024000FFF7F2FF03BC01F063F8000009488047A4
:1002500009480047FEE7FEE7FEE7FEE7FEE7FEE7A8
:10026000FEE7FEE7FEE7FEE704480549054A064BC0
:100270007047000029110008AD010008900100201E
:1002800090070020900300209003002070477047E3
:10029000704770477047754600F02CF8AE46050071
:1002A0006946534620F00700854618B020B5FFF791
:1002B000DBFFBDE820404FF000064FF000074FF095
:1002C00000084FF0000B21F00701AC46ACE8C00974
:1002D000ACE8C009ACE8C009ACE8C0098D4670477D
:1002E00010B50446AFF300802046BDE81040FFF78C
:1002F000A6BF0000004870472C01002000BFFEE7A9
:1003000070470000F8B502460B4600250024002087
:100310000021E6E0012606FA01F51E6806EA05045A
:10032000AC4273D15E68022E02D05E68122E13D1E9
:10033000CF0802F1200656F827004E07F70E0F26C9
:10034000BE40B0434F07FF0E1E69BE403043CF088A
:1003500002F1200646F8270010684F000326BE4031
:10036000B0431E7906F003064F00BE4030431060D4
:100370005E68012E08D05E68022E05D05E68112EE0
:1003800002D05E68122E13D190684F000326BE4043
:10039000B0434F00DE68BE40304390605068012695
:1003A0008E40B0431E79C6F300168E403043506035
:1003B000D0684F000326BE40B0434F009E68BE4049
:1003C0003043D0605E6806F08056B6F1805FA8D1F9
:1003D00000BF00260096454E366846F48046434FDF
:1003E0003E603E46366806F48046009600BF00BF79
:1003F0003F4E8F0856F827008E07370F0F26BE4056
:10040000B0433C4EB24202D100262EE068E03A4EA4
:10041000B24201D1012628E0384EB24201D1022673
:1004200023E0374EB24201D103261EE0354EB242E0
:1004300001D1042619E0344EB24201D1052614E060
:10044000324EB24201D106260FE0314EB24201D106
:1004500007260AE02F4EB24201D1082605E02E4EB3
:10046000B24201D1092600E00A268F073F0FBE40A5
:1004700030431F4E8F0846F82700284E3068A043AF
:100480005E6806F48036B6F5803F00D12043234EE7
:100490003060361D3068A0435E6806F40036B6F55D
:1004A000003F00D120431D4E361D3060361D3068A0
:1004B000A0435E6806F48016B6F5801F00D1204385
:1004C000164E08363060361D3068A0435E6806F46C
:1004D0000016B6F5001F00D12043104E0C363060D8
:1004E000491C1029FFF416AFF8BD00004438024043
:1004F00008380140000002400004024000080240A9
:10050000000C02400010024000140240001802409B
:10051000001C02400020024000240240003C014038
:100520000AB1816101E00B048361704701480068F2
:10053000704700002000002002480068401C01496C
:10054000086070472000002010B50D48006840F496
:1005500000700B4908600846006840F4806008603D
:100560000846006840F480700860052000F05CF8E0
:100570000F2000F007F800F017F8002010BD000071
:10058000003C024070B5044600F086F94FF47A71E1
:10059000B0FBF1F5284600F0D7FB00222146501EA3
:1005A00000F003F8002070BD70472DE9F05F804631
:1005B0000D461646002700F039FD074639462A4603
:1005C000334601F00700C0F1070ABAF1040F02D95F
:1005D0004FF0040A01E0C0F1070AD14600F1040A15
:1005E000BAF1070F02D24FF0000A01E0A0F1030AAE
:1005F000D4464FF0010A0AFA09FAAAF1010A0AEAF6
:10060000020A0AFA0CFA4FF0010B0BFA0CFBABF1E1
:10061000010B0BEA030B4AEA0B042146404600F0AB
:100620000DFDBDE8F09F000000BF00F00702064B83
:1006300019684FF6FF031940044B0B4343EA0221AC
:10064000014B196000BF70470CED00E00000FA0597
:1006500038B5002400BF002000902348006840F017
:100660008050214908600846006800F080500090E2
:1006700000BF00BF0120010491FAA1F1B1FA81F19C
:100680001A4A42F82100FFF751FF044607E0FFF73E
:100690004DFF001BB0F57A7F01D9032038BD144807
:1006A000406800F48030B0F5803FF0D10120410473
:1006B00091FAA1F1B1FA81F10C4A42F82100FFF759
:1006C00035FF044607E0FFF731FF001BB0F57A7FE6
:1006D00001D90320E2E70648406800F40030B0F595
:1006E000003FF0D10020D9E74038024000000E4220
:1006F0000070004070B504460D460026644800684E
:1007000000F00F00A84209D261490D700846006848
:1007100000F00F00A84201D0012070BD207800F049
:100720000200022807D15B48006820F0F000A168B1
:10073000084358490860207800F00100002877D06D
:100740006068012807D1534808380068C0F340406A
:10075000B8B90120E1E76068022802D06068032888
:1007600007D14C4808380068C0F3406048B9012000
:10077000D3E7484808380068C0F3400008B90120B2
:10078000CBE74448006820F0030061680843414912
:100790000860FFF7CBFE06466068012810D108E02C
:1007A000FFF7C4FE801B41F28831884201D9032043
:1007B000B3E73848006800F00C000428F0D137E0B7
:1007C0006068022810D108E0FFF7B0FE801B41F2FC
:1007D0008831884201D903209FE72E48006800F045
:1007E0000C000828F0D123E06068032810D108E04D
:1007F000FFF79CFE801B41F28831884201D903201B
:100800008BE72448006800F00C000328F0D10FE0CB
:1008100008E0FFF78BFE801B41F28831884201D946
:1008200003207AE71B48006800F00C000028F0D194
:100830001748006800F00F00A84209D914490D704C
:100840000846006800F00F00A84201D0012064E7CC
:10085000207800F00400042807D10E48006820F436
:10086000E050E16808430B490860207800F0080078
:10087000082808D10748006820F46040216940EA50
:10088000C100044908600F20FFF77CFE002044E708
:10089000003C02400838024010B500F019F8094940
:1008A000096801F0F001F02292FAA2F2B2FA82F2A3
:1008B000D140054A515CC8400449086008460068B8
:1008C00010BD0000083802408E140008000000200F
:1008D00070B50021002200230020274C246804F07A
:1008E0000C0424B1042C04D0082C41D103E023488B
:1008F00040E023483EE0204C241F246804F03F01E0
:100900001D4C241F246804F4800484B11C4CB4FBE7
:10091000F1F5194C241F246847F6C076344096FA46
:10092000A6F6B6FA86F6F44005FB04F20FE0134C87
:10093000B4FBF1F5104C241F246847F6C076344010
:1009400096FAA6F6B6FA86F6F44005FB04F20A4CCF
:10095000241F246804F440344FF4403595FAA5F57B
:10096000B5FA85F5EC40641C6300B2FBF3F001E0DE
:10097000024800BF00BF70BD083802400024F400E8
:1009800000127A0038B504460025207800F00100F6
:10099000002848D0DE48006800F00C0004280DD084
:1009A000DB48006800F00C00082811D1D848001F6F
:1009B000006800F48000B0F5800F09D1D4480838F1
:1009C0000068C0F3404070B3606860BB012038BD70
:1009D0002079CF49891F0870606890B1FFF7A6FDA4
:1009E000054606E0FFF7A2FD401B642801D903205D
:1009F000EDE7C74808380068C0F340400028F1D050
:100A000011E0FFF793FD054606E0FFF78FFD401B61
:100A1000642801D90320DAE7BD4808380068C0F32C
:100A200040400028F1D1207800F00200022869D16E
:100A3000B748006800F00C0058B1B548006800F0F5
:100A40000C00082821D1B248001F006800F4800083
:100A5000D8B9AF4808380068C0F3400020B1E0685A
:100A6000012801D00120B2E7A9480838006820F029
:100A7000F800F82292FAA2F2B2FA82F221699140C9
:100A80000843A349083908603CE0E06828B3012026
:100A9000A0490860FFF74AFD054606E0FFF746FD5E
:100AA000401B022801D9032091E7994808380068C3
:100AB000C0F340000028F1D095480838006820F0C5
:100AC000F800F82292FAA2F2B2FA82F22169914079
:100AD00008438F490839086014E000208D490860F8
:100AE000FFF724FD054606E0FFF720FD401B022826
:100AF00001D903206BE7864808380068C0F340003E
:100B00000028F1D1207800F0080008282CD1606975
:100B1000A8B1012080490860FFF708FD054606E0FE
:100B2000FFF704FD401B022801D903204FE7784856
:100B30006C300068C0F340000028F1D014E00020C1
:100B400075490860FFF7F2FC054606E0FFF7EEFC8A
:100B5000401B022801D9032039E76D486C3000683A
:100B6000C0F340000028F1D1207800F004000428F0
:100B700057D100BF0020009065483830006840F031
:100B800080506349383108600846006800F08050A2
:100B9000009000BF00BF6148006840F480705F496A
:100BA0000860FFF7C3FC054606E0FFF7BFFC401BEB
:100BB000022801D903200AE75848006800F4807031
:100BC0000028F2D0207A524968310870A068A0B19C
:100BD000FFF7ACFC054608E0FFF7A8FC401B41F21C
:100BE0008831884201D90320F1E64948683000681D
:100BF000C0F340000028EFD013E0FFF797FC054654
:100C000008E0FFF793FC401B41F28831884201D98C
:100C10000320DCE63E4868300068C0F3400000284E
:100C2000EFD1A069F0B33A48006800F00C00082842
:100C300069D0A069022850D1002036490866FFF724
:100C400075FC054606E0FFF771FC401B022801D940
:100C50000320BCE62E4808380068C0F34060002836
:100C6000F1D1D4E90701084347F6C07292FAA2F223
:100C7000B2FA82F2616A914008430122A16AC2EB92
:100C800051014FF4403292FAA2F2B2FA82F291404C
:100C900008434FF0706292FAA2F2B2FA82F2E16A6D
:100CA000914000E031E008431949091F0860012024
:100CB00018490866FFF73AFC054606E0FFF736FCE0
:100CC000401B022801D9032081E61148083800683A
:100CD000C0F340600028F1D017E000200D490866FD
:100CE000FFF724FC054606E0FFF720FC401B022826
:100CF00001D903206BE6064808380068C0F340605D
:100D00000028F1D101E0012061E600205FE600004B
:100D10000838024000004742800E47420070004001
:100D2000042808D14FF0E021096941F004014FF097
:100D3000E022116107E04FF0E021096921F0040190
:100D40004FF0E0221161704770B504462546681ED9
:100D5000B0F1807F01D301200FE0681E4FF0E02149
:100D600048610F214FF0FF3000F068F900204FF08C
:100D7000E021886107200861002070BD70470146AE
:100D80000022002391F8392091F83A3042EA03001A
:100D90007047F8B50446002500262068006800F07A
:100DA00001052068C06800F480767DB176B100BF8F
:100DB0000020009020680068009020684068009043
:100DC00000BF00BFE06B40F00100E06320680068F6
:100DD000C0F340052068406900F001067DB176B19E
:100DE00000BF0020009020680068009020684068E4
:100DF000009000BF00BFE06B40F00400E06320689B
:100E00000068C0F380052068406900F001067DB1EC
:100E100076B100BF00200090206800680090206834
:100E20004068009000BF00BFE06B40F00200E0634C
:100E300020680068C0F3C0052068406900F0010622
:100E40007DB176B100BF002000902068006800905E
:100E500020684068009000BF00BFE06B40F00800D1
:100E6000E06320680068C0F340152068C06800F0A7
:100E700020061DB116B1204600F098F920680068E0
:100E8000C0F3C0152068C06800F080061DB116B11F
:100E9000204600F0DEF920680068C0F38015206865
:100EA000C06800F040061DB116B1204600F06EF992
:100EB000E06B38B1202084F8390084F83A002046ED
:100EC000FFF75CFFF8BD10B5034693F83A00202801
:100ED0002FD101B10AB9012010BD00BF93F838002D
:100EE000012801D10220F7E7012083F8380000BF74
:100EF00099629A85DA850020D863222083F83A0027
:100F00001868C06840F480701C68E0601868406928
:100F100040F001001C68606100BF002083F83800C9
:100F200000BF1868C06840F020001C68E060002026
:100F3000D2E70220D0E700001D4A0168914236D175
:100F40001C49098801F4004189BB1A49098801F448
:100F5000804171B1184909780A2903D00021154A46
:100F6000118024E01349098841F40041114A11809D
:100F70001DE0114909780D2906D10E49098841F46F
:100F800080410C4A118012E00B490978094A128805
:100F9000C2F30D02094B995406490988491C054AB8
:100FA000118011460988C72901DD00211180704791
:100FB000001001401C0000201E0000202400002022
:100FC000704700BFFEE7000000B587B000BF0020FB
:100FD00001901248006840F002001049086008467D
:100FE000006800F00200019000BF00BF03200290E3
:100FF0000120039004900320059002A90848FFF700
:1010000081F9012211460648FFF78AFA01220221DE
:101010000348FFF785FA07B000BD000030380240F2
:101020000004024000BFFEE770470000024800686D
:10103000C0F30220704700000CED00E010B500285E
:1010400007DA0A07140E054A00F00F031B1FD454D9
:1010500003E00A07130E024A135410BD18ED00E016
:1010600000E400E0704770472DE9F04192B005467A
:10107000884616461F46002400BF002000902648E0
:10108000006840F08050244908600846006800F07D
:101090008050009000BF00BF00BF002000901F489C
:1010A000006840F440401D4908600846006800F4AC
:1010B0004040009000BF00BF012006900790022032
:1010C0000C9041050D91CDF838800F951096119731
:1010D00006A8FFF757FC04460CB100BFFEE7FFF778
:1010E000B7FA04460CB100BFFEE70F2001900220C2
:1010F0000290002003904FF4A05004904FF48050D1
:101100000590052101A8FFF7F5FA04460CB100BFD0
:10111000FEE712B0BDE8F0814038024000700040A8
:1011200010B5FFF709FA10BD1448006840F47000CC
:10113000124908601248006840F001001049086038
:1011400000200F49083108600D4800680D4908402B
:101150000B4908600C48091D0860081F006820F44E
:101160008020091F0860002005490C3108604FF0FD
:1011700000600249803908607047000088ED00E097
:1011800000380240FFFFF6FE1030002410B5044680
:101190002068C06820F040002168C860202084F8E2
:1011A00039002046FFF70CFF002010BD70B5044643
:1011B00094F83A0022284AD1A068B0F5805F13D194
:1011C000A56A206940B920684068C0F308002880FB
:1011D000A06A801CA06219E020684068C0B2288024
:1011E000A06A401CA06211E0206938B920684068FC
:1011F000C1B2A26A501CA062117007E0206840686A
:1012000000F07F01A26A501CA0621170E08D401EA8
:1012100080B2E085C8B92068C06820F0200021684D
:10122000C8602068C06820F480702168C8602068A9
:10123000406920F0010021684861202084F83A00CC
:101240002046FFF779FE002070BD0020FCE7022059
:10125000FAE7014691F8390021282CD18868B0F5C9
:10126000805F0FD10A6A1088C0F308000B685860CD
:10127000086918B9086A801C086209E0086A401CFD
:10128000086205E00B6A581C086218780B68586001
:10129000C88C401E80B2C88458B90868C06820F065
:1012A00080000B68D8600868C06840F040000B6898
:1012B000D860002070470220FCE7000070B50024D1
:1012C0000F4D1048FFF765FD00BF03E0641CAC4202
:1012D00000D904E00B48FFF752FD2028F6D100BFEB
:1012E000002403E0641CAC4200D906E00122064958
:1012F0000448FFF7E8FD0028F4D100BF70BD0000EE
:10130000FFFF0100EC0000201E00002000BFFEE7F0
:1013100000BF704710B504460420FFF701FD0148E7
:10132000046010BD1400002030B50446002504E020
:101330004FF47A7000F004F86D1CA542F8D330BD6C
:1013400070B5034600224FF0E02675690D4E3668F1
:1013500003FB06F44FF0E026B16910E04FF0E02601
:10136000B06988420BD0884202D20E1A324402E0A1
:101370002E1A0E4432440146A24200D300E0EDE7AB
:1013800000BF70BD14000020FFF7DEF80823022222
:1013900019214FF4B470FFF767FEB420FFF7BAFFCE
:1013A000FFF712FE6BE0002202213548FFF7B8F884
:1013B000012211463248FFF7B3F84FF4FA70FFF7F5
:1013C000B3FF012202212E48FFF7AAF800220121D3
:1013D0002B48FFF7A5F84FF4FA70FFF7A5FF00229E
:1013E00002212748FFF79CF8002201212448FFF73B
:1013F00097F84FF4FA70FFF797FF01220221204877
:10140000FFF78EF8012211461D48FFF789F84FF4C7
:10141000FA70FFF789FF002202211948FFF780F8D0
:10142000012211461648FFF77BF87D20FFF77CFF6D
:10143000002202211248FFF773F800220121104810
:10144000FFF76EF87D20FFF76FFF002202210C48A6
:10145000FFF766F8012211460948FFF761F87D2081
:10146000FFF762FF002202210548FFF759F800222A
:1014700001210348FFF754F87D20FFF755FF92E75D
:10148000000402404FF04070E1EE100A7047000087
:10149000000001020304010203040607080900001A
:1014A000C01400080000002024000000E80100082B
:1014B000E4140008240000206C0700000402000867
:1014C0000024F400000000000000000001020304FA
:1014D00006070809000000000000000000000000EE
:0414E0000000000008
:04000005080001AD41
:00000001FF
