:020000002100DD
:100100007581609001EA12010C0201037590FF7481
:10011000FFF5A0E590F460F41201E1E590F460ECE5
:1001200020E01620E11920E21C20E31F20E4222019
:10013000E52520E62820E72B2212016902010C1296
:10014000017802010C12018702010C1201960201D2
:100150000C1201A502010C1201B402010C1201C320
:1001600002010C1201D202010C740193F5A030902F
:10017000F81201E13090F222740293F5A03091F868
:100180001201E13091F222740393F5A03092F8123B
:1001900001E13092F222740493F5A03093F8120139
:1001A000E13093F222740593F5A03094F81201E146
:1001B0003094F222740693F5A03095F81201E130E4
:1001C00095F222740793F5A03096F81201E130966B
:1001D000F222740893F5A03097F81201E13097F2FB
:1001E000227F197EC8DEFEDFFA22C0F9A4B0999200
:0401F00082F8809081
:00000001FF
