:03000000020100FA
:02000300217A60
:02001300219931
:1001000075816090050079407B10120146D2A8D21B
:1001100088D2AAD28AD2AF75B80175B0FF758000B7
:100120007400EA9375A000F580512B7400E9937573
:10013000A001F580512B7400E89375A002F5805161
:100140002B02012080FE740093F709A3DBF87A00EC
:100150007B007840E6FB08E69B500CE6FAEBF618CD
:10016000EAF608C3B84FEFE6FBC3B84FE909B94F49
:10017000E1784FE6F87940E7F922C2AFC0E0D2AFAC
:10018000E5B0F4603312023EE5B0F4602B7BFF2053
:10019000E229C2AFD0E0D2AF32C2AFC0E0D2AFE509
:1001A000B0F4601412023EE5B0F4600C7BFF20E373
:1001B00041C2AFD0E0D2AF32D0E03290051079002A
:1001C000E9540FF9E4FAFBFC7D10C3E833F8E93396
:1001D000F9EC3CD4FCEB3BD4FBEA3AFADDECEC75F1
:1001E000F01084F9A8F0EAFCEB75F01084FBAAF09B
:0701F00080C69005107900A4
:1001F700E9540FF9E4FAFBFC7D10C3E833F8E9335F
:10020700F9EC3CD4FCEB3BD4FBEA3AFADDECEC75B9
:10021700F01084F9A8F0EAFCEB75F01084FBAAF063
:10022700DBC9808D75300A753101753214D532FD01
:10023700D531F7D530F1227532197531C8D531FD71
:04024700D532F72293
:100500002255A011C09912B044F17733EF6688D01C
:100510003F065B4F666D7D077F6F777C395E797133
:0105200000DA
:00000001FF
