:020000040800F2
:10000000484901203903000853F900088DBE000853
:1000100011F8000819270008F57901080000000010
:10002000000000000000000000000000DF410108A7
:100030008533000800000000751E000865420108B5
:1000400073030008730300087303000873030008B8
:1000500073030008730300087303000873030008A8
:100060007303000873030008730300087303000898
:100070007303000873030008730300087303000888
:100080007303000873030008730300087303000878
:100090007303000873030008730300087303000868
:1000A0007303000873030008730300087303000858
:1000B00073030008896801087303000873030008CC
:1000C0007303000873030008730300087303000838
:1000D0007303000835790108730300088579010866
:1000E0007303000873030008730300087303000818
:1000F0007303000873030008730300087303000808
:1001000073030008730300087303000873030008F7
:10011000730300087303000873030008A168010853
:1001200073030008730300087303000873030008D7
:1001300073030008730300087303000873030008C7
:1001400073030008730300087303000873030008B7
:1001500073030008730300087303000873030008A7
:100160007303000873030008730300087303000897
:100170007303000873030008730300080000000005
:100180007303000873030008730300087303000877
:100190007303000873030008730300087303000867
:1001A00073030008730300087303000800F002F8EB
:1001B00000F0B2F80AA090E8000C82448344AAF14F
:1001C0000107DA4501D100F0A7F8AFF2090EBAE84D
:1001D0000F0013F0010F18BFFB1A43F0010318477B
:1001E0008C2A0A00AC2A0A000A444FF0000C10F8CE
:1001F000013B13F0070408BF10F8014B1D1108BFA5
:1002000010F8015B641E05D010F8016B641E01F844
:10021000016BF9D113F0080F1EBF10F8014BAD1C94
:100220000C1B09D16D1E58BF01F801CBFAD505E0B2
:1002300014F8016B01F8016B6D1EF9D59142D6D30C
:10024000704700000023002400250026103A28BF34
:1002500078C1FBD8520728BF30C148BF0B60704738
:100260006E2900F0E984702900F0D181662926F01A
:10027000E487652926F0E187672926F0DE87612972
:10028000AFF3008003681B0A28BF41F08001692991
:1002900000F04281642900F03F81752900F03C8123
:1002A0006F2900F0E885782900F09D81E92900F0A8
:1002B0008385E42900F08085F52900F07D85EF290C
:1002C00000F0E585F82900F09C810368DB0928BF70
:1002D00041F08001632900F0F284732900F0F78473
:1002E000E32901F07F80F32901F08480002070472A
:1002F0001FB526F098FF01F0D7F804000020002178
:1003000026F05AF9401C60600020002126F03EF9DA
:10031000E0601FBD10B510BD01F098F81146FFF761
:10032000E7FF25F0A3FE01F075F903B4FFF7F2FF34
:1003300003BC25F080FA000011488047DFF8440034
:10034000016841F470010160BFF34F8FDFF838009E
:10035000016821F040410160BFF36F8F0B480047F7
:10036000FEE7FEE7FEE7FEE7FEE7FEE7FEE7FEE765
:10037000FEE7FEE706480749074A084B70470000BA
:100380008942010888ED00E034EF00E0AD0100088B
:10039000483D012048490120483F0120483F0120B5
:1003A00072B6704762B67047EFF3108072B670474E
:1003B00080F31088704730BF704720BF7047B0FA95
:1003C00080F0704790FAA0F0B0FA80F0704790FA91
:1003D000A0F07047704700001CB50C46064B7B44EC
:1003E00069460090204600F040FC04460020694623
:1003F00000F04EFC20461CBDAF0800000FB40449BD
:1004000010B503AA029800F067FC10BC5DF814FB5D
:10041000280000200FB41CB5084B06AA7B4469468F
:100420000090059800F021FC04460020694600F089
:100430002FFC20461CBC5DF814FB00007108000076
:100440000FB47CB50C0009AA009001D02044401ED6
:10045000084B7B4469460190089800F006FC05466D
:100460001CB10020694600F013FC28467CBC5DF8F6
:1004700014FB00004508000070B50446856900685B
:10048000C10601D5302600E02026C00707D070BD88
:10049000D4E9012130469047206A401C20626D1E3D
:1004A000F6D570BD70B5044685690078C00707D1E0
:1004B00070BDD4E9012120209047206A401C2062B1
:1004C0006D1EF6D570BD70B50C460546012A05D0E7
:1004D0002878800600D5EA69002302E0012305E0C0
:1004E0005B1C934202D2E05C0028F9D1A869E618AF
:1004F000C01AA861286A184428622846FFF7BCFF82
:1005000004E0D5E9012114F8010B9047B442F8D377
:100510002846FFF7C7FF70BD2DE9F04106460024CD
:1005200010687529314616A510D000F01AFB002876
:1005300002DA404213A507E031688A0701D512A507
:1005400002E0490704D511A5012401E000F012FBE7
:1005500000210A2206F1240709E0B0FBF2FCB0FBFF
:10056000F2F302FB1C00303078541846491C002876
:10057000F3D123462A463046BDE8F04100F003BBE4
:10058000000000002D0000002B00000020000000F3
:10059000F0B40D460188090502D5214C7C4402E0E7
:1005A0001F4C7C440E34002100F1240608E002F0C8
:1005B0000F071209E75D42EA03721B097754491CD1
:1005C00052EA0307F3D102780023120704D5702DF5
:1005D00006D009B1022311342246F0BC00F0D3BA90
:1005E00001231034F8E770B504460D462146106823
:1005F00000F0C0FA024629462046BDE870400023BC
:10060000C6E7D21D22F00703D3E90023C0E7036841
:10061000126843F0200303600823C3610023B7E797
:100620007D240A002DE9F05F894604464FF0000A58
:10063000DFF874B1FB44C0F820A02046E168884789
:10064000002874D0252806D0D4E901219047206ADB
:10065000401C2062F1E700265F462046E16888479B
:100660002028054607DB312D05D2781910F8200C1B
:1006700008B10643F1E7B00701D526F00406C4F837
:100680001CA00027C4F818A02A2D09D0284625F060
:10069000CBF838B304EB8708303DC8F8185019E0A0
:1006A00059F8041B204604EB87029161E1688847F2
:1006B000012F054618D1E069002820DA26F020062F
:1006C0001DE0D8F8180000EB800005EB4000303842
:1006D000C8F818002046E1688847054625F0A4F8C8
:1006E0000028EED1012F0AD02E2D08D12046E16836
:1006F00088477F1C0546022F46F02006C4DBA06910
:10070000002803DA404246F00106A061F00701D05C
:1007100026F010066C2D0BD0682D09D04C2D39D049
:100720006A2D35D0742D35D07A2D33D016E038E0CF
:10073000E1682F4620468847B842054609D16C2F0C
:1007400026D04FF48060E16806432046884705467E
:1007500004E06C2F1AD04FF4807006430DB3A5F15E
:100760004100192802D8203546F400664A46294639
:10077000204626604E46FFF773FD80B101280BD05E
:10078000F61D26F0070000F1080956E74020E4E7CF
:100790008020D8E70020D6E706F104094DE7284677
:1007A00052E7206ABDE8F09F0D240A0030B50546E7
:1007B0000B462A4613F8014B12F8010B08B1A04270
:1007C000F8D01CB1002802D06D1CF1E7284630BDDE
:1007D00040EA010310B59B070FD1042A0DD310C8BE
:1007E00008C9121F9C42F8D020BA19BA884201D910
:1007F000012010BD4FF0FF3010BD1AB1D30703D058
:10080000521C07E0002010BD10F8013B11F8014B0D
:100810001B1B07D110F8013B11F8014B1B1B01D129
:10082000921EF1D1184610BD40EA0103024630B5D0
:100830009B0710D14FF0013400E008C208C91D1B0E
:100840009D4315EAC41FF8D013F0FF0102F8011B05
:100850000DD01B0AF8E711F8013B002B02F8013B11
:1008600005D011F8013B002B02F8013BF3D130BD5C
:1008700010B5431C02E010F8011B71B18107FAD1D9
:100880004FF0013202C88C1A8C4314EAC211F9D01D
:10089000C01A0A0603D0C01E10BDC01A10BD0A043B
:1008A00001D0801E10BD0902FCD0401E10BD032ADD
:1008B00040F2308010F0030C00F0158011F8013B7D
:1008C000BCF1020F624498BF11F801CB00F8013B64
:1008D00038BF11F8013BA2F1040298BF00F801CB28
:1008E00038BF00F8013B11F0030300F06780083ABD
:1008F000C0F0088051F8043B083A51F804CBA0E856
:100900000810F5E7121D5CBF51F8043B40F8043BAA
:10091000AFF30080D20724BF11F8013B11F801CBDF
:1009200048BF11F8012B24BF00F8013B00F801CBB0
:1009300048BF00F8012B7047431A28BF9A427FF640
:10094000B6AF032A1044114440F2268010F0030F82
:100950001EBF11F8013D521E00F8013D10F0030FBB
:100960007FF4F6AF11F0030300F0AF82083AC0F055
:100970000B8051F8043D083A51F804CD40F8043D8D
:1009800040F804CDFFF7F3BF121D5CBF51F8043DE2
:1009900040F8043DAFF30080D20724BF11F8013DB9
:1009A00011F801CD48BF11F8012C24BF00F8013D1A
:1009B00000F801CD48BF00F8012C704710B5203A6F
:1009C000C0F00B80B1E81850203AA0E81850B1E808
:1009D0001850A0E81850BFF4F5AF5FEA027C24BFBE
:1009E000B1E81850A0E8185044BF18C918C0BDE8B5
:1009F00010405FEA827C24BF51F8043B40F8043B7E
:100A000008BF7047D20728BF31F8023B48BF11F832
:100A1000012B28BF20F8023B48BF00F8012B70478C
:100A200002F0FF0343EA032242EA024200F002B866
:100A30004FF000020429C0F0128010F0030C00F007
:100A40001B80CCF1040CBCF1020F18BF00F8012B85
:100A5000A8BF20F8022BA1EB0C0100F00DB85FEA53
:100A6000C17C24BF00F8012B00F8012B48BF00F81F
:100A7000012B70474FF0000200B51346944696468E
:100A8000203922BFA0E80C50A0E80C50B1F12001A1
:100A9000BFF4F7AF090728BFA0E80C5048BF0CC04F
:100AA0005DF804EB890028BF40F8042B08BF7047AD
:100AB00048BF20F8022B11F0804F18BF00F8012B1F
:100AC000704700004FF0013C50F8042B51F8043BF4
:100AD0009A4221D1A2EB0C03934313EACC1317D112
:100AE00050F8042B51F8043B9A4215D1A2EB0C03A9
:100AF000934313EACC130BD150F8042B51F8043B69
:100B00009A4209D1A2EB0C03934313EACC13DBD036
:100B10004FF00000704700BFD01A01BAB1FA81F15E
:100B200001F0180122FA01F0CB40C1F12001DBB243
:100B3000C0B2C01A2CFA01F3D11A914311EAC311C1
:100B4000E6D17047704770477047704710B500F0A6
:100B5000E7F9006810BD10B5044600F0E1F9046043
:100B600010BD09684A0501D540B27047C905FCD5DA
:100B700000B2704709684A0501D5C0B27047C9057F
:100B8000FCD580B270472DE9F0470D469946924654
:100B9000044600F124080168880604D5E06921F0C4
:100BA0001001216000E00120A84201DD471B00E0A8
:100BB0000027A1697A1902EB0900081AA0612078C0
:100BC000C00602D42046FFF757FC002608E0D4E90F
:100BD00001211AF806009047206A401C761C20620A
:100BE0004E45F4DB2078C0060AD52046FFF744FCCA
:100BF00006E0D4E9012130209047206A401C2062A1
:100C0000381EA7F10107F4DC07E0D4E9012118F848
:100C100005009047206A401C2062281EA5F10105AE
:100C2000F3DC2046FFF73EFC2078000602D50220C8
:100C3000BDE8F0870120FBE711680268006A5305F0
:100C400001D508700AE0D30501D5088006E0130637
:100C500003D5C217C1E9000200E008600120704717
:100C600001694A1C02610878704700B58FB0CDE970
:100C700001310021059105497944CDE90310114660
:100C80006846FFF7CFFC0FB000BD0000E5FFFFFF97
:100C90000A6802F8010B0A607047D1E900239A4202
:100CA00002D2531C0B601070704710B5436913B12A
:100CB000AFF3008001E0FFF706FC012010BD1278C1
:100CC00000F124010A7000224A700122EDE7116848
:100CD0004FF0FF32E9E70000074B70B50D467B444B
:100CE000FFF7C3FF0446284600F088FB10B14FF021
:100CF000FF3070BD204670BD1B4E02002DE9FF5F26
:100D000015468A460446DFF8AC80F8440027D8E947
:100D100000103E46CDE9001010E03AF816106A4681
:100D200002A800F06FFB411C07D02178890603D58B
:100D3000E269391891420DD80744761C2078800664
:100D400002D5E069B84205DDAE42E6DB3AF81600AE
:100D50000028E2D1A069C01BA0612046FFF78CFBF0
:100D6000D8E90010CDE90010002017E03AF818107B
:100D70006A4602A800F046FBB0F1FF3F81460BD067
:100D800000250DF1080B05E0D4E901211BF8050051
:100D900090476D1C4D45F7D308F10100B0428046E5
:100DA000E4DB206A384420622046FFF77BFBBDE885
:100DB000FF9F00004A1D0A002DE9F0418046D21D28
:100DC00022F007020025D2E90002F52915A614D069
:100DD000011E72F1000106DA0023D0EB030063EB81
:100DE000020211A608E0D8F800108B0701D50FA663
:100DF00002E0490701D50EA601251146002408F19D
:100E0000240704E000F090F830323A55641C50EAB0
:100E10000102F7D12B46324621464046BDE8F0415B
:100E2000FFF7B1BE000000002D0000002B00000005
:100E30002000000030B4002100F1240408E002F09A
:100E40000705D208303542EA4372DB086554491C75
:100E500052EA0305F3D10468002310A2250707D541
:100E6000A40600D421B1C46901230DA2641EC4618B
:100E700030BCFFF788BE10B5044621461068FFF766
:100E800079FE02462046BDE810400023D2E7D21D7D
:100E900022F00701D1E90023CCE7000000000000A8
:100EA00030000000431A28BF9A427FF687AD1044F5
:100EB00010F0030F11441EBF11F8013D521E00F83F
:100EC000013D10F0030F7FF4F6AF103AC0F00A8036
:100ED00010B531E91850103A20E91850BFF4F9AFB5
:100EE000BDE81040530724BF31E9081020E908107D
:100EF00044BF51F8043D40F8043D12F0030F08BF11
:100F00007047D20728BF31F8023D48BF11F8012CC5
:100F100028BF20F8023D48BF00F8012C70470000B0
:100F200000487047E83C012030B5B0F10A024FEAB2
:100F3000900E71F100034EEA817EB0EB0E0061EB82
:100F400091014FEA101E4EEA017E10EB0E0041EBBC
:100F500011114FEA102E4EEA016E10EB0E0041EB1C
:100F600011214FEA104E4EEA014E10EB0E0041EBFC
:100F70001141401841F100014FEAD00040EA4170B0
:100F80004FEAD10110EB80054FEA810444EA9074E6
:100F900044EB01046D1944EB0404521BA3414FF0D0
:100FA000000348BF0A3200D530BD401C41F10001AA
:100FB00030BD70472DE9FF4F0C461E464FF0FF37FE
:100FC0008BB0D2E90001DDF860800A908A46C1F357
:100FD0000A5505B93D46002108464FF00000BAF118
:100FE000000F00F4400005DA00EB80004FF44001F0
:100FF00001EA50004FEA9059B9F1010F00DDB946FE
:101000000A9850EA4A000ED044F61050A5F2FF3577
:1010100045432F14B8F1000F1ED07542291E1EDD66
:10102000C9F100021CE0B8F1010F4FF0000001D03F
:10103000302103E0F24305E02154401CB042FBDBC9
:1010400030460022002121540B99C1F80880C1E9E3
:1010500000200FB0BDE8F08FBD1B6D1CDEE74A46D7
:1010600000DA694206A800F063FA06AB93E80700CD
:1010700003AB83E8070050460A9900F0D4FA8DE8E4
:101080000700A0F500501F3800900398002D0ADDDE
:1010900042F21F014A460844002303A90390684610
:1010A00000F03DFD09E0A0F500504A461F3800233E
:1010B00003A90390684600F047FD8DE8070000048F
:1010C000000C03D04FF0FF30410800E01046B8F1AB
:1010D000000F03D00022009215461EE0751E05D4B5
:1010E000FFF722FF303262556D1EF9D5B34601225B
:1010F000084302D000227F1C04E02078302801D170
:1011000000227F1E002A099784D01DE0112D07DAE6
:10111000FFF70AFF303262556D1C50EA0102F5D12B
:10112000084302D00098C8B10EE00021681E05E017
:10113000235C625C63542254401E491C8142F7DBED
:10114000AB46A81B401E0990002004F80B000B982A
:10115000099AC0F80880C0E9002B7AE711264FF001
:10116000000857E72DE9F04F88460446D21D22F0CB
:10117000070191B0D1E90001CDE90A0123F080FC1B
:1011800002460B98C00F01D02D2007E02068810790
:1011900001D52B2002E0202101EAC000032A09909A
:1011A00001D0072A05DB03464146204600F080F9BE
:1011B0000BE12078800601D5E06900E00620B8F157
:1011C000650F814606D0B8F1660F18D0B8F1670FE9
:1011D00070D131E00020B9F1110F009001DB112333
:1011E00001E009F101030AAA01A90CA8FFF7E2FE38
:1011F000DDE90C70002609F10105834647E0012076
:101200004B4600904FF000470AAA01A90CA8FFF72F
:10121000D1FEDDE90DB00C995D46002610B909F14B
:1012200001000D18B9EB050003D4C0F1FF3609F138
:101230000105A5EB09002BE0B9F1010F01DA4FF030
:1012400001090020B9F1110F0090484601DD11237A
:1012500000E003460AAA01A90CA8FFF7ABFEDDE9EE
:101260000C704D4600268346207800070AD4AB4513
:1012700000DA5D4601A8012D04DD411911F8011CB9
:10128000302907D04F4502DA17F1040F04DA0120A4
:1012900082460FE06D1EEEE7002F02DCED1B3E44A0
:1012A00003E0781CA84200DD7D1CB81B00F1010A98
:1012B0004FF000472078000703D4AA4501DB4FF028
:1012C000FF3A0021B7F1004F0DF143088DF84310AC
:1012D00024D002202B23002F01DA7F422D230A2164
:1012E000021EA0F1010000DC5FB197FBF1FC97FB4F
:1012F000F1F201FB1C7C17460CF1300C08F801CD13
:10130000EEE7A8F1010003702188090501D5452108
:1013100000E06521A0F1010800F8011C09980FA95F
:10132000A1EB0807FF1D00B10120411901EBEA7094
:10133000A1693844081A401EA0612078C00602D472
:101340002046FFF799F8099828B1D4E90121904780
:10135000206A401C20622078C00622D52046FFF774
:101360008BF81EE0002E04DBB34502DD01A8805D92
:1013700000E03020D4E901219047206A401C20621F
:10138000761CAAF101005FEA000A0AD100F08CF88D
:10139000C0680168405CD4E901219047206A401C84
:1013A0002062281EA5F10105DCDC07E0D4E901215B
:1013B00018F8010B9047206A401C2062381EA7F1E4
:1013C0000107F3DC2046FFF76DF8032011B041E67A
:1013D00010B5436913B1AFF3008001E0FFF78EFC55
:1013E000012010BD128800F1240182840022C284F1
:1013F0000122EDE711684FF0FF32E9E7007B00F0D2
:101400008000704770B516460C46054600F044F85B
:10141000036893F80101012806D0FF2C0FD8185D4E
:1014200068B101202C7070BDD3F807013246214607
:1014300003F2071303442846BDE8704018474FF0F5
:10144000FF3070BD00487047E83C01207546FFF74B
:10145000F9FFAE4605006946534620F00700854671
:1014600018B020B5FEF786FFBDE820404FF000061B
:101470004FF000074FF000084FF0000B21F007017C
:10148000AC46ACE8C009ACE8C009ACE8C009ACE8BF
:10149000C0098D467047000010B500F005F8001D2A
:1014A00010BD00BF1551020000487047083D0120E3
:1014B0002DE9F0411F46044603260168072A01F47E
:1014C000006004DB08B116A505E016A503E008B12D
:1014D00015A500E015A521F010002060A069C01E30
:1014E000A0610FB1401EA0612046FEF7C5FF4FB1BD
:1014F000D4E9012138469047206A401C2062C01C74
:10150000206206E0206AFAE7D4E9012115F8010B10
:101510009047761EF8D22046FEF7C4FFBDE8F08162
:101520004E414E006E616E00494E4600696E660087
:101530002DE9F047814616468AB0354878440DC8F3
:101540008DE80D0032487844801C03AC0DC884E857
:101550000D0041F69B300844372190FBF1F290FBDF
:10156000F1F5A5F1800501FB12041B3C02D5644294
:10157000012000E00020DFF898A080460027FA4410
:10158000AAF1BE0A0EE0E0070AD03246684607EB31
:10159000470101230AEB810100F0D6FA8DE807002C
:1015A00064107F1C002CEED1194F7F44AE3F19E030
:1015B000E80715D007EB04100DF1180A90E80E00AB
:1015C0008AE80E00C068F04201D1981908903246AE
:1015D000012306A903A800F0B7FA03AB83E80700CC
:1015E0006D10641C002DE3D14FF0010332466946B3
:1015F000B8F1000F03A802D000F091FA01E000F06A
:10160000A3FAC9E90001C9F808200AB0BDE8F087CB
:101610009C150A0010B50446AFF300802046BDE8D3
:101620001040FEF782BE5FEA400C08BF91F0000F49
:101630004FEA8C234FEAC12243EA51514FEA1C5032
:1016400018BF00F5F0404FEA300018BF41F00041EC
:101650005FEA6C5C00F02980BCF1FF3F08BF40F0FE
:1016600080407047130C06BF12044FF0100C4FF06F
:10167000000C130E04BF12020CF1080C130F04BF70
:1016800012010CF1040C930F04BF92000CF1020C38
:10169000D30F04BF52000CF1010C11464FF00002B1
:1016A000A0F11F00A0EB0C00704711F0004F08BF25
:1016B000704731F000413FF4D5AF0B0C06BF090471
:1016C0004FF0100C4FF0000C0B0E04BF09020CF190
:1016D000080C0B0F04BF09010CF1040C8B0F04BFA5
:1016E00089000CF1020CCB0F04BF49000CF1010C76
:1016F000CCF12003A0EB0C0022FA03F302FA0CF267
:1017000041EA030100F10100704720F07F4C80EABC
:10171000030023F07F47ACEB070303F57C5300F095
:10172000004003F1FF032DE980494FEA154B09B44E
:101730004FEA144325EA0B4E24EA03480FF204262D
:1017400006EB132749083E785FEA320203FB06677F
:10175000C7F5000707FB06F64FEA54374FEAD646AF
:1017600006F1020607FB066CCCF1005C4FEA1C4751
:101770002CEA074C07FB06F40CFB06F504EB1546B8
:101780004FEA961634BF00204FF000404FEAD137A1
:1017900006FB07FC4FEA1C4C0CFB0BF7D21B03FBB0
:1017A0000CF761EB07010CFB0EF7B0EB074072EB97
:1017B00017420CFB08F734BFA2EB0742B2EB07421B
:1017C00061EB17414FEA0C444FEA910706FB07FC17
:1017D0004FEA1C4C0CFB0BF7B0EBC74072EB5732D7
:1017E00003FB0CF734BFA2EBC742B2EBC74261EB7D
:1017F00057310CFB0EF7B0EBC70072EB57720CFBC6
:1018000008F734BFA2EBC702B2EBC70261EB577116
:10181000039F4FEA816141EA921104EBCC044FEA45
:10182000D1374FEA826206FB07FC42EA90124FEA88
:1018300080604FEA1C4C0CFB0BF7D21B03FB0CF730
:1018400061EB07010CFB0EF7B0EB074072EB1742A0
:101850000CFB08F734BFA2EB0742B2EB074261EB87
:1018600017414FEA8C554FEA910704EB9C2406FB85
:1018700007FC4FEA1C4C0CFB0BF7B0EBC74072EBBC
:10188000573203FB0CF734BFA2EBC742B2EBC7429F
:1018900061EB57310CFB0EF7B0EBC70072EB5772E0
:1018A0000CFB08F734BFA2EBC702B2EBC70261EB37
:1018B000577115EB4C254FEA816141EA92114FEACD
:1018C00082624FEAD13742EA901206FB07FC44F1EC
:1018D00000044FEA80604FEA1C4C0CFB0BF7D21B54
:1018E00003FB0CF761EB07010CFB0EF7B0EB0740B5
:1018F00072EB17420CFB08F734BFA2EB0742B2EBC6
:10190000074261EB174115EB1C154FEA813141EAA3
:1019100092414FEA823242EA90424FEA80304FEAE7
:101920000C7644F1000448EA03434EEA0B484FF0BA
:10193000000EB2EB080C71EB030724BF6246394678
:101940004EEB0E0E4FF0000B0018524149414BEB8D
:101950000B0BB2EB080C71EB03077BF1000B24BF00
:10196000624639464EEB0E0E4FF0000B0018524106
:1019700049414BEB0B0BB2EB080C71EB03077BF10E
:10198000000B24BF624639464EEB0E0E51EA0207A9
:1019900018BF46F0010616EB0E7655F1000254F121
:1019A000000103D5BDE88901BDE80088BDE88901D3
:1019B000BDE80048B619524141EB0101A3F1010312
:1019C000704780807F7E7D7C7B7A797877767675AC
:1019D0007473727171706F6E6E6D6C6C6B6A6A6924
:1019E0006868676666656464636362616160605FBE
:1019F0005F5E5E5D5D5C5C5B5B5A5A595958585737
:101A0000575656555555545453535252525151509E
:101A100050504F4F4F4E4E4D4D4D4C4C4C4B4B4BF1
:101A20004A4A4A4949494848484747474746464637
:101A30004545454444444443434343424242424172
:101A40004141002B9C4630D477002BD01CB54FEA87
:101A5000370703B44FF010004FF01001BAF1000F38
:101A600006D0BCF1000FDCBF40F0080040F00801D8
:101A70004FF000000FBCBDE810400BF1010BBBF1B3
:101A8000010F08BF5FEA170722BF12F1010211F12F
:101A900001014FF0004143F1000300F0004043EA30
:101AA00000007047F9D35708D0E746EA064613F11D
:101AB000400F4FEA16461FDD13F1200FDFBF16431C
:101AC0000A46002120335B42BED0C3F1200746EA1C
:101AD000064602FA07F74FEA164646EA0706C3F13A
:101AE000200722FA03F201FA07F721FA03F14FF077
:101AF000000342EA0702A7E746EA020646EA06466C
:101B00004FEA164646EA0106BCBF46EA0646360CD0
:101B10004FF000034FF000024FF0000194E72DE971
:101B2000804C9A46934670B491E8380007C831EA71
:101B3000400C48BF34EA430C03D5FFF7E6FDFFF73E
:101B400080FFF0BCBDE8008C2DE9804C9A4693469E
:101B500070B491E8380007C810F0804F08BF13F048
:101B6000804F03D100F005F8FFF76BFFF0BCBDE834
:101B7000008C20F07F4780EA030023F07F4C07EBC6
:101B80000C03A3F57C5300F00040A3F1FE0392F098
:101B9000000F00F0B38095F0000F00F077802DE982
:101BA00001494FEA11404FEA144621EA004800FB80
:101BB00006FC24EA064708FB06F607FB08F800FBCC
:101BC00007F718EB06484CEB164C4FEA124B18EB94
:101BD00007484FEA15464CEB174022EA0B4E0BFB29
:101BE00006FC25EA06470EFB06F607FB0EFE0BFB7E
:101BF00007F71EEB064E4CEB164C4FF000061EEBA3
:101C0000074E4CEB174B18EB0B0840F1000018EB9C
:101C10000E0B58EB000840F100008F1A4FF0000146
:101C20003CBFC943661B14BFB5EB040C00213CBF8D
:101C3000C943F61B4FEA17444EEA8E0E27EA0445C5
:101C40004FEA1C4704FB07622CEA074C05FB07F729
:101C50000CFB05F604FB0CFC16EB074642EB1742A7
:101C600016EB0C4642EB1C421BEB060658EB02023D
:101C7000414146EA9E0601D5BDE80189B6195241A7
:101C800041EB0101A3F10103BDE801894FEA1445CD
:101C90004FEA114724EA054621EA074C05FB07F401
:101CA00006FB07F70CFB06F105FB0CFC11EB0741EB
:101CB00044EB17444FEA124711EB0C4144EB1C4430
:101CC00022EA074C05FB07F206FB07F70CFB06F6BA
:101CD00005FB0CFC16EB074642EB174216EB0C46D5
:101CE00042EB1C456A1854F1000148BF7047B61911
:101CF000524141EB0101A3F10103704795F0000F40
:101D000037D04FEA11424FEA144721EA024624EA4B
:101D1000074C02FB07F106FB07F70CFB06F402FB7E
:101D20000CFC14EB074441EB17414FEA154714EB49
:101D30000C4441EB1C4125EA074C02FB07F506FB6E
:101D400007F70CFB06F602FB0CFC16EB074645EB0F
:101D5000174516EB0C4645EB1C42121951F10001D8
:101D600048BF7047B619524141EB0101A3F101038D
:101D700070474FEA14454FEA114724EA054621EA25
:101D8000074C05FB07F106FB07F70CFB06F24FF0CB
:101D9000000605FB0CFC12EB074241EB174112EB6E
:101DA0000C4251EB1C4148BF7047921841EB0101B6
:101DB000A3F1010370470000EFF3098141B1F1EE97
:101DC000101A40F8041D20ED200A3E490A681060F0
:101DD0007047B0EC200A02C8E1EE101A3A490A68CE
:101DE0001060704772B64EF62250CEF2000040F2FC
:101DF000FF01C0F2000101704FF0000080F309887C
:101E00000EF006FF40F2A010C2F20000016881F35C
:101E1000088840F22A10C2F2000040F22B11C2F2F0
:101E200000010A78027040F29815C2F2000540F2F3
:101E30009C11C2F200010A682A60106880F30988C8
:101E4000EFF3148040F0020080F31488BFF36F8F2B
:101E5000BDE8F00F0FBCBDE8005006BC62B60847F5
:101E60001A484FF080510160704718484FF0805178
:101E70000160704772B6EFF3098020E9F00F40F27D
:101E80009815C2F200052E68306074460EF0C0FE50
:101E900040F22A10C2F2000040F22B11C2F20001FF
:101EA0000A78027040F29C11C2F200010A682A60AE
:101EB00044F0F40E1068B0E8F00F80F3098862B6C1
:101EC00070470000980100209C01002004ED00E014
:101ED0004A4910B5D1F8042322F44032C1F8042352
:101EE000D1F8042343681A43C1F8042301684A68FF
:101EF00022F480724A6001684A68036942EA032258
:101F00004A6001684A6822F040724A6001684A6883
:101F100083681A434A6001688A6822F400628A6012
:101F200001688A68C3681A438A60C16A6FF0706288
:101F3000D14201688A6822F070628A6001688A680A
:101F40000CD0C36A1A438A6001688A6822F0405242
:101F50008A6001688A68036B1A4301E022F04052EC
:101F60008A6001688A6822F002028A6001688A68D1
:101F7000836942EA43028A60416A002901684A682B
:101F800015D042F400624A6001684A6822F4604257
:101F90004A6001684B684FF46044826A94FAA4F482
:101FA000B4FA84F4521EA24013434B6002E022F4C0
:101FB00000624A600168CA6A22F47002CA6201685B
:101FC000CA6A038C0E4C04EB03531A43CA620168BD
:101FD0008A6822F400728A6001688A68C36942EAEA
:101FE00043228A6001688A6822F480628A600168FC
:101FF0008A68406942EA8020886010BD0020014064
:102000000000F0FF09F064BF70B515460E460446A7
:1020100008E02046641CA4B200F01CF86D1E06F80F
:10202000010BADB2002DF4D170BD2DE9F0410D468C
:102030000146002004464E1908E00702301B401EEE
:1020400080B200F007F8641C3844E4B2AC42F4D328
:10205000BDE8F08110B5044609F0E2FF200AA02196
:1020600001EB4000C0B209F0ABFF0AF01BF8E0B290
:1020700009F0A6FF0AF016F809F0D2FFA12009F036
:102080009FFF0AF00FF8002009F066FF044609F0F0
:10209000E7FF204610BD70B514460D46064606E023
:1020A0002978304600F01CF8761CB6B26D1C641E10
:1020B000A4B2F5D270BD2DE9F04116460D46074693
:1020C000002409E0E00025FA00F0C1B2381980B21E
:1020D00000F006F8641CE4B2B442F3D3BDE8F0812A
:1020E00070B50D46044609F09BFF200AA02101EBC4
:1020F0004000C0B209F064FF09F0D4FFE0B209F07B
:102100005FFF09F0CFFF284609F05AFF09F0CAFF28
:1021100009F0A6FFBDE870400A2023F05BBC002850
:1021200000DC40427047000038B54568044601466F
:10213000284615F081FC00282BD02068304A112851
:102140000DD006DC0B2825D00E2833D00F2852D115
:1021500012E0282849D0B0F5107F4CD108E09268F1
:10216000002A16D02146284601B0BDE8304010476D
:10217000214628465268F7E7284603F0D9FF009029
:10218000406E0468684604F03DF8002C01D02846F3
:10219000A04738BD284603F0CBFF0090683003F01D
:1021A0001DFF009803216C3003F026FF684604F001
:1021B00029F820E0E168486809680D2902D0202943
:1021C00013D105E0002810DD28461EF0B3FF06E01D
:1021D000002804DD2846BDE838401EF0ABBF284685
:1021E000BDE8384002211EF0BBBFE06818B90021ED
:1021F000284600F0C9F92046BDE8384015F050BF28
:10220000CC0200202DE9FF410AAF97E870000027BB
:1022100003958DE8D00000F003F804B0BDE8F0812C
:10222000F0B585B00DF1280C9CE8F0004FF0000CE3
:102230008DE8F01000F024F805B0F0BDF0B50446CC
:1022400085B08069B4F90850668A0027CDE9026537
:10225000CDE900170490B4F90C00B4F91060C1186E
:10226000B4F90A00B4F90E50104433462A4600F07F
:1022700007F80546616800F0A6F905B02846F0BDEC
:102280002DE9F04F85B01F46DDE911B4DDE90E56AA
:1022900090468946824605F001FB16484C34CDE94C
:1022A0000204CDE900563B4642464946504615F0E9
:1022B0003FFE040018D003F03BFF10225946049063
:1022C00015F078FD049830220B493430FEF776FB88
:1022D000094D04990C3D2868486604A803F092FF54
:1022E000286841682046884706F0B8FE05B02046B9
:1022F000BDE8F08F29210008D8020020F0B504467F
:1023000080688B4989B051F82050606800287DD0E2
:10231000052804D006287AD0122879D1AEE0E869E1
:1023200000284FD095E80E008DE80F0004F1100151
:102330000FC907F02FFB002655F8260006F0B5F967
:10234000A169E8690A1A216901446069304404F00E
:102350006DFFA169E8690A1A21690144E069801BDF
:1023600004F064FFE169E8690A1A616901442069BF
:10237000304405F043F8E169E8690A1A61690144EB
:10238000A069801B05F03AF8761C022ED4DBA86801
:1023900006F08BF9E069E9696669431A2069421819
:1023A0003144801C521E05F085F8E169E869A26994
:1023B0000B1A61690144101A401C921E05F07AF84C
:1023C000EE6913E05FF0000655F8260006F06DF99F
:1023D000E069831BA069821B606981192069304410
:1023E00004F09AFF761C022EEEDB0226D5E90301EB
:1023F000CDE900016169E06908444310A069891CC6
:10240000821B2069304404F0ABFE02E089E012E058
:102410008AE0D5E90501CDE90001E36960690121A0
:10242000184401EB6001A0699B1E821B20693044A7
:1024300004F096FE78E0206803F07AFE04902068AD
:1024400017F04EFA40B1A06808B1002008E00498E7
:10245000006F28B1012003E00498406F00B1022012
:10246000049901EB8000C56E04A803F0CBFE0023A5
:102470001A462846216804F053FB55E0206803F013
:1024800057FE0490866EEEB3B0F95C70A168D1B3CC
:10249000032942D05FF0000100EB8101406D0C6C1C
:1024A00006F020F9204606F000F905A805F0C4F86A
:1024B000BDF81410A88B0144ADF81410BDF8181025
:1024C000081AADF81800BDF81600801CADF816000B
:1024D000BDF81A00801EADF81A000498B0F960200B
:1024E000B0F95E1005A805F02FFF04A803F08AFEDE
:1024F000022006F081F9304603F01AFE3A4605A99B
:10250000079001E00BE006E004F030FC0DF11C0048
:1025100003F078FE08E00121BEE70221BCE704A831
:10252000F6E7206816F066FE09B00020F0BD000056
:1025300050DF0908044A0349116004494A6A4862A5
:102540001046704708030020CC020020D80200206B
:1025500000294FF0100101D015F002BB15F04BBA65
:1025600038B50D4604000ED005F098F9204603F06A
:10257000DFFD00904565684603F044FE204616F0F6
:1025800025FB06F06BFD38BD4FF480720029114623
:1025900001D015F0E5BA15F02EBA08B50023009366
:1025A00000F001F808BD70B516460C460546194600
:1025B0003046049A04F096FA024621462846BDE8C1
:1025C000704000F02DB82DE9FF410E4605004FF098
:1025D000010421D005F062F9284603F0A9FD01901D
:1025E000876E01A8009703F00DFE3146684607F09C
:1025F0000BFD78B100980024B84208D0284603F0BB
:1026000097FD01900099816601A803F0FBFD284623
:1026100016F0DCFA06F022FD04B02046BDE8F08199
:10262000F8B515460C46060018D005F037F93046C7
:1026300003F07EFD0090032C0BD200EB84006C3085
:1026400003F0CCFC009800EB8400C566304616F021
:10265000BDFA684603F0D6FD06F000FDF8BD0000A7
:10266000134910B5A1F5805202EB400202F58052E9
:1026700081F8350CB2F83C2CA1F8502C052341F21E
:10268000883209280BD2DFE800F008051008100B8B
:102690001010100041F2EC3004E0A1F8523C10BDE3
:1026A0004CF25030A1F8520C10BDA1F8522C10BDC4
:1026B0005C3C0020F0B417490020A1F58053A1F83C
:1026C0004E0C012400EBC00202EB001203EB42159A
:1026D00003EB4002568802F5805205EB4605B2F93D
:1026E0003C2C6D8A954206DDB1F84E2C04FA00F5BB
:1026F0002A43A1F84E2C401C80B20928E2D3B1F83D
:102700004E0C08B1002100E00121F0BC002010F0C7
:10271000D5BC00005C3C0020FEE700002DE9FF472F
:102720000446006810B117F0DBF868B100223148A8
:1027300050F8221060680A2841D007DCF0B3062860
:102740000DD0072854D106E00122F0E712280AD064
:1027500019284DD137E0204618F0C2FC48E0204649
:1027600019F0BEFE44E0206803F0E2FC0290B0F9EC
:10277000548090F85650476C466B02A803F042FD17
:10278000206800F039F88146684615F0A9FDBDF8CB
:10279000001009EB05000844ADF80000246A30463B
:1027A00005F0A0FF022006F027F8384605F07DFF6F
:1027B00042466946204604F0D9FA19E007E020466F
:1027C0001BF016F814E0886904B0BDE8F0872068B3
:1027D00016F010FD206803F0ABFC0390B0F9061072
:1027E000B0F90220891A491CC16703A803F00AFD49
:1027F0000020E9E760DF090838B5044605F04EF827
:10280000204603F095FC0090C46F684603F0FAFC84
:1028100006F024FC204638BD044A034911600449EF
:10282000CA69C8611046704794030020B80A0020A6
:10283000BC0A002000B589B024216846FEF71AF9C9
:1028400019200190034800688068416868468847FD
:1028500009B000BDB80A0020054910B50020486045
:1028600000F0A6F800F006F8BDE8104000F086B8C9
:10287000B00000202DE9F041104F002635463E8083
:102880007E80BE60FE607E61BE613E61FDF78CFDB4
:10289000804600247E6100F049F800F057F878691E
:1028A000641C24040544240CF4D0C7E904564046B3
:1028B000BE61BDE8F041FDF77BBD0000B000002027
:1028C00003490969884201D9401A704700207047BE
:1028D000B000002010B5FDF767FD04494C69FDF715
:1028E00067FD2046BDE81040FFF7EABFB0000020BA
:1028F00010B5FFF7EFFF0446FDF756FD034A002130
:102900005161FDF755FD204610BD0000B0000020CC
:1029100010B5FDF749FD04498C69FDF749FD2046D6
:10292000BDE81040FFF7CCBFB000002010B5064C4A
:102930002088401C2080608810B900F051F8A06009
:102940006088401C608010BDB000002010B50A4CAB
:102950006088401E0004000C60800CD100F040F83C
:10296000E060A168401A6169814200D26061A1699A
:10297000814200D2A06110BDB000002010B5FDF76B
:1029800013FD0446FFF7D2FF102105480CF041FF6C
:10299000FFF7DCFF2046BDE81040FDF709BD000051
:1029A000602001200149486070470000B00000200D
:1029B00010B508F00FFC08490A6842F080720A60FE
:1029C000064900224A600A6842F001020A60BDE836
:1029D0001040FFF7E7BF0000FCED00E0001000E052
:1029E0000148406870470000001000E070B50E4CD0
:1029F0000025C4F898520D48016821F0C00101601B
:102A0000016841F0400101600948C0F88C52022081
:102A100004F5267423F006F801202060022023F03C
:102A200001F8256070BD0000008043420020024094
:102A300000004442154810B5016886B041F080019D
:102A40000160016801F080010591016841F4807125
:102A500001600068012400F4807005904020CDE9F9
:102A600000040320CDE902406946094807F02EFE24
:102A7000082000906946074807F028FE0648C0F87D
:102A80008C420648C0F8984206B010BD303802406B
:102A9000001C0240002002400000444200804342EB
:102AA00070B50E4C0026C4F898620D48016821F0FC
:102AB000C0010160016841F0400101600948012541
:102AC000C0F88C52022004F5267422F0ABFF25607A
:102AD000022022F0A7FF266070BD00000080434264
:102AE00000200240000044422DE9F0478246194888
:102AF0000024016821F0C0010160016801601E200E
:102B000022F090FF0025144EDFF850902F464FF032
:102B10000108C6F89872022022F084FFC6F8988255
:102B20006006040ED9F80C0208B1641CE4B202205D
:102B300022F078FF6D1CEDB2082DEAD3BAF1000F38
:102B400004D0FFF753FF2046BDE8F087FFF7A8FF4A
:102B5000F9E70000002002400080434200004442A8
:102B60002DE9F04705461648016821F0C0010160D3
:102B7000016841F040010160124E0027C6F89872CA
:102B8000022022F04FFFDFF8408000244FF00109BF
:102B9000E909C8F88C126806050E022022F042FFEF
:102BA000C6F89892022022F03DFFC6F898720220E3
:102BB00022F038FF641CE4B2082CE9D3BDE8F087AA
:102BC00000200240008043420000444270B50F489C
:102BD000016821F0C0010160016841F0400101601D
:102BE0000B4E0120C6F88C020A4DC5F898021E2033
:102BF00005F5267506F5237622F014FF00243460CF
:102C0000022022F00FFF2C6070BD00000020024067
:102C1000000044420080434270B50F48016821F033
:102C2000C0010160016841F0400101600B4E0020CD
:102C3000C6F898020A4DC5F88C021E2005F52375CA
:102C400006F5267622F0EEFE01243460022022F002
:102C5000E9FE2C6070BD000000200240008043426D
:102C60000000444270B511480024016821F0C00101
:102C70000160016801600E4D0120C5F88C020D4E07
:102C8000C6F8980207E0641CE4B2FA2C03D9FFF7F7
:102C9000C3FF012070BD022022F0C4FED5F80C0253
:102CA0000028F0D1C6F8980270BD00000020024054
:102CB00000004442008043420EB5714CFF260025BF
:102CC00094F8C07C15F03AFBA9460346CDF8009075
:102CD0006C4A0C216C48CDF8049003F0EBFD029097
:102CE0006421002023F0D6FA01906421002023F013
:102CF000D1FA6649C1F8009004F0BAFBA4F5805BF4
:102D000094F8540CB04211D0061E029840F61501FA
:102D100010D015F029FB5EA111F099FB40F61601C9
:102D2000029815F021FB5AA111F091FB94F8540C74
:102D300060B149E015F018FB804694F8C02C55A10D
:102D40000198FDF767FB40460199E5E794F8C00C50
:102D5000B8421ED0074640F61501029815F004FB54
:102D6000054694F8C02C4BA10198FDF753FB28466B
:102D7000019911F06CFBC4F8589C4D4640F61601C1
:102D8000029815F0F1FA42A111F061FB94F8540C8D
:102D9000D0B9D4F8580CA84216D0054640F6160112
:102DA000029815F0E1FA80463DA13F48FDF7FEFC90
:102DB00000903EA25A21D4F8583C0198FDF740FB00
:102DC0004046019911F043FB642003F0E1FE9BF8BB
:102DD0000000D846012893D140F60301029815F06F
:102DE000C3FA8246B4F9502C33A10198FDF712FBC7
:102DF0005046019900F0C7FC40F60501029815F015
:102E0000B3FA82462D48A0F51661098900EB41000E
:102E100029A1428A0198FDF7FDFA5046019900F078
:102E2000B2FC40F60A01029815F09EFA8246244848
:102E3000A0F5AF51098A00EB41001FA1428A019819
:102E4000FDF7E8FA5046019900F09DFC40F61201AA
:102E5000029815F089FA824609486038A0F57A612F
:102E6000898900EB410014A1428A0198FDF7D2FA4A
:102E70005046019900F087FC88F8009040E7000078
:102E80005C3C0020814F020868BB02081C02002045
:102E9000000000002564202D20574946490000000D
:102EA0002B49504400000000B84800202564202031
:102EB0003A3A3A202025730025640000BC350020F2
:102EC0003C4200207CB515F039FA002503460095F8
:102ED000094A04210948019503F0ECFC084C064618
:102EE0002570642003F054FE21780129F9D1304681
:102EF00015F00EF900207CBDC5510208DC57090809
:102F0000200200202DE9FC5F002715F017FA0026AB
:102F100003460096374A10213748019603F0CAFC51
:102F2000364DDFF8DC8081462E7088F800606E70C8
:102F300040F60E0A40F60F0B68780024874206D050
:102F40005146484615F010FA2D4900F01CFC28782F
:102F5000032804D002280BD0012814D00FE05946D2
:102F6000484615F001FA27A111F071FA2E7006E01B
:102F70005946484615F0F8F923A111F068FA642083
:102F800003F006FED8E722484246A0F8506C6FF0E6
:102F90002F066B780AE0B0F8501C155D01EB81013B
:102FA00006EB41012944A0F8501C641C9C42F2DB52
:102FB00090F8351C174AB0F8503C02EB410101F57E
:102FC0008051A1F83C3C90F8350C02EB400141F6F1
:102FD0003C421144C82202EB40000222FFF75BF89A
:102FE0005946484615F0C0F9484615F091F80020BA
:102FF000BDE8FC9F095502080C5A09082C02002064
:10300000CD390120000000004572726F720000008F
:103010005C3C00205C2C00202DE9FC47002515F0CD
:103020008DF90026034600961E4A10211E4801967F
:1030300003F040FC07461D4C1D4840F60E09267063
:103040000670667040F60F081EE04946384615F0D7
:103050008BF9174900F097FB2078032804D0022849
:103060000BD0012810D116E04146384615F07CF906
:1030700010A111F0ECF9267006E04146384615F033
:1030800073F90DA111F0E3F9642003F081FD60787C
:103090008542E1D0D9E7384615F03AF80020BDE87E
:1030A000FC8700005D5202084C58090821020020EC
:1030B000C4390120000000004572726F72000000E8
:1030C00070B515480024016821F440510160016881
:1030D0000160124D04E0641CE4B2012022F0A2FC65
:1030E000D5F8180210B1642CF5D30DE0642C0BD286
:1030F000002404E0641CE4B2012022F093FCD5F823
:10310000180218B1642C04D3012070BD642CF1D3D3
:10311000FAE7002070BD00000000024000004042BD
:103120000D4800B5016887B041F0010101600068F9
:10313000694600F0010005904020009001200190B8
:10314000029003200390054807F0C0FA00F070F8E1
:10315000FFF7B6FF07B000BD303802400000024064
:10316000411C00F035B8000070B50024104D04E09B
:10317000641CE4B2012022F055FCD5F8180208B115
:10318000642CF5D3002404E0641CE4B2012022F096
:1031900049FCD5F8180208B9642CF5D3282022F090
:1031A00041FCD5F81802002800D0012070BD0000B5
:1031B0000000404270B5002004464006050EFFF7AF
:1031C000D3FF641C2843E4B2082CF6D370BD000082
:1031D0002DE9FC410E46074600F02AF8FFF770FF84
:1031E00010B10120BDE8FC8100246D46FFF7E2FF2D
:1031F0002855641CE4B2052CF8D39DF800109DF806
:1032000001209DF802009DF803408B1804442344DC
:103210009DF80440A34201D13170387002A0FDF73F
:10322000EDF80020DEE7000025642025640A000098
:1032300070B50F480024016821F440510160016815
:1032400041F4805101600B4DC5F898424FF47A76F5
:10325000304622F0E7FB641CE4B2142CF8D30120C2
:10326000C5F89802BDE870401E2022F0DBBB0000CC
:103270000000024000004042F8B50546006802F038
:1032800057FF0090448ED0F88860684602F0BAFF7D
:1032900006B1012604F00104286816F021FB0EB1E6
:1032A000002006E00CB1012003E008B1022000E09C
:1032B00003201B4951F82010686858B302280CD02D
:1032C000052802D0122828D103E0284617F034FF41
:1032D00023E028461BF09AF91FE06A69E8694FF07D
:1032E000FF33801AA0F1080203EB6204421CAB69B1
:1032F000001B4510A3EB6206C86905F0D6F906E08D
:103300003219311B284603F091FF641E6D1C002CFE
:10331000F6DA02E0286815F06DFF0020F8BD000025
:1033200068DF0908044A0349116004490A6B08630D
:1033300010467047E0030020F80A0020FC0A002035
:1033400038B50D46002402F0F3FE0090C06B29460C
:1033500002F0F0FF0546684602F054FF1DB1284612
:1033600002F0E6FE0446204638BD00214FF4C77245
:1033700000EB41035B8820F81130491C89B291426F
:10338000F6D9704770472DE9FC470E465FEA000901
:103390007FD004F083FA484602F0CAFE009090F80D
:1033A0005470D0F85880456BC46C684602F02AFF10
:1033B000B8F1000F04D0314648464246904761E0DC
:1033C000122E18D006DC082E43D0102E3CD0112E21
:1033D00006D112E0132E21D01D2E43D01E2E3DD03B
:1033E000202E4FDB17B1484617F0D1FAB1B248464C
:1033F0001DF062FB60B3611C27E04DB3284602F06C
:1034000097FE05462146019005F016FD4419204619
:1034100005F0C0FC01462346012210E0C5B1284654
:1034200002F086FE05462146019005F005FD44198F
:10343000204605F0AFFC014623464FF0FF324846D8
:1034400016F0B4FF01A81BE0611E484600F032FAF6
:1034500018E0BCB1611E484600F02CFA484617F04F
:1034600096FA0FE0484602F063FE0090012F12D05A
:10347000012180F854102146484600F01BFA6846A6
:1034800002F0C0FE484615F0A1FB00E001E005F0A7
:10349000E5FDBDE8FC87002180F85410EFE7FEB59C
:1034A00044680546204616F01BFA06462946204683
:1034B00014F0C2FA002837D028680F2830D004DC76
:1034C0000B2832D00E2853D13AE0A0F58070133883
:1034D00004D0A0F580702D384AD110E0204615F0B8
:1034E00015FD204600211EF018FC204602F020FEAB
:1034F0000190C06F002115F0E0FC01A81DE0E86814
:1035000060B1017A29B10168204600F0C9F80121B3
:1035100000E00221204615F019FC29E00321F9E71B
:10352000012120461EF0F9FBFEBD204602F000FE00
:103530000090343002F052FD684602F063FE17E05E
:10354000B6B1E8684168002912DD01681B290FD077
:1035500006DC09290CD00A290AD00D2904D107E07C
:10356000212905D0222903D02046FFF70CFFFEBDFC
:10357000284614F095FDFEBDF0B587B004460DF168
:10358000080CD4E90567B0F90850408A8CE8E100DE
:103590000020CDE90010B4F90C00B4F91060C11896
:1035A000B4F90A00B4F90E50104433462A4600F02C
:1035B00009F8050002D0618A00F04DF907B02846ED
:1035C000F0BD00002DE9F04F85B01F46DDE9125433
:1035D000DDE90E6A90468946834604F05FF90DF1F5
:1035E000040C4AF480501F49583400968CE81300AC
:1035F0003B4642464946584614F09AFC04002AD0FD
:1036000002F096FD10220490119914F0D3FB049857
:103610001C2215496030FDF7D1F9049A012082F887
:103620005500681C00D0012082F88000002D00DCCD
:1036300008252DB2158700205087506304A86D1C03
:1036400002F0E0FD294620461DF0E7F818B92046B3
:1036500014F05EFD002405F001FD05B02046BDE834
:10366000F08F00009F3400089C040020F8B5154638
:103670000C46060013D004F011F9304602F058FD54
:10368000009038B1022C05D200EB8400456730462B
:1036900015F09CFA684602F0B5FD05F0DFFCF8BDB8
:1036A0002DE9F04186B00C46060055D004F0F6F83E
:1036B000304602F03DFD0090406B98B302F038FDBB
:1036C00003900098806E05F00DF88046304614F0A7
:1036D000AFFF0746039804F03AF80546009890F8C3
:1036E000601001F00301012916D002290DD0416EAE
:1036F000C06A00680844241A641E039806F012FB8E
:103700000146002C0FDA002115E0781B401C00EB6D
:10371000D070A4EB6004F0E7406E791B081A241AFD
:10372000641CEAE713E0AC4205DC0246214603983C
:1037300006F098FA0146304600F0BCF803A802F003
:1037400061FD404604F0CEFF304615F03FFA684672
:1037500002F058FD05F082FC06B0BDE8F08138B5F6
:103760000D4604000ED004F099F8204602F0E0FC6B
:1037700000908566204615F029FA684602F042FD61
:1037800005F06CFC38BD2DE9FC4788465FEA00096E
:103790004FF0000652D004F081F8484602F0C8FC11
:1037A0000090B0F93850446B684602F02BFD0027BA
:1037B000B8F1000F44D04CB1204602F0B9FC0190A2
:1037C000FDF756F8461C01A802F01CFD404606F025
:1037D000A9FA0446A84200DD2C462146404605F0E1
:1037E0002BFB451CA91B48461DF045FA08B348466B
:1037F00002F09EFC0090406B02F09AFC2A46414683
:103800000190FDF754F80198284400F8017C0098D5
:10381000C464B0F938108C4205D190F854100129D5
:1038200001D1641EC46401A802F0ECFC684602F0F9
:10383000E9FC484615F0CAF905F010FCBDE8FC8724
:10384000484602F075FC0090343002F0C7FB009847
:103850004787C764EAE738B50C4605000FD004F087
:103860001DF8284602F064FC009018B10466284652
:1038700015F0ACF9684602F0C5FC05F0EFFB38BD69
:10388000F8B515460C46060013D004F007F830468C
:1038900002F04EFC009038B1022C05D200EB8400FF
:1038A000C566304615F092F9684602F0ABFC05F0AB
:1038B000D5FBF8BD1CB50C4602F03AFC0090406BFD
:1038C000F0B102F035FC019006F02CFA009991F865
:1038D000542002B10122002C00DA0024844200DDD1
:1038E0000446B1F93800801AA04200DA0446C86CD8
:1038F000A04200D0CC640020086501A802F082FC40
:10390000684602F07FFC1CBD70B5B3F5804F05D052
:103910006FF0704140F82210002070BD50F8223046
:10392000084C2340D1E9004544EA05148D688E898E
:103930002D0245EA064589692C430C431C4340F897
:103940002240E9E70000F0CFF0B50C6850F82450B1
:10395000194A1540D1E90123D1E903671A433E43CF
:1039600032434E6932438E693243CE6932430E6A26
:1039700032434E6A32438E6A3243CE6A3243CE6B52
:1039800032430E6B32434E6B32432A43082B01D134
:1039900042F0400240F824204A6BB2F5801F08D163
:1039A0000A6832B14FF480720A6104490268114317
:1039B00001600020F0BD00008000E0FF0001100069
:1039C000F0B500EB820253688E8903F04044D1E9E0
:1039D000003543EA05138D682D0245EA06452B4361
:1039E0000E8A0D4D05EB065633430E7D6F0107EB36
:1039F000066633438E693343234353600268D20221
:103A000007D54268098A22F4700205EB015111437F
:103A100041600020F0BD00000000F0FF30B5D1E9AA
:103A200001231A43D1E9033423431A434B690D6838
:103A30001A438B691A43D1E90734012D496A056895
:103A40006FF30E0505D01A4322430A432A4302604E
:103A500008E0234329430B43416803606FF30E01E1
:103A60000A434260002030BD426942EA410141619F
:103A700000207047F8B514460546D1E9000210430E
:103A80008A686FF01F03C96803EB421242EA4121C2
:103A900008430090286106F011FF064609E0601C0B
:103AA00007D024B106F00AFF801BA04201D90320F1
:103AB000F8BDA8698006F2D40020F8BDF0B56FF01B
:103AC0000F05D1E9003405EB04145B1E2E012343DE
:103AD0008C682F0306EB04244FEA054C23430D8A20
:103AE0008E8ACC68097E4FF07F4E07EB05450CEBC4
:103AF00006560EEB0161012A0CD082683F1107EBDC
:103B0000043423432B43334302F070420B431343EB
:103B100083600FE0C2682B430B4302F07042816860
:103B2000134301F070422103A1F580513143114349
:103B3000C36081600020F0BD2DE9F04389B0984654
:103B400015460F4606004FF000042CD000F0A8FBED
:103B50000446304600F08BFB814603F09FFE03A92C
:103B6000304600F0C0FCF80706D0BDF91C008221E9
:103B7000001B401B401C08E0B807BDF91800284492
:103B800002D540F2022100E002210096CDE9018138
:103B900023461A464946FEF735FB04460021FEF748
:103BA000D7FC05F05BFA09B02046BDE8F0830000C1
:103BB00010B50523FFF7C0FF0446054A0021FEF7B4
:103BC000ECFC0449204615F0F2F9204610BD000037
:103BD00085AC01084F4E02082DE9F04704464068C5
:103BE0008EB00027804602F0A3FA0090B0F87CA0C7
:103BF000D0F86890D0F88060D0F88850C06D00B1DF
:103C00000768684602F0FEFA05E0696820468847C2
:103C1000002843D12D68002DF7D12068172853D0F4
:103C20000CDC0F283DD004DC0B2877D00D2825D1E3
:103C30008BE0112810D0142820D13BE0262846D054
:103C400004DC1E2851D0202818D18AE02A2816D05A
:103C5000B0F5107F12D128E04046E56802F068FA1E
:103C60000290697A39B9297A012904D130F87C1F88
:103C700041F48071018002A802F0C4FA75E0404668
:103C800002F056FA0090E16811B1C0F8841002E029
:103C9000D0F88400E060684602F0B4FA0EB0BDE8E7
:103CA000F087D7B34046B8475FE0214640461DF055
:103CB00019FEF3E705A9404600F015FCE0680699F7
:103CC000016007994160E9E7C4F80C90E6E7E06815
:103CD0000228E3D1CDF83080E0680D9027200A90CB
:103CE0000AA9A06815F0F6FFD8E7E068012804D01B
:103CF0000021404600F0F1FAD0E7304614F0CFFF43
:103D000068B1304615F0F0F9304614F08BFE98B1EA
:103D10000121304613F024FF0EE026E02FE0484654
:103D200015F036FA0646404602F002FA0090C0F856
:103D30008060684602F066FA0121404600F0CDFA44
:103D4000002EABD10020E060A8E75FEA0A700CD437
:103D5000E068C06848B1007A38B1404615F0C4F94F
:103D600003E0214640461DF018FA2146404613F074
:103D700063FE002892D0204614F092F98EE7404668
:103D800002F0D6F90090703002F028F9684673E727
:103D9000F0B587B0B0F908400DF10C0C0C9E8769A6
:103DA00045688CE8F000448A0025CDE900150294AE
:103DB000B0F90C10B0F91050B0F90E40B0F90A008B
:103DC000194410442B46224600F002F807B0F0BD1B
:103DD0002DE9F04F8BB09846DDE9155691468A469D
:103DE0008346149F1A9C03F059FD3348603445F410
:103DF0008055CDE90204CDE9007543464A46514657
:103E0000584614F095F804004FD002F091F9302292
:103E10000490179913F0CEFF0498282227493430D4
:103E2000FCF7CCFD04981999244F4166A0F87C60FA
:103E30000026C0F88060C666083FC0F888607968D0
:103E4000C16504A802F0DEF905A9204600F04BFB8D
:103E50001B4841F2827103960094CDE90110BDF92F
:103E60001E00BDF91A10BDF91C20431ABDF9180037
:103E70005B1C121A521C14F05BF806467868416805
:103E800020468847204602F053F90490866604A82D
:103E900002F0B8F942F20400054202D1204614F0C3
:103EA000AFF92046189900F071FA05F0D7F80BB079
:103EB0002046BDE8F08F0000D93B0008C004002078
:103EC000ED4700082DE9F041044694B0006800F089
:103ED000B7F908B1D94D01E0D84D2C3560681528E7
:103EE0001ED00CDC0B281FD004DC00287ED0052857
:103EF0007DD12FE10E287BD01228F9D141E116287F
:103F000006D0172808D0182808D01C28F0D109E0BE
:103F1000E86914B0BDE8F081286AFAE7686AF8E752
:103F2000A86AF6E76869F4E720680B901C200C90FB
:103F3000206802F0FDF80390016D0BA88847064643
:103F400003A802F05FF9022E0FDB95E807008DE869
:103F50000700D4E904023346A16905F0E1FC2069B9
:103F60008719A069A0EB06082CE0286804F09DFBE7
:103F70002169E8690A18521E606903F057F9A269BD
:103F8000E869111A491C606903F050F9D4E9040783
:103F90007F1C394603F09AF93946A06903F096F977
:103FA000686804F082FB20693946401C03F08EF9F2
:103FB000A0693946401E03F089F9A0692769A0F17C
:103FC0000208BF1C286804F070FB4246394660694D
:103FD00003F02CF9686804F068FB606942463946D2
:103FE000401C03F023F9686A022802E015E1B0E002
:103FF00000E10BDDA86804F058FB61696A6A881C5F
:104000008B180146424638465B1E27E0296AB142BA
:1040100026DD6069022E074600F1020801DB374405
:1040200001E007F10207206901DB304401E000F103
:10403000020022693B460A444146A2F1010203F014
:1040400039FA022E02DBA069821B01E0A269921EEE
:10405000A069E9693B46401A4146401C03F02AFA30
:10406000022E02DB6069064401E06669B61CE7695E
:1040700028687F1E04F019FB3A463146206903F098
:10408000BDF93A463146A06903F0B8F9E7696868B6
:10409000BF1E04F00AFB20693A463146401C03F07B
:1040A000ADF9A0693A463146401E03F0A7F9E86928
:1040B000022802DC286A022823DDA86A022802DD21
:1040C000E1690F1A01E0E769BF1EA86804F0EDFA84
:1040D000E969022909DD20693B46421800F1020C1A
:1040E00031466046521E03F0E5F9286A022808DDD1
:1040F000A269E8693B46101A3146401C921E03F043
:10410000D9F9286804F0D1FAD4E90620216903F02E
:104110008DF8686804F0C9FAD4E906202169401EC8
:10412000491C521E03F082F8A86A022811DDA16919
:104130002669E469A1F10208271AA41EB61C7F1C97
:10414000A86804F0B2FA234642463946304603F0E6
:10415000B1F971E0208A00B2ADF81400A18A09B269
:10416000ADF81610228B12B2ADF81820A38B1BB23B
:10417000ADF81A302C69ED68CDE9005402F0F0FF7B
:104180005AE0208A298B0844ADF81400A08AADF8C3
:104190001600208B298B401AADF81800A08BADF8C3
:1041A0001A00206801F0C4FF0390006FF0B10220F4
:1041B00004F022FB039890F87C10C1F3C00100EBDF
:1041C0008100006C04F071FA0398406B04F08AFAE5
:1041D0000398006F01F0ACFF03990990B1F95A20E0
:1041E00005A902F0C3FD09A802F00CF803A802F02B
:1041F00009F821E0208AADF81400A08AADF8160075
:10420000208BADF81800A08BADF81A00A86804F058
:104210004CFA05A803F07AF90EE0206801F088FF57
:10422000039030F85A1F41F00C01018003A801F0FF
:10423000E9FF206814F0DEFF00206AE6FC0400209D
:1042400038B505004FF000040FD003F027FB2846D7
:1042500001F06EFF009090F87C00000700D501246B
:10426000684601F0CFFF04F0F9FE204638BD38B5AE
:1042700005004FF0000411D003F010FB284601F0B8
:1042800057FF0090C06D0021806802682846904763
:104290000446684601F0B6FF04F0E0FE204638BD53
:1042A00030B587B005004FF0000413D003F0F6FAE4
:1042B00001A9284600F017F9284601F039FF0090BF
:1042C000B0F95440684601F09DFF0CB9BDF90440B7
:1042D00004F0C4FE07B0204630BD70B50D460400A2
:1042E00009D003F0DBFA294620461EF0B7FFBDE8EF
:1042F000704004F0B3BE70BD074A0649054B11601B
:10430000064A083BD16958601B68C2E90630084676
:1043100070470000F0040020BC040020C00400200E
:104320002DE9FC410D46804603F0B8FA5FEA08002B
:1043300028D001F0FDFE0190C16D8C6800F03AF9C3
:1043400007460198456301A801F05CFF226801213E
:10435000404690470646226803214046904705465E
:1043600022680021404690470446404600F007FA84
:104370002B46324639464046009400F090F94046BC
:1043800014F024FC04F06AFEBDE8FC817CB50D4607
:1043900004001DD003F082FA204601F0C9FE00900F
:1043A000006F0190684601F02DFF294601A805F035
:1043B0002BFE58B1204601F0BBFE00900199016729
:1043C000684601F01FFF204614F000FC04F046FE92
:1043D0007CBD38B50C46050013D003F05FFA2846C3
:1043E00001F0A6FE0090B0F95A10A14204D0A0F846
:1043F0005A40284614F0EAFB684601F003FF04F037
:104400002DFE38BD38B50C46050015D003F046FA30
:10441000284601F08DFE0022CDF8000000EB82015D
:10442000521C0C64022AF9D3684601F0EBFE2846C0
:1044300014F0CCFB04F012FE38BD2DE9FC470C460D
:104440005FEA00094DD003F029FA484601F070FEFA
:104450000090428E114614B141F0200501E021F098
:104460002005AA4238D04586484600F088F9009ECB
:10447000F4691FE0204601F05BFE0190076AB0F985
:104480000200B6F90210A0EB010801A801F0BAFE83
:10449000B6F9561041450CD1B06EA04209D096F83D
:1044A00032008006204602D514F024FF01E014F00B
:1044B000C9FA3C46002CDDD1009890F87C004006FB
:1044C00007D5A806484602D514F014FF01E014F001
:1044D000B9FA484614F07AFB684601F093FE04F0FE
:1044E000BDFDBDE8FC872DE9F34F85B000270C46E4
:1044F000B846059801F01CFE0090C06D012185684A
:1045000005982A68904782462A68032105989047B3
:1045100004902A6802210598904703902A68002198
:10452000059890470646009815F058F8834600987D
:1045300015F05BF88146009890F83210890601D595
:10454000B0F9588000F036F805460098C06E10B1FA
:1045500014F085F8074625806780A4F804A0049A23
:10456000ABEB020006EB0802401E2A4420813A44CD
:10457000E280039BA9EB0302521E6281A4F80CA007
:1045800020827019E681401E6082684601F03AFE82
:10459000B4F90C000190B4F91000029002AA01A92C
:1045A000059800F039F80198A0810298208207B0A0
:1045B000BDE8F08F10B50146002091F83220920638
:1045C00007D5B1F95400002803D1486B03F0EFF888
:1045D000801C10BD70B58AB00C46054601F0A8FDE0
:1045E0000990C06D866809A801F00CFE009534B1F1
:1045F000012C06D0022C0BD0032C04D10AE0182089
:1046000000E0162001907168684688470AB070BDC6
:104610001520F7E71720F5E72DE9FC4117468846F6
:10462000044601F085FD0090C16D056868468E68FE
:1046300001F0E8FD326800212046904706462046FA
:1046400013F0A3FE27E000BF01F072FD0190B0F966
:1046500000102AB2B0F90430891A9A1AB0F902305F
:10466000A3EB2543B34210D190F82800000605D5EE
:104670003868884209DB491E396006E0D8F8000036
:10468000904202DC521CC8F8002001A801F0BAFDDB
:10469000204613F01FFF0400D6D1BDE8FC812DE9B0
:1046A000FF4F83B00E460746DDF8409001F040FD15
:1046B0000190C16D8D68FFF77DFF044601A801F0F0
:1046C000A1FD2A6801213846904783462A680321C4
:1046D0003846904782462A6800213846904705466A
:1046E000B44207D105998B4504D106998A4501D179
:1046F0004D4541D0A41B0026B046384613F045FE78
:1047000038E001F015FD0090806A010601D58005B2
:1047100002E0810528D50006002825DB24B12246C9
:104720001146384614F04FFB009890F82800000618
:104730000AD50698A5EB0902A0EB0A0004FB1601B6
:104740003846761C14F0F3FA0098008D80050BD5DE
:104750000599A5EB0902ABEB010004FB080108F188
:104760000108384614F0E3FA684601F04BFD38467C
:1047700013F0B0FE0700C4D107B0BDE8F08F70B5EC
:1047800086B0064601F0D4FC0590D0E91A4505A88C
:1047900001F038FD54EA050026D069463046FFF79F
:1047A000A2FEACB1BDF90620BDF90410204614F0FC
:1047B00091FABDF90A00BDF90610421ABDF90800C8
:1047C000BDF90410521C411A2046491C14F05EFD2C
:1047D000002D09D0BDF90600BDF90210421ABDF93D
:1047E0000410284614F076FA06B070BD2DE9F043A7
:1047F0000446406889B0054613F08AFE814601F000
:1048000097FC0290D0F84880D0F88070466E02A8DD
:1048100001F0F8FC2068172853D008DC0E283AD0A5
:104820000F2811D014284CD015283DD149E01E285E
:104830001ED01F282AD0222840D0312834D1002071
:10484000E06009B0BDE8F0836FF0704140468845F4
:1048500003D008F09FFE01F0E1FF002EF1D0D4E973
:1048600002122068CDE90405CDE9061204A81FE074
:10487000E0680028E5D02FB1AF4203D0384614F0ED
:1048800033FCDEE7284614F083FCDAE7214648468D
:1048900013F0D2F8D5E7E0684168002904DD00682C
:1048A0000928EFD00A2805D05EB12046C4F804904C
:1048B000B047C6E7284614F07AFCC2E7C4F80C807B
:1048C000BFE7204613F0ECFBBBE7000070B53648AD
:1048D00088B00024016841F080010160016801F0A6
:1048E00080010691016841F480710160006801A9AE
:1048F00000F4807006908020012581E831000320BB
:1049000004902A4805F0E2FE2802CDE9010501A93C
:10491000274805F0DBFEFEF78DF8264EC6F8A042CC
:10492000142006F5287621F055F83560322021F064
:1049300051F88DF8004001226946002000F00AF984
:1049400001226946A42000F005F916208DF8000028
:1049500001226946802000F0FDF80C208DF800004F
:1049600001226946882000F0F5F802226946A1205C
:1049700000F028F89DF80000302803D19DF80110C0
:10498000032908D09DF80110012904D0022902D082
:10499000012008B070BDC9B201EB002106A0FBF7F1
:1049A0002DFD0020F5E7000030380240001C0240D9
:1049B00000200240000044424354502049443A251C
:1049C000780D0A002DE9F04115460F460446FEF722
:1049D000FDF87020FEF7C4F8FEF744F9E0B2FEF7E8
:1049E000BFF8FEF73FF9FEF7F1F87120FEF7B8F8CF
:1049F000FEF738F900246E1E09E0B44201D0012010
:104A000000E00020FEF770F83855641CE4B2AC42B8
:104A1000F3D3BDE8F041FEF7FFB800002DE9F14304
:104A2000484F00244FF00A09387882B0401CC0B2C9
:104A3000B0FBF9F209FB1201434DA046387009B1F1
:104A40000A2864D2012202A90220FFF7BBFF9DF8C9
:104A5000080001075BD000F00F00062857D2FF21A5
:104A60008140C84340F0C00085F820004FF00108A5
:104A7000002695F8201008FA04F001423AD0334895
:104A80000422694630F81400FFF79CFF95F83000C7
:104A90009DF80010C0079DF8010001F00F010ED035
:104AA00000EB012105EB4400C1829DF802209DF836
:104AB000031002F00F0201EB0221818110E000EBF4
:104AC000012023490988091A05EB440081819DF8DA
:104AD00002209DF8031002F00F0201EB0221C182B7
:104AE0009DF800000821B1EB101F03D005EB440036
:104AF000C6828681641CE4B2052CBAD3A9894FF022
:104B0000010819B9E88A08B98DF808603E709DF867
:104B10000800C0060ED195F82000010602D520F04D
:104B2000800005E04FF6FF71A981E98200F0E00006
:104B300085F820003878F02801D987F800904046A1
:104B4000BDE8FE83440000204C0000208EB902081E
:104B5000C82A00202DE9F04115460E4604460027DC
:104B6000FEF734F87020FDF7FBFFFEF77BF8E0B2AC
:104B7000FDF7F6FFFEF776F8002408E0305DFDF75C
:104B8000EFFFFEF76FF8070003D1641CE4B2AC42FC
:104B9000F4D3FEF741F83846BDE8F0812DE9F04343
:104BA0000446C56887B090468946002003F08EFD14
:104BB000064625B1287910B146F0020001E026F042
:104BC000020003F083FD2069012558B1D4E90212E7
:104BD0008DE826000395638822880468414648468C
:104BE000A0471EE0124F134B214638681B68427CD9
:104BF000E068984730B9E088012801D0002001E042
:104C00003868806BA288E388A1680095CDE904101C
:104C1000CDE902320195638822884146484607F073
:104C200093FD07B03046BDE8F04303F04FBD0000F0
:104C3000440200203C0200201CB50024019401AC79
:104C4000009400F0E7F81CBD2DE9FF4F83B08146CA
:104C500006988A46A0EB0A08109E00200090A2EB5E
:104C600009043568934654EA080018D02046FDF739
:104C700056FA07464046FDF752FA87420BDA2046BD
:104C8000444680464846D14682465846DDF818B02C
:104C9000069001200090002C07DD204606E007B0BA
:104CA0004846BDE8F04F00F03BB96042A0420AD050
:104CB0004846D9466442C8F1000883464FF0FF37A2
:104CC000DDF818A000E001275148B8F1000F11D01D
:104CD00004EBD4714FEA610B01DACBF1000B4C48C5
:104CE0000068807E88B3002F02DA3068204430608C
:104CF00000257BE000990029016821D0897E11B14F
:104D00000027804615E007B05A4649465046BDE8A0
:104D1000F04F07F0DFBE28466D1C1EF089FB38B946
:104D2000D8F8000009EB0701406E426850469047F2
:104D30007F1CA742EFDD6D1E356007B0BDE8F08F28
:104D40008A7E1AB10027804617E019E0486E5A465D
:104D50005146036807B04846BDE8F04F184728465B
:104D60006D1C1EF065FB38B9D8F8001009EB070080
:104D7000496E4A68514690477F1CA742EFDDDAE74B
:104D800000250FE008FB05B090FBF4F101EB0A00F1
:104D9000009951B11E4A09EB05011268526E526822
:104DA00090476D1CA542EDDDC7E7194909EB0503E6
:104DB0000968496E4A6801461846F1E708FB05B0E4
:104DC00090FBF4F101EB0A00019030683844306048
:104DD0001EF02EFB48B9009890B10D4809EB050173
:104DE0000068406E4268019890476D1CA542E5DD61
:104DF0003068002F01DA20443060C01B30609CE72F
:104E0000034909EB05000968496E4A680199EBE717
:104E1000440200202DE9FF470F46404916468046D0
:104E200009680C981D460A7E012A1CD0A8EB0600D2
:104E3000791B50EA01031CD0A2F101091FF08EFF7B
:104E400000F58060824605F0CEF900FB09F450467B
:104E500005F0CEF900FB09F1002C0CDAC4F5007066
:104E6000801240420AE00090324639464046FFF741
:104E7000EBFEBDE8FF8704F50074A012002904DAF8
:104E8000C1F5007189124C4202E001F500718C12EB
:104E9000002804DD411C01EBD171491003E000EB57
:104EA000D0714910401E00EBD0704210002C04DD80
:104EB000601C00EBD070401003E004EBD470401095
:104EC000641E04EBD47308EB0104ADF800403C18F9
:104ED000ADF80240A8EB02045B10B21AADF8044032
:104EE000ADF808203144FC1AEA1AADF80C10284439
:104EF000ADF80A20ADF80E000023ADF806401A46C2
:104F00000421684600F07AF83946404619F0CCF999
:104F10002946304619F0C8F9ABE7000044020020EA
:104F2000064A13681A7E012A05D0521E02EBD2727D
:104F3000521000F005B85A6E526810474402002023
:104F40002DE9F05F0646884640F2C32002FB00F1DF
:104F50004FF47A7091FBF0F702FB02F102EBD27092
:104F600001EB600B1446B118234A301B7F1C1268FA
:104F7000526E13680A4641469847012538E000BF43
:104F800005FB05F004FB040159451CDDBC4219DD9D
:104F9000194B06EB050AA6EB05091B68AAF10102ED
:104FA00008EB04015B6E09F101001B689847124B86
:104FB000AAF10102A8EB04011B6809F101005B6E74
:104FC0001B689847641E0C4B3219301B1B689246B5
:104FD00008EB05015B6E81461B689847064B5246FD
:104FE000A8EB05011B6848465B6E1B6898476D1C63
:104FF000BD42C5DDBDE8F09F440200202DE9FF4F12
:1050000043F6FF740F46664283B09B4681460021FB
:105010000BE000BF09EB8100B0F90200A04200DA0A
:105020000446B04200DD0646491CB942F2DB67483F
:105030000068406900280DD0B0F906101A46A1EBAF
:105040000B01B14200DA0E46B0F90200801AA0420C
:1050500000DD0446B4E0DFF878A100200546CAF878
:10506000000088E0781E854201DA6B1C00E0002316
:1050700009EB850C09EB8302BCF90200B2F90210BE
:10508000A04244D1A14215D139F92330059A39F90A
:10509000251003EB020C4D4A05981268084404EBF6
:1050A0000B01526E6045136801DA62462AE002463F
:1050B000604627E02846A4464FF000087A1E0BE021
:1050C00008B1401E00E0781E09EB8003B3F90230FE
:1050D000634504D108F101089045F1DB2346A34262
:1050E00048D01A1B39F92500A1EB040C059B92EA64
:1050F0000C0F09D4354A184404EB0B011268526EA8
:1051000013680246984735E014F0DAFE32E0A14217
:1051100030D001DBA04203DDA0422BDBA14229DC21
:10512000E04688420ADC0346A04223DC0846A1424E
:1051300020DBB8F900C0B2F9001008E00B46A1422C
:1051400018DCA04216DBB2F900C0B8F90010E21A70
:10515000A1EB0C0151430029A0EB030202DD01EB9E
:10516000620102E0A1EB6201491CC01A91FBF0F060
:105170006044C9E76D1CBD42FFF674AF059800900E
:1051800004EB0B00019000208046054613E0114916
:10519000B8F1000F31F915A009D0009901EB0A020E
:1051A00008440A490968496E0B680199984788F0D4
:1051B000010850466D1C064909688D42E7DB641CF6
:1051C000B4427FF748AF07B0BDE8F08F440200203B
:1051D000240D0020583C012010B5002003F05AFA9D
:1051E0006FF07F4003F061FA012003F0E7FA00203E
:1051F00003F0F2FA002003F0FFFA002003F066FA51
:105200000448006803F06EFABDE81040002003F087
:10521000A7BA00004002002033B583B004001BD0C1
:1052200002F03CFB204600F083FF0190456E01A890
:1052300000F0E8FF049800F07BFF0090846068466F
:1052400000F0E0FF042204A9284600F0FFFF2046FA
:1052500013F0BCFC03F002FF05B030BD33B583B0E2
:1052600004001BD002F01AFB204600F061FF019001
:10527000856E01A800F0C6FF049800F059FF009069
:105280008460684600F0BEFF042204A9284600F0AE
:10529000DDFF204613F09AFC03F0E0FE05B030BDC0
:1052A0002DE9F04104460025D4E90007B0F5407F20
:1052B00000D101252146384612F0BEFB064615B145
:1052C00038461BF0A1FD002E2FD02068052806D0FF
:1052D0000B280ED00F2806D0262821D10EE0384604
:1052E0001BF092FD1CE03846E168BDE8F0411CF07F
:1052F00065B83846BDE8F0411BF07EBFE068052880
:105300000ED1384613F036F9A168884205D03846E8
:1053100013F020F9A168884202D160681CF093FA6A
:105320002046BDE8F04112F0BBBEBDE8F081F0B50B
:1053300085B0B0F90850468A84690296CDE90354D5
:105340000027CDE90017B0F90C10B0F91050B0F9F2
:105350000E40B0F90A00194410442B46224600F0D2
:1053600003F805B0F0BD00002DE9F04F85B0984678
:10537000DDE90E5691468A468346109F129C02F044
:105380008DFA18486C34CDE90204CDE90056434645
:105390004A465146584612F0CBFD04001BD000F09F
:1053A00092FF054600F08FFF0646204600F0C0FE43
:1053B0000490C0E919560022119912F0FBFC0498E0
:1053C000302209493430FBF7F9FA0498A0F87870D4
:1053D00004A800F017FF03F041FE05B02046BDE829
:1053E000F08F0000A15200085405002013B582B0D0
:1053F000044602F053FA204600F09AFE009060B195
:10540000406A00F095FE01460190022303AA00982D
:1054100000F045F901A800F0F5FE684600F0F2FE44
:1054200003F01CFE1FBD00002DE9F04385B01D46B2
:1054300090460F46814602F031FA2C2000F085FD9F
:10544000060024D0780000F080FD04000ED0B8F1F2
:10545000000F0BD055B1204600F06AFE6A004146AD
:105460000090FBF724FA684600F0CCFE304600F0CE
:105470005FFE0A49029000F10C02446282E8A20237
:10548000074901600749416002A800F0BBFE03F034
:10549000E5FD05B03046BDE8F0830000F10B0208E1
:1054A00067150208891202082DE9F8439846154647
:1054B0000E46074602F0F2F9302000F046FD0400E7
:1054C00015D000F035FE0090C0E9057685840A4AC3
:1054D000B7EE000AC0F81C8080ED0A0AD2E900127B
:1054E000C0E9031205490160684600F08BFE03F035
:1054F000B5FD2046BDE8F883840500203F1602086C
:1055000010B504002DED028B82B09FED118AF0EEF4
:10551000408A16D002F0C2F9204600F009FE009041
:1055200090ED0A8AB4EE688AF1EE10FA04D0C0ED6C
:105530000A8A806813F04AFB684600F063FE03F0B5
:105540008DFD02B0B0EE480ABDEC028B10BD00002C
:1055500000000000F8B50D4606004FF0000411D021
:1055600002F09CF9304600F0E3FD0090046AAC4282
:1055700003D00562806813F029FB684600F042FE04
:1055800003F06CFD2046F8BDF8B50D4606004FF05F
:10559000000411D002F082F9304600F0C9FD0090FD
:1055A000C468AC4203D0C560806813F00FFB684646
:1055B00000F028FE03F052FD2046F8BD2DE9F84327
:1055C0001D46DDF8208016460F46040015D002F077
:1055D00065F9204600F0ACFD0090C0F8608047659A
:1055E000C0E91665684600F00DFE20461BF00CFC75
:1055F000204613F0EBFA03F031FDBDE8F883F8B56F
:105600000D4606004FF0000411D002F047F9304675
:1056100000F08EFD0090446CAC4203D045643046EF
:1056200013F0D4FA684600F0EDFD03F017FD2046B4
:10563000F8BDF8B50D4606004FF0000411D002F099
:105640002DF9304600F074FD0090846CAC4203D01C
:105650008564304613F0BAFA684600F0D3FD03F0D3
:10566000FDFC2046F8BDF8B50D4606004FF00004DD
:1056700013D002F013F9304600F05AFD009090F874
:105680006C40AC4204D080F86C50304613F09EFA67
:10569000684600F0B7FD03F0E1FC2046F8BD2DE9B7
:1056A000F041044680681D4617460E46002826D065
:1056B000D4E9040290420ED1521E6A437119304659
:1056C000FBF73AF920692A46401E05FB006039467F
:1056D000FBF732F90EE005FB0013401C20612A465F
:1056E00039461846FBF728F9E16819B12046BDE8AC
:1056F000F0410847A068BDE8F04100F002B8BDE8FD
:10570000F08110B58AB0044600F012FD09A904AA80
:10571000CDE9002105AB089006AA07A91AF0F9FE09
:1057200008A800F06FFD02A9204612F081FEBDF826
:10573000080007990844ADF80800BDF80A0006996A
:105740000844ADF80A00BDF80C000599401AADF800
:105750000C00BDF80E000499401AADF80E0002A925
:10576000204613F0F3F90AB010BD00002DE9F04314
:105770003F4889B00024016841F080010160016860
:1057800001F080010791016841F4807101600068B7
:10579000802600F48070079001AA01250327009657
:1057A000DFF8D09082E8B0006946484604F08EFFEA
:1057B0002802CDE9000569462F4804F087FFFDF770
:1057C00039F9DFF8B880C8F8A0420A2020F002F9C1
:1057D000C8F8A0520A2020F0FDF8CDE90064CDE918
:1057E00002476946484604F071FF642020F0F2F851
:1057F000042205A948F2401000F058F88DF818402E
:1058000005A91FA0FAF7FAFD20A105A8FBF75AF990
:1058100018B1012009B0BDE8F08302208DF8140012
:1058200048F24005012205A9284600F083F901222B
:1058300005A9E81D00F03AF89DF8141060290BD274
:1058400014A0FAF7DBFD18488088A0F5AA411039AA
:1058500002D1012000F048F90A2020F0BBF88DF8B1
:105860001440012205A9284600F064F90020D1E780
:1058700030380240001C0240002002400000444238
:105880004354502049443A25730D0A0039313437C6
:105890000000000044656661756C74205665723ABC
:1058A00025640D0A00000000C82A00202DE9F041FF
:1058B00015460F460446FDF789F92820FDF750F9F3
:1058C000FDF7D0F9200AFDF74BF9FDF7CBF9E0B26F
:1058D000FDF746F9FDF7C6F9FDF778F92920FDF740
:1058E0003FF9FDF7BFF900246E1E09E0B44201D074
:1058F000012000E00020FDF7F7F83855641CE4B201
:10590000AC42F3D3BDE8F041FDF786B92DE9F14F84
:10591000714E00244FF00A0B307882B0401CC0B2A8
:10592000B0FBFBF20BFB12016C4DA146307009B1CC
:105930000A287BD248F24E17012202A93846FFF707
:10594000B5FF9DF808004FF0000801060AD500F0E9
:105950000F00062806D28DF80480012201A93846DE
:1059600000F0E8F89DF8080001075FD000F00F0193
:1059700006295BD2FF2088408DF80400C04395F8CB
:1059800020A040F0C00085F82000A889A882E88AFD
:10599000534FE8834FF0010995F8201009FA04F0FD
:1059A000014256D04F480422694630F81400FFF7F0
:1059B0007DFFB888A0F5AA41103904D0A0F5864132
:1059C00042391FD045E095F830009DF80110C0071E
:1059D0009DF8000000EB012105EB440009D0C182D5
:1059E0009DF802109DF8032001EB0221C1F54871DA
:1059F0002EE081819DF802109DF8032001EB022129
:105A0000C18226E095F83000C00710D09DF8020052
:105A10009DF8031000EB012105EB4400C1829DF8C5
:105A200000109DF8012001EB022111E02CE09DF80F
:105A300000009DF8011000EB012105EB4400C1823C
:105A40009DF802109DF8032001EB0221C1F5887139
:105A50008181641CE4B2052C9ED3A9893A884FF059
:105A600001092846914203D8C18A7A88914209D90E
:105A70009DF8081001F00F0101290CD9C18981811D
:105A8000018BE98286F800809DF8080000F08F0005
:105A900080280AD018E0818A8181C18BC18280214F
:105AA0008DF8081085F820A0EEE795F82000010693
:105AB00002D520F0800005E04FF6FF71A981E98250
:105AC00000F0E00085F820003078F02801D986F851
:105AD00000B04846BDE8FE8F450000204C00002085
