:020000040800F2
:10000000281500205102000867180008631800082E
:10001000651800087106000885210008000000002E
:10002000000000000000000000000000E91A0008C5
:10003000210700080000000015060008711B0008D9
:100040008B0200088B0200088B0200088B0200085C
:100050008B0200088B0200088B0200088B0200084C
:100060008B0200088B0200088B0200088B0200083C
:100070008B0200088B0200088B0200088B0200082C
:100080008B0200088B0200088B0200088B0200081C
:100090008B0200088B0200088B0200088B0200080C
:1000A0008B0200088B0200088B0200088B020008FC
:1000B0008B020008E91B00088B0200088B02000875
:1000C0008B0200088B0200088B0200088B020008DC
:1000D0008B020008652000088B020008152100082B
:1000E0008B0200088B0200088B0200088B020008BC
:1000F0008B0200088B0200088B0200088B020008AC
:100100008B0200088B0200088B0200088B0200089B
:100110008B0200088B0200088B020008011C0008FB
:100120008B0200088B0200088B0200088B0200087B
:100130008B0200088B0200088B0200088B0200086B
:100140008B0200088B0200088B0200088B0200085B
:100150008B0200088B0200088B0200088B0200084B
:100160008B0200088B0200088B0200088B0200083B
:100170008B0200088B0200088B02000800000000C0
:100180008B0200088B0200088B0200088B0200081B
:100190008B0200088B0200088B0200088B0200080B
:1001A0008B0200088B0200088B02000800F002F8A6
:1001B00000F03EF80AA090E8000C82448344AAF1C3
:1001C0000107DA4501D100F033F8AFF2090EBAE8C1
:1001D0000F0013F0010F18BFFB1A43F0010318477B
:1001E0009C210000BC210000103A24BF78C878C1CF
:1001F000FAD8520724BF30C830C144BF04680C602D
:10020000704700000023002400250026103A28BF74
:1002100078C1FBD8520728BF30C148BF0B60704778
:10022000002070471FB502F08FF81FBD10B510BD3C
:1002300000F064F91146FFF7F5FF01F0DDFF00F073
:1002400082F903B4FFF7F2FF03BC01F0A3FF000043
:1002500011488047DFF84400016841F470010160F3
:10026000BFF34F8FDFF83800016821F04041016093
:10027000BFF36F8F0B480047FEE7FEE7FEE7FEE7A0
:10028000FEE7FEE7FEE7FEE7FEE7FEE70648074972
:10029000074A084B70470000951B000888ED00E0F6
:1002A00034EF00E0AD0100082809002028150020E7
:1002B000280B0020280B002072B6704762B67047EA
:1002C000EFF3108072B6704780F31088704730BF2C
:1002D000704720BF7047B0FA80F0704790FAA0F0E6
:1002E000B0FA80F0704790FAA0F0704770470000B5
:1002F0000FB4044910B503AA029800F0E5F810BC49
:100300005DF814FB240000202DE9F05F89460446C7
:100310004FF0000ADFF874B1FB44C0F820A020467B
:10032000E1688847002874D0252806D0D4E9012147
:100330009047206A401C2062F1E700265F46204675
:10034000E16888472028054607DB312D05D278195A
:1003500010F8200C08B10643F1E7B00701D526F0EC
:100360000406C4F81CA00027C4F818A02A2D09D040
:10037000284601F008FF38B304EB8708303DC8F881
:10038000185019E059F8041B204604EB87029161CC
:10039000E1688847012F054618D1E069002820DA76
:1003A00026F020061DE0D8F8180000EB800005EBD1
:1003B00040003038C8F818002046E16888470546F4
:1003C00001F0E1FE0028EED1012F0AD02E2D08D138
:1003D0002046E16888477F1C0546022F46F020062C
:1003E000C4DBA069002803DA404246F00106A061A0
:1003F000F00701D026F010066C2D0BD0682D09D027
:100400004C2D39D06A2D35D0742D35D07A2D33D07E
:1004100016E038E0E1682F4620468847B842054696
:1004200009D16C2F26D04FF48060E1680643204646
:100430008847054604E06C2F1AD04FF480700643BD
:100440000DB3A5F14100192802D8203546F4006605
:100450004A462946204626604E46FFF7E1FE80B117
:1004600001280BD0F61D26F0070000F1080956E719
:100470004020E4E78020D8E70020D6E706F1040911
:100480004DE7284652E7206ABDE8F09F4C20000067
:10049000704770477047704701694A1C02610878CD
:1004A000704700B58FB0CDE90131002105910549B4
:1004B0007944CDE9031011466846FFF725FF0FB0D8
:1004C00000BD0000E5FFFFFF074B70B50D467B4404
:1004D000FFF7E7FF0446284600F008F810B14FF098
:1004E000FF3070BD204670BD131D0000007B00F082
:1004F0008000704700487047C80800207546FFF725
:10050000F9FFAE4605006946534620F007008546D0
:1005100018B020B5FFF7BAFEBDE820404FF0000646
:100520004FF000074FF000084FF0000B21F00701DB
:10053000AC46ACE8C009ACE8C009ACE8C009ACE81E
:10054000C0098D46704710B50446AFF300802046C1
:10055000BDE81040FFF775BEEFF3098141B1F1EE40
:10056000101A40F8041D20ED200A3E490A68106068
:100570007047B0EC200A02C8E1EE101A3A490A6846
:100580001060704772B64EF62250CEF2000040F274
:10059000FF01C0F2000101704FF0000080F30988F4
:1005A00001F0C4F940F27C00C2F20000016881F35E
:1005B000088840F26A00C2F2000040F26B01C2F209
:1005C00000010A78027040F27405C2F2000540F2A0
:1005D0007801C2F200010A682A60106880F3098875
:1005E000EFF3148040F0020080F31488BFF36F8FA4
:1005F000BDE8F00F0FBCBDE8005006BC62B608476E
:100600001A484FF080510160704718484FF08051F0
:100610000160704772B6EFF3098020E9F00F40F2F5
:100620007405C2F200052E683060744601F07EF950
:1006300040F26A00C2F2000040F26B01C2F2000117
:100640000A78027040F27801C2F200010A682A605A
:1006500044F0F40E1068B0E8F00F80F3098862B639
:1006600070470000740000207800002004ED00E0D6
:10067000FEE7000003490969884201D9401A704722
:10068000002070473000002010B5FFF719FE044924
:100690004C69FFF719FE2046BDE81040FFF7EABF9E
:1006A0003000002010B5FFF7EFFF0446FFF708FE0B
:1006B000034A00215161FFF707FE204610BD0000EC
:1006C0003000002010B5064C2088401C2080608837
:1006D00010B900F01FF8A0606088401C608010BD59
:1006E0003000002010B50A4C6088401E0004000C49
:1006F00060800CD100F00EF8E060A168401A6169DA
:10070000814200D26061A169814200D2A06110BD26
:10071000300000200148406870470000001000E0F1
:10072000704700001FB56946009001200190072026
:10073000029000200390084800F010F8064800F0EE
:10074000F1F80A21044800F0B6F8034800F0B0F8C8
:1007500004B080B210BD00000002002078B5002473
:10076000009490F83C20012A19D0012280F83C2006
:100770000A6807250368092A13D9DE680A3A02EBDA
:1007800042029540AE43DE600A788B680A3A02EB7B
:10079000420293400268D5682B43D36010E00220E8
:1007A00078BD1E6902EB42029540AE431E610A7895
:1007B0008B6802EB42029340026815692B43136178
:1007C0004A681F25072A13D203685E6B521E02EB8C
:1007D00082029540AE435E630A8893B20A79521E44
:1007E00002EB820293400268556B2B43536327E070
:1007F00003680D2A12D21E6BD21F02EB82029540B3
:10080000AE431E630A8893B20A79D21F02EB8202BA
:1008100093400268156B2B43136311E0DE6A0D3AB7
:1008200002EB82029540AE43DE620A8893B20A79F7
:100830000D3A02EB820293400268D56A2B43D362E1
:10084000174B02689A4208D10A68122A05D1D3F8D8
:10085000042342F48002C3F8042302689A421BD1A5
:10086000104D0A68AA4201D0112A15D1D3F80423E9
:1008700042F40002C3F804230968A9420CD10A49D2
:100880000A4A0968B1FBF2F101EB8101490000E07D
:10089000491E00910029FBD180F83C40002078BD22
:1008A00000200140120000100000002040420F0014
:1008B0000068C06C70472DE9F041044600680D46A1
:1008C00081684FF0000749050AD58068C00507D543
:1008D000042084F83D0084F83C700120BDE8F081DC
:1008E00000F052F906460DE0681C0BD025B100F06F
:1008F0004BF9801BA84205D9032084F83D0084F8F9
:100900003C70EBE7206800688007EDD594F83D0067
:10091000252804D0152084F83D000020DEE735208E
:10092000F9E7000008B50022009290F83C10012978
:100930000ED0012180F83C1090F83D10222909D0FA
:10094000122180F83D1001688B68DB0704D013E0AA
:10095000022008BD3221F4E78B6843F001038B606D
:100960000F49104B0968B1FBF3F101EB410100E0C5
:10097000491E00910029FBD10B4980F83C20D1F899
:1009800004230068D20601D0884207D1816811F0A3
:10099000405F03D1816841F080418160002008BD43
:1009A0000000002040420F00002001402DE9F84FD8
:1009B000DFF8A091002209F1040A0AF1040B4FF0BC
:1009C0000F080BF1040E01260B6896403340B3422A
:1009D00071D14C68022C01D0122C11D1D40800EB3B
:1009E00084073D6A5407E40E08FA04FC25EA0C0566
:1009F000D1F810C00CFA04FC4CEA050CC7F820C072
:100A000007685400032591F804C0A5400CF0030CBE
:100A1000AF430CFA04FC4CEA070CC0F800C04F6866
:100A2000012F05D0022F03D0112F01D0122F11D189
:100A30008768D1F80CC0AF430CFA04FC4CEA070CF1
:100A4000C0F808C04768B7430E79C6F30016964051
:100A50003E434660C668AE438D68A5403543C560D9
:100A60004C68E4006FD53C4C256845F48045256012
:100A7000246822F0030504F480440094374C2E19B6
:100A8000D6F808789407250F08FA05F4A743344CE4
:100A9000A04201D100242EE0324CA04201D1012419
:100AA00029E0314CA04201D1022424E02F4CA04285
:100AB00002D103241FE046E02D4CA04201D10424C2
:100AC00019E02C4CA04201D1052414E02A4CA0428C
:100AD00001D106240FE0294CA04201D107240AE0ED
:100AE000274CA04201D1082405E0264CA04201D1A8
:100AF000092400E00A24AC403C43C6F80848D9F871
:100B000000404D464E689C43F60300D51C432C60C4
:100B1000DAF8004055464E689C43B60300D51C43A6
:100B20002C60DBF800405D464E689C43F60200D521
:100B30001C432C60DEF8004075464E689C43B602AC
:100B400000D51C432C60521C102AFFF43CAFBDE8BA
:100B5000F88F0000003C0140443802400030014062
:100B6000000002400004024000080240000C024065
:100B7000001002400014024000180240001C024015
:100B80000020024000240240014800687047000035
:100B90001400002002480168491C016070470000F1
:100BA000140000200B4810B5016841F40071016089
:100BB000016841F480610160016841F48071016065
:100BC000052000F049F80F2000F006F800F015F8B5
:100BD000002010BD003C024010B5044600F096F91C
:100BE0004FF47A71B0FBF1F000F0AAFB002221462D
:100BF000501E00F011F8002010BD08B50020009034
:100C000008BD00F01F02012191404009800000F161
:100C1000E020C0F800117047F0B40E4B1B68C3F31E
:100C20000223C3F10704042C00D904241D1D072D41
:100C300001D2002300E0DB1E012606FA04F56D1E3A
:100C40000D409D409E40761E164045EA0601F0BCD0
:100C500000F00ABE0CED00E0064A00F00701106843
:100C60004FF6FF03184040EA012003490843106093
:100C7000704700000CED00E00000FA052DE9F84394
:100C80001D48016841F0805101600068012700F0B3
:100C900080500090380490FAA0F0DFF86080B0FA3D
:100CA00080F048F82070FFF76FFF04464FF47A7524
:100CB000134E04E0FFF768FF001BA84213D87068CA
:100CC000C003F7D54FF4003090FAA0F0B0FA80F0EE
:100CD00048F82070FFF758FF044607E0FFF754FF7D
:100CE000001BA84202D90320BDE8F8837068800386
:100CF000F4D50020F8E700004038024000000E4222
:100D0000007000402DE9F05FDFF8F8A104460F46BF
:100D1000DAF80000DFF8F08100F00F02C8B27A497B
:100D2000814641F2883608F10808BA4261D202468B
:100D30008AF80020DAF8000000F00F00B8427DD1F8
:100D40002078800707D5D8F80020A36822F0F002A9
:100D50001A43C8F800202078C0072DD06068012809
:100D60001AD002281BD0032819D009688907002946
:100D700064DAD8F80010474621F003010143C8F8AF
:100D80000010FFF701FF0546606801280FD0022818
:100D900018D003281CD027E009688903E7E7096811
:100DA0008901E4E7FFF7F0FE401BB04258D83868ED
:100DB000C0F381000128F5D188E0FFF7E5FE401B74
:100DC000B0424DD83868C0F381000228F5D17DE0EB
:100DD0003868FFF7D9FE401BB042F9D940E0FFF771
:100DE000D3FE401BB0423BD8386810F00C0FF6D150
:100DF0006CE02078800707D5D8F80020A36822F09F
:100E0000F0021A43C8F800202078C0074CD0606870
:100E1000012828D0022829D0032827D0096889076B
:100E2000002949DAD8F8002022F003020243C8F86A
:100E30000020FFF7A9FE0546606800E03CE00128BD
:100E40001DD0022829D0032838D0B3464646306842
:100E500010F00C0F28D0FFF797FE411B5945F6D92B
:100E60000320BDE8F09F09688903D9E70968890173
:100E7000D6E7FFF789FE411B594502D9F0E7B34693
:100E800046463068C0F381000128F2D10CE0FFF73C
:100E90007BFE411B594502D9E2E7B346464630681E
:100EA000C0F381000228F2D18AF80090DAF800003D
:100EB00000F00F00B84209D00120D2E74446206874
:100EC000FFF762FE401BB042F9D9C9E7207840071E
:100ED00007D5D8F80010E26821F4E0511143C8F8B2
:100EE00000102078000708D5D8F80010226921F4F6
:100EF000604141EAC201C8F800100F20FFF76CFE04
:100F00000020AEE7003C02400038024010B500F07F
:100F100043F808490968F02292FAA2F201F0F001C0
:100F2000B2FA82F2D140044A515CC84003490860D9
:100F300010BD0000083802405223000800000020C5
:100F400010B5FFF7E3FF074909684FF4E05292FA42
:100F5000A2F201F4E051B2FA82F2D140024A515CAD
:100F6000C84010BD083802405223000810B5FFF7F2
:100F7000CDFF074909684FF4604292FAA2F201F4EA
:100F80006041B2FA82F2D140024A515CC84010BDC1
:100F9000083802405223000830B51948006810F0A4
:100FA0000C01184812D0184C04290ED008290DD174
:100FB000134A121F1168136801F03F015D0247F6E2
:100FC000C07304D5B4FBF1F003E0204630BDB0FBA4
:100FD000F1F01168194093FAA3F3B3FA83F3D940FF
:100FE000484311684FF4403292FAA2F201F44031C2
:100FF000B2FA82F2D140491C4900B0FBF1F030BD99
:10100000083802400024F40040787D012DE9F84FB3
:1010100004460078DFF8FCA2BF4DC0074FF0000681
:1010200048D0DAF800105046C1F38101012908D0F8
:101030000068C0F3810002280AD1281D0068400220
:1010400006D52868800335D56068002873D031E064
:10105000DFF8C49209F1020989F80060FFF794FDF6
:10106000074641F2883804E0FFF78EFDC11B414579
:101070007AD828688003F7D4207989F8000060685E
:1010800060B1FFF781FD074604E0FFF77DFDC11B5E
:101090004145EDD828688003F7D50BE0FFF774FDD4
:1010A000074604E0FFF770FDC11B4145E0D8286802
:1010B0008003F7D42078DFF86492800744D5DAF80B
:1010C0000010504611F00C0F4FF0F80809D00068DE
:1010D000C0F3810002280BD18E48001F0068400237
:1010E00006D42868800714D5E068012823D110E0D1
:1010F000E068D0B10120C9F80000FFF745FD0746C0
:1011000004E0FFF741FDC01B6428B1D828688007C0
:10111000F7D5286898FAA8F22169B2FA82F220F08D
:10112000F8009140084328600EE0C9F80060FFF71E
:101130002BFD074605E0EAE0FFF726FDC01B64280B
:1011400012D828688007F7D42078000725D5DFF863
:10115000C4817348616908F16C0881B101210160A3
:10116000FFF712FD074605E07EE0FFF70DFDC01B0F
:10117000642879D8D8F800008007F6D50DE006601D
:10118000FFF702FD074604E0FFF7FEFCC01B6428E2
:101190006AD8D8F800008007F6D42078400753D5E5
:1011A0005C483830016841F0805101600068DFF828
:1011B000748100F080500090D8F8001041F48071E4
:1011C000C8F80010FFF7E0FC074604E0FFF7DCFC7E
:1011D000C01B642848D8D8F80000C005F6D5DFF851
:1011E00034B10BF1680B8BF80060FFF7CDFC0746BC
:1011F00041F2883804E0FFF7C7FCC11B41457ED8A7
:10120000DBF800008007F6D4207A8BF80000A06895
:1012100068B1FFF7B9FC074604E0FFF7B5FCC11B56
:1012200041456CD8DBF800008007F6D50CE0FFF7ED
:10123000ABFC074604E0FFF7A7FCC11B41455ED8A5
:10124000DBF800008007F6D4A069E8B3DAF80010F4
:10125000C1F3810102295AD0022806D0C9F8606082
:10126000FFF792FC04464DE049E04F46C9F8606044
:10127000FFF78AFC064604E0FFF786FC801B642823
:101280003DD828688001F7D4D4E90701084347F620
:10129000C07191FAA1F1626AB1FA81F18A40A16A42
:1012A0004FF0FF3303EB51014FF4403393FAA3F3B4
:1012B000B3FA83F399400A4310434FF0706292FAF5
:1012C000A2F2B2FA82F200E01FE0E16A9140084324
:1012D0001049091F086001203866FFF755FC0446D5
:1012E00004E0FFF751FC001B642808D8286880013F
:1012F000F7D50AE0FFF748FC001B642802D9032059
:10130000BDE8F88F28688001F4D40020F8E70120B8
:10131000F6E700000838024000380240000047426B
:10132000800E4742007000404FF0E0210428086919
:1013300003D020F004000861704740F00400FAE791
:1013400010B5401EB0F1807F01D3012010BD4FF0D9
:10135000E02460610F21601700F086FA0020A06190
:1013600007202061002010BD7047704710B50400B1
:1013700003D094F8390010B107E0012010BD00201F
:1013800084F83800204600F00DF8022084F8390077
:10139000211D206800F07CFC012084F83900002029
:1013A00010BD00000D4808B5016841F00201016060
:1013B000016801F002010091016841F0040101603F
:1013C0000068032200F00400009001211D20FFF7B7
:1013D00023FCBDE808401D20FFF713BC4038024045
:1013E0000168CA6842F00102CA600068016841F001
:1013F0000101016000207047704770B50446006825
:1014000001694FF00005C943890715D4C168C94374
:10141000890711D4E91E01610120207620688069C6
:101420008007204602D0FFF7E7FF04E000F098F8BD
:10143000204600F096F8257620680169C9434907DF
:1014400017D4C168C943490713D46FF0040101617F
:10145000022020762068806910F4407F204602D068
:10146000FFF7CAFF04E000F07BF8204600F079F8AF
:10147000257620680169C943090716D4C168C943A4
:10148000090712D46FF0080101610420207620685A
:10149000C0698007204602D0FFF7AEFF04E000F0ED
:1014A0005FF8204600F05DF8257620680169C943A1
:1014B000C90617D4C168C943C90613D46FF0100117
:1014C0000161082020762068C06910F4407F204622
:1014D00002D0FFF791FF04E000F042F8204600F050
:1014E00040F8257620680169C943C90708D1C16859
:1014F000C943C90704D1891E0161204600F032F8B2
:1015000020680169C943090609D4C168C9430906AD
:1015100005D46FF0800101612046FFF725FF2068A8
:101520000169C943490609D4C168C943490605D4BC
:101530006FF040010161204600F044F82068016925
:10154000C94389060BD4C168C943890607D46FF023
:10155000200101612046BDE87040FFF706BF70BD65
:1015600070477047144910B5884223D1134C206846
:1015700000281FD0207900281CD10520FFF7D2F8C1
:1015800000EE100AD4ED090A0D49B8EE400A2368AE
:10159000086820EE200ABDEEC00A10EE102A43F8BB
:1015A0002020401C0860A268824203DA0020086004
:1015B0000120207110BD000088010020A00800203B
:1015C000280000207047704738B501680446086855
:1015D000CA68C0F3000002F4807238B132B1086802
:1015E00048680090E06B40F00100E06308684A69D9
:1015F000C0F3400002F0010238B132B10868486817
:101600000090E06B40F00400E06308684A69C0F3B2
:10161000800002F0010238B132B1086848680090D9
:10162000E06B40F00200E06308684A69C0F3C00064
:1016300002F0010238B132B1086848680090E06BEE
:1016400040F00800E0630868C968C0F3401001F08A
:10165000200118B111B1204600F07AFB2068016822
:10166000C068C1F3C01100F0800019B110B120466C
:1016700000F07CFC21680868CA68C0F3801002F0A2
:101680004002012568B162B1CA68204622F04002DA
:10169000CA6094F8391032290CD080F8395000F023
:1016A000DFF8E06B002804D084F839502046FFF7BB
:1016B0008AFF38BD222180F83910F0E770B50400A8
:1016C00004D094F83900002510B106E0012070BD67
:1016D00084F83850204600F021F8022084F83900C0
:1016E0002068C16821F40051C160204600F084FBED
:1016F0002068016921F4904101612068416921F06D
:101700002A0141612068C16841F40051C160E5636C
:10171000012084F83900002070BD000010B5044697
:101720000068194986B088422CD11849086840F0F1
:10173000020008600868154900F0020014310590A5
:10174000086840F0100008600868012100F01000EF
:101750000590C02000900220CDE9010103900720F0
:10176000049069460A48FFF721F92068C16841F0F2
:101770002001C1602520FFF744FA032211462520ED
:10178000FFF74AFA06B010BD0010014030380240A1
:10179000000402402DE9F047044690F839009946CC
:1017A0000D46012801D0122857D125B31AB394F859
:1017B0003800012851D0012684F838600027E763FB
:1017C00094F83900122819D0222084F83900A28513
:1017D000E2854FF48058E08D4B46401EE085A068BE
:1017E0004FF0000240454FF02001204616D100F096
:1017F000F0FBB0B904E00120BDE8F0873220E4E757
:10180000206900282068406803D0C1B225F8011B78
:1018100012E0C0F3080125F8021B0DE000F0D9FB2F
:1018200008B10320E8E7206900282068406801D05B
:1018300000F07F0005F8010BE08D0028CBD194F873
:101840003900322805D084F8396084F838700020D7
:10185000D2E7122084F83900F7E70220CCE770477E
:101860007047FEE7FEE770470907090E002806DA11
:1018700000F00F0000F1E02080F8141D704700F127
:10188000E02080F80014704705480078012805D151
:1018900004490878FA2801D2401C087070470000FB
:1018A0005D0000205C000020184810B50078012879
:1018B0002BD1FEF705FD16490446087800B3401EFB
:1018C00010F0FF0008701BD112480078C0B900F07A
:1018D000E9F811490870114900EB400051F8200067
:1018E0000F4908600F490968884209D050F88C1FD9
:1018F000491C01600C480168491C0160FEF785FE27
:101900002046BDE81040FEF7DFBC10BD5D000020A2
:101910005C0000206D0000206B000020A00500206E
:1019200078000020740000207000002070B5184C72
:10193000206890F84410490702D50068FEF70CFEB5
:10194000144D286890F84410490702D50068FEF746
:1019500010FE1148006800B18047FEF7DBFE2168E9
:101960002A68914207D0D1F89430C31A41F8903FC9
:101970008D682B448B60C2F89400FEF793FE2168BB
:10198000D1F8B020824201D2C1F8B00070BD000091
:1019900074000020780000205400002000B585B0BD
:1019A00000F01CF8FEF7B6FE04AA00210392009195
:1019B000CDE9011006480749002300781A4600EBDC
:1019C000400001EB8001044800F010F805B000BDB4
:1019D0006A000020A00500205449434B02480068DB
:1019E000002800D000477047580000202DE9F84F2C
:1019F0001D46DDE90CB4DDE90AA916460F4680460E
:101A0000FEF75EFC0090FEF75DFE1D491D4A08884A
:101A1000128890422DD2401C80B208801A490A8850
:101A2000824200D20880194A01211068C0F8008063
:101A3000C0E902760582C0F814A0A0F81890C0F89A
:101A40001CB0406810601248018112490160416079
:101A5000002000F039F81048007808B10F490870EC
:101A600000202080FEF73EFE0098BDE8F84FFEF70C
:101A70002BBC0B480188491C018044F25360F0E7FD
:101A8000640000206223000866000020600000203F
:101A9000A0050020E00400206A0000206C00002067
:101AA0006800002010B50024064802E02034E4B2AB
:101AB000001D01680029F9D00846FEF70CFC2044FF
:101AC000C0B210BD4C00002000F01F0241090120EF
:101AD000C2F11F029040034A52F82130034342F8FA
:101AE000213070474C0000207047000070B51E4C3C
:101AF00092B00025266846F080562660246804F0DF
:101B000080541194194C266846F440462660246897
:101B10000DF1240C04F44044119401240094019428
:101B2000022406948CE80D006605CDE9076168463D
:101B3000FFF76CFA00B1FEE7FFF7A0F800B1FEE78F
:101B40000CA90F2081E831004FF4A0500F904FF402
:101B50008050109005210CA8FFF7D4F8002800D081
:101B6000FEE712B070BD0000403802400070004037
:101B700010B5FFF70FF806480078012807D1FFF7E6
:101B800083FEFFF70BFFBDE81040FFF78DBE10BDD1
:101B90005D0000201048016841F4700101600F48A9
:101BA000016841F0010101600C4A00210832116016
:101BB00002680B4B1A400260031D0A4A1A60026851
:101BC00022F48022026005480C3001600249580668
:101BD000803908607047000088ED00E0003802405E
:101BE000FFFFF6FE1030002410B5FFF74DFE03484E
:101BF000FFF703FCBDE81040FFF756BE8801002048
:101C00000D4908680269D243D20714D1921E0261BD
:101C10000A48028842F4004202800868016A41F2E0
:101C20001112114207D1016A9210114203D10168C9
:101C300021F0010101607047C40100202C00002048
:101C400038B5104A0023146844F020041460126868
:101C50000D4C02F0200200920C4AC2E902301361DE
:101C6000C2E900411046FFF781FB0848FFF7B8FBC7
:101C7000012200213720FEF7CFFFBDE83840372092
:101C8000FEF7BFBF4038024000140040C4010020EE
:101C9000F0B50268234D244E244FDFF894C0254B45
:101CA0004FF0804EA84209D0704507D0B04205D011
:101CB000B84203D0604501D0984203D122F07004AD
:101CC0004A682243A8421BD0704519D0B04217D0B1
:101CD000B84215D0604513D0984211D0164CA0429E
:101CE0000ED0164CA0420BD0154CA04208D0154C7B
:101CF000A04205D0144CA04202D0144CA04203D103
:101D000022F44074CA68224302608A68C2620A6888
:101D10008262A84201D0984201D109690163012180
:101D20004161F0BD00000140000400400008004097
:101D3000000C00400004014000400140004401400C
:101D40000048014000180040001C004000200040F6
:101D500010B590F83910222903D0322901D0022081
:101D600010BD8168B1F5805F11D00169002901685B
:101D70001FD0496801F07F03816A4A1C82620B70A0
:101D8000C18D491E0904090CC18518D02FE00269D4
:101D9000816A002A0268526805D0D2B20A80816A3C
:101DA000491C8162ECE7C2F308020A80816A891C3F
:101DB000F7E74A68816A4B1C83620A70E0E70168B2
:101DC000CA6822F02002CA6090F83910322910D077
:101DD0000168CA6822F48072CA6001684A6922F008
:101DE00001024A61012180F83910FFF738FD002017
:101DF00010BD1221F7E700002DE9F041044600680C
:101E00000169E26821F440510A4302612068C16817
:101E100049F20C6291432369A268E5691A43636938
:101E20002B431A430A43C2602068416921F440727F
:101E3000A16911434161E06964263225B0F5004F84
:101E4000484A494920681DD0884201D0904269D152
:101E5000FFF78CF800EBC00101EB00106168B046A1
:101E60008900B0FBF1F1B1FBF8F6FFF77FF800EB6A
:101E7000C00101EB001061688900B0FBF1F7FFF7CA
:101E800075F868E0884201D0904219D1FFF76EF8EA
:101E900000EBC00101EB00106168B0464900B0FBE7
:101EA000F1F1B1FBF8F6FFF761F800EBC00101EBCF
:101EB000001061684900B0FBF1F7FFF757F818E030
:101EC000FFF73EF800EBC00101EB00106168B0467F
:101ED0004900B0FBF1F1B1FBF8F6FFF731F800EB88
:101EE000C00101EB001061684900B0FBF1F7FFF79A
:101EF00027F800EBC00101EB001061684900B0FB5E
:101F0000F1F1B1FBF8F06FF01801484307EB8000E6
:101F100005EB0011B1FBF8F0216866F31F10886033
:101F2000BDE8F081FFF70CF800EBC00101EB0010F9
:101F30006168B0468900B0FBF1F1B1FBF8F6FEF73D
:101F4000FFFF00EBC00101EB001061688900B0FBEE
:101F5000F1F7FEF7F5FF00EBC00101EB001061683F
:101F60008900CCE7001401400010014090F83910BE
:101F7000122903D0322901D0022070478168B1F5BF
:101F8000805F016A0BD04A1C0262026809785160C6
:101F9000C18C491E0904090CC1840ED017E00988C0
:101FA0000268C1F30801516001690029016A02D089
:101FB000491C0162ECE7891CFBE70168CA6822F052
:101FC0008002CA600068C16841F04001C160002021
:101FD00070472DE9F0471D4690460F460446FEF730
:101FE000D3FD06465FEA08004FF000094FF00108F4
:101FF00008D030E0681C05D095B1FEF7C5FD801B08
:10200000A8420DD82068006837EA0000F2D127E026
:10201000681C20D025B1FEF7B7FD801BA8421AD955
:102020002068C16821F08001C1602068C16821F08A
:102030002001C1602068C16821F48071C1602068FE
:10204000416921F00101416184F8398084F83890B8
:102050000320BDE8F0872068006837EA0000D7D089
:102060000020F6E738B5FFF70FFC28480068006845
:10207000C043800643D44FF47A7301226946234853
:10208000FFF788FB224A1088010438D4410406D4A3
:102090009DF80010422932D140F480402EE08104A6
:1020A0004FF0000306D49DF800104D2915D140F4DF
:1020B000005023E0C10406D49DF8001040F4805085
:1020C000090251801AE001059DF8001007D45180E3
:1020D00040F4006010801C2911D913800FE00B4CD4
:1020E000C0F30A03C83C401CE15480B210805388FE
:1020F000C0F30A01994202D140F400401080034825
:10210000FFF762FAFFF7D0FB38BD0000480100205E
:1021100020000020174808B500680068C04380060A
:1021200021D44FF47A73012269461248FFF732FB3B
:1021300011490888000416D40888B0F5967F13D298
:102140000E48002203685A620A8822B900680268B1
:1021500042F0010202609DF800200888084B034409
:10216000401C08801A7008BD088840F400400880B0
:1021700008BD0000480200202C000020C4010020FF
:10218000B4030020FEE730380A2801D2012070474E
:10219000002070477047000010B504460420FFF788
:1021A000C3F80D4A0D480E4B546001680068B3FB3C
:1021B000F1F14FF47A73B3FBF0F010804FF0E020B0
:1021C0006143026942F0020202614161016941F02A
:1021D0000101016110BD0000180000206423000807
:1021E00040420F0003490A685206FCD5C2B24A6059
:1021F00070470000001001400823022219214FF40B
:10220000B470FFF773FCFEF7CDFCB420FFF7C4FFFA
:102210004FF4E134204600F01BF8204600F02AF885
:1022200001A0FEF765F8FBE77072652D33747474D6
:10223000747474747474747474747474747474339F
:1022400033333333333333333333333333330000C4
:102250000749064AC1E9002000208860C86008617B
:1022600088610C2048610846FFF728BA0010014039
:102270004801002070B506462D4886B0002501684B
:1022800041F002010160006800F00200059028485A
:102290001030016841F4802101600068012100F4E0
:1022A000802005904FF4806000900220CDE901016C
:1022B000039007201F4C049069462046FEF776FBEA
:1022C000E014009069462046FEF770FB1B4C1A484C
:1022D0002060C4E90165E5600C202561C4E90505BD
:1022E0002046FFF7EBF92068C16841F02001C1608A
:1022F0002720FEF786FC022200212720FEF78CFC17
:1023000042F22731C720FFF79BFC0D480068016AA5
:1023100041F21112114207D1016A9210114203D108
:10232000016821F0010101600648058006B070BD1A
:1023300030380240000402400048004048020020BB
:10234000C40100202C0000204FF04070E1EE100A84
:1023500070470000000001020304010203040607A5
:1023600008090A00E803000004000008000000005B
:102370000000000200010000100000009C23000883
:102380000000002080000000E80100081C24000874
:1023900080000020A8140000040200080024F400BB
:1023A0000000000000000000010203040607080905
:1023B000000000000000000000000000000000001D
:1023C000000000000000000000000000000000000D
:1023D00000000000000000000000000000000000FD
:1023E00000000000000000000000000000000000ED
:1023F00000000000000000000000000000000000DD
:1024000000000000000000000000000000000000CC
:0C241000000000000000000000000000C0
:04000005080001AD41
:00000001FF
