:020000002100DD
:02000300212DAD
:02001300214783
:1001000075816075D000D2A8D288D2AAD28AD2AF27
:1001100075B80175B0FF90018C78037A083122021E
:100120000116E8F59023F81201A6DAF622C0D0C035
:10013000E075D008E5B0F4604E12019DE5B0F460C2
:100140004620E21D020187C0D0C0E075D010E5B0A6
:10015000F4603412019DE5B0F4602C20E315020137
:1001600087740093B4FF03020187F5801201A6A3F0
:1001700002016179017B08317C020187E9F5902356
:10018000F91201A6DBF622D0E0D0D032C0F9A4B03B
:10019000999282F880908883C6A1868EFF7F197E0F
:1001A000C8DEFEDFFA227D147E647FF8DFFEDEFA11
:0301B000DDF62257
:00000001FF
