:020000002100DD
:100100007581609001877D80780875F00075A0008A
:10011000120118D8F8020100120175700512019839
:100120000822120198120175700221187AEF7C00E2
:100130008A90209004740021572091047404215760
:1001400020920474082157209304740C21570CEA60
:1001500030E7C523FA21302C317D9385F080F5A05E
:10016000316A1201A1D8B102010012017570FB12AF
:10017000019870F62275900FE590640F22F5F0ED6E
:1001800023FDE5F08DF0223F065B4F666D7D077F16
:100190006F777C395E7971007F197EC8DEFEDFFAE9
:0A01A000227F0A7E14DEFEDFFA2241
:00000001FF
