:030000000204DD1A
:0C04DD00787FE4F6D8FD7581400200260F
:10000300E4FDFCC3ED9FEC9E5015E4FAFB0BBB0033
:0F001300010AEB647B4A70F50DBD00010C80E41F
:0100220022BB
:10049A0079C87F287E00120003E5357002D9F3E996
:0604AA007002FF227F0139
:0104B0002229
:06037E008B228A23892472
:10038400E4FEFDEDC39F5013AB22AA23A9248D8262
:0D03940075830012031462060D80E8AF06A9
:0103A1002239
:080293008F1C8B1D8A1E891FC0
:10029B00E4FFFEF520F521752DF5C3EF951CEE94CB
:1002AB0000501BAB1DAA1EA91F8F828E8312031435
:1002BB00FD742E2FF8A6050FBF00010E80DCAB1DC1
:1002CB00AA1EA91FAF1C12037E742E251CF8A607AD
:1002DB00742F251CF876F5E51C2403F521E433F582
:1002EB0020E4F535AD218D36FB7A00792D0203C55F
:0201F7008F1A5D
:1001F900E4F51B12049AEF7003AF1B22E4F540E506
:10020900356005E4F5358003AF1B22E52564F5600B
:1002190003AF1B22E526651A6003AF1B22E53624CE
:10022900FDFF7B007A00792612037EEF652B6003C0
:10023900AF1B22E51A1424FD5012602514602224F4
:10024900FC602724FE601A146026803BE5297002B1
:100259008013E5296407702F7FDC7E051200038077
:1002690026E5297022751B01801DE5297019801169
:10027900E5296401600BE52964026005E529B403F9
:0902890006751B01852837AF1B27
:010292002249
:1004B10075120CE4F513F514F515F516FB7A0079B0
:0604C100127F0502029308
:1004C700751205E4F513F514F515F516FB7A0079A1
:0604D700127F05020293F2
:02046800AC06E0
:10046A007512048C13EFF514E4F515F516FB7A00F2
:07047A0079127F05020293D5
:02048100AC06C7
:1004830075380B8C39EFF53AE4F53BF53CFB7A0014
:0704930079387F0502029396
:02041A00AC062E
:10041C007514018C15EFF516751701E4F518FB7AB8
:08042C000079147F0502029320
:02043400AC0614
:100436007514028C15EFF516751701E4F518FB7A9D
:080446000079147F0502029306
:02044E00AC06FA
:100450007514038C15EFF516751701E4F518FB7A82
:080460000079147F05020293EC
:100341008E128F1312041A7F011201F7EF7002FF50
:10035100227F647E00120003AF13AE121204347FB9
:10036100021201F7EF7002FF227F647E0012000388
:0D037100AF13AE1212044E7F031201F722EB
:0904E9001204C77F051201F7227D
:0904F2001204687F041201F722D4
:1003E300751209E4F513F514F515F516FB7A007982
:0B03F300127F051202937F091201F730
:0103FE0022DC
:0904FB001204B17F0C1201F7227A
:100026001203FFE5A0541FFF641F603D7F0A7E0098
:10003600120003E5A0541FFF641F602DEFF4FEBEFF
:10004600E103751001BEE203751002BEE4037510EC
:1000560003BEE803751004BEF003751005EF641FB8
:100066006007E5A0541FFF80F4E51014601B1460C0
:100076003B14607214700302010C14700302013009
:100086002405709F7580FF809AE4F5100511AF1165
:10009600FE120341EF60077580F07F018005E4F5ED
:1000A600807F031201527FD07E078078E4F510121C
:1000B60004FBEF6007E537F4F580800BE4F5807FFD
:1000C60003120152020029AF377E001204F2EF60DC
:1000D600077580F07F018005E4F5807F03120152E9
:1000E6007FE87E03803EE4F5101204FBEF6009E52D
:1000F60037F4F5807F018005E4F5807F0312015215
:100106007FE87E03801EE4F5101203E3EF6009E545
:1001160037F4F5807F018005E4F5807F03120152F4
:100126007FE87E03120003020029E4F5101204E9B9
:10013600EF60077580F07F018005E4F5807F03128C
:0C01460001527FE87E0312000302002932
:10015200EF24FE602014604F240260030201F6E4E3
:10016200F512B2957F017E001200030512E512C35B
:10017200946440EE22E4F512B2957F017E001200F3
:10018200030512E512C3946440EE7FC87E0012009C
:1001920003E4F512B2957F017E001200030512E519
:1001A20012C3946440EE22E4F512B2957F017E0000
:1001B2001200030512E512C3946440EE7FC87E006C
:1001C200120003E4F512B2957F017E0012000305CE
:1001D20012E512C3946440EE7FC87E00120003E46D
:1001E200F512B2957F017E001200030512E512C3DB
:0401F200946440EEE3
:0101F60022E6
:1003FF0043878075985053890F438920758BFD75FE
:0B040F008DFDC2ABD28ED2ACD2AF226A
:080504008F993099FDC2992284
:1003C5008B228A238924AB220524E524AA237002E3
:0E03D500052314F91202FBFF120504DDE922D4
:030023000203A233
:1003A200C0E0C0D075D008309814C298AF40054064
:1003B20074252FF8A699E540B408037535FFD0D00F
:0303C200D0E03256
:1002FB00BB010689828A83E0225002E722BBFE0201
:09030B00E32289828A83E4932233
:10031400BB010CE58229F582E5833AF583E022509E
:1003240006E92582F8E622BBFE06E92582F8E222E8
:0D033400E58229F582E5833AF583E4932202
:00000001FF
